{
  "_format": "hh-sol-artifact-1",
  "contractName": "Pocket",
  "sourceName": "contracts/Pocket.sol",
  "abi": [
    {
      "inputs": [],
      "stateMutability": "nonpayable",
      "type": "constructor"
    },
    {
      "anonymous": false,
      "inputs": [
        {
          "indexed": true,
          "internalType": "address",
          "name": "owner",
          "type": "address"
        },
        {
          "indexed": true,
          "internalType": "address",
          "name": "spender",
          "type": "address"
        },
        {
          "indexed": false,
          "internalType": "uint256",
          "name": "value",
          "type": "uint256"
        }
      ],
      "name": "Approval",
      "type": "event"
    },
    {
      "anonymous": false,
      "inputs": [
        {
          "indexed": true,
          "internalType": "address",
          "name": "previousOwner",
          "type": "address"
        },
        {
          "indexed": true,
          "internalType": "address",
          "name": "newOwner",
          "type": "address"
        }
      ],
      "name": "OwnershipTransferred",
      "type": "event"
    },
    {
      "anonymous": false,
      "inputs": [
        {
          "indexed": true,
          "internalType": "address",
          "name": "from",
          "type": "address"
        },
        {
          "indexed": true,
          "internalType": "address",
          "name": "to",
          "type": "address"
        },
        {
          "indexed": false,
          "internalType": "uint256",
          "name": "value",
          "type": "uint256"
        }
      ],
      "name": "Transfer",
      "type": "event"
    },
    {
      "inputs": [
        {
          "internalType": "uint256",
          "name": "amount",
          "type": "uint256"
        }
      ],
      "name": "addRewards",
      "outputs": [
        {
          "internalType": "bool",
          "name": "",
          "type": "bool"
        }
      ],
      "stateMutability": "nonpayable",
      "type": "function"
    },
    {
      "inputs": [
        {
          "internalType": "address",
          "name": "owner",
          "type": "address"
        },
        {
          "internalType": "address",
          "name": "spender",
          "type": "address"
        }
      ],
      "name": "allowance",
      "outputs": [
        {
          "internalType": "uint256",
          "name": "",
          "type": "uint256"
        }
      ],
      "stateMutability": "view",
      "type": "function"
    },
    {
      "inputs": [
        {
          "internalType": "address",
          "name": "spender",
          "type": "address"
        },
        {
          "internalType": "uint256",
          "name": "amount",
          "type": "uint256"
        }
      ],
      "name": "approve",
      "outputs": [
        {
          "internalType": "bool",
          "name": "",
          "type": "bool"
        }
      ],
      "stateMutability": "nonpayable",
      "type": "function"
    },
    {
      "inputs": [
        {
          "internalType": "address",
          "name": "account",
          "type": "address"
        }
      ],
      "name": "balanceOf",
      "outputs": [
        {
          "internalType": "uint256",
          "name": "",
          "type": "uint256"
        }
      ],
      "stateMutability": "view",
      "type": "function"
    },
    {
      "inputs": [],
      "name": "decimals",
      "outputs": [
        {
          "internalType": "uint8",
          "name": "",
          "type": "uint8"
        }
      ],
      "stateMutability": "view",
      "type": "function"
    },
    {
      "inputs": [
        {
          "internalType": "address",
          "name": "spender",
          "type": "address"
        },
        {
          "internalType": "uint256",
          "name": "subtractedValue",
          "type": "uint256"
        }
      ],
      "name": "decreaseAllowance",
      "outputs": [
        {
          "internalType": "bool",
          "name": "",
          "type": "bool"
        }
      ],
      "stateMutability": "nonpayable",
      "type": "function"
    },
    {
      "inputs": [
        {
          "internalType": "address",
          "name": "account",
          "type": "address"
        }
      ],
      "name": "excludeFromRewards",
      "outputs": [],
      "stateMutability": "nonpayable",
      "type": "function"
    },
    {
      "inputs": [
        {
          "internalType": "address",
          "name": "account",
          "type": "address"
        }
      ],
      "name": "includeInRewards",
      "outputs": [],
      "stateMutability": "nonpayable",
      "type": "function"
    },
    {
      "inputs": [
        {
          "internalType": "address",
          "name": "spender",
          "type": "address"
        },
        {
          "internalType": "uint256",
          "name": "addedValue",
          "type": "uint256"
        }
      ],
      "name": "increaseAllowance",
      "outputs": [
        {
          "internalType": "bool",
          "name": "",
          "type": "bool"
        }
      ],
      "stateMutability": "nonpayable",
      "type": "function"
    },
    {
      "inputs": [
        {
          "internalType": "address",
          "name": "",
          "type": "address"
        }
      ],
      "name": "lastTotalDividends",
      "outputs": [
        {
          "internalType": "uint256",
          "name": "",
          "type": "uint256"
        }
      ],
      "stateMutability": "view",
      "type": "function"
    },
    {
      "inputs": [],
      "name": "name",
      "outputs": [
        {
          "internalType": "string",
          "name": "",
          "type": "string"
        }
      ],
      "stateMutability": "view",
      "type": "function"
    },
    {
      "inputs": [],
      "name": "owner",
      "outputs": [
        {
          "internalType": "address",
          "name": "",
          "type": "address"
        }
      ],
      "stateMutability": "view",
      "type": "function"
    },
    {
      "inputs": [],
      "name": "renounceOwnership",
      "outputs": [],
      "stateMutability": "nonpayable",
      "type": "function"
    },
    {
      "inputs": [
        {
          "internalType": "address",
          "name": "",
          "type": "address"
        }
      ],
      "name": "rewardsExcluded",
      "outputs": [
        {
          "internalType": "bool",
          "name": "",
          "type": "bool"
        }
      ],
      "stateMutability": "view",
      "type": "function"
    },
    {
      "inputs": [],
      "name": "rewardsIncludedSupply",
      "outputs": [
        {
          "internalType": "uint256",
          "name": "",
          "type": "uint256"
        }
      ],
      "stateMutability": "view",
      "type": "function"
    },
    {
      "inputs": [],
      "name": "symbol",
      "outputs": [
        {
          "internalType": "string",
          "name": "",
          "type": "string"
        }
      ],
      "stateMutability": "view",
      "type": "function"
    },
    {
      "inputs": [],
      "name": "totalSupply",
      "outputs": [
        {
          "internalType": "uint256",
          "name": "",
          "type": "uint256"
        }
      ],
      "stateMutability": "view",
      "type": "function"
    },
    {
      "inputs": [
        {
          "internalType": "address",
          "name": "to",
          "type": "address"
        },
        {
          "internalType": "uint256",
          "name": "amount",
          "type": "uint256"
        }
      ],
      "name": "transfer",
      "outputs": [
        {
          "internalType": "bool",
          "name": "",
          "type": "bool"
        }
      ],
      "stateMutability": "nonpayable",
      "type": "function"
    },
    {
      "inputs": [
        {
          "internalType": "address",
          "name": "from",
          "type": "address"
        },
        {
          "internalType": "address",
          "name": "to",
          "type": "address"
        },
        {
          "internalType": "uint256",
          "name": "amount",
          "type": "uint256"
        }
      ],
      "name": "transferFrom",
      "outputs": [
        {
          "internalType": "bool",
          "name": "",
          "type": "bool"
        }
      ],
      "stateMutability": "nonpayable",
      "type": "function"
    },
    {
      "inputs": [
        {
          "internalType": "address",
          "name": "newOwner",
          "type": "address"
        }
      ],
      "name": "transferOwnership",
      "outputs": [],
      "stateMutability": "nonpayable",
      "type": "function"
    }
  ],
  "bytecode": "0x60806040523480156200001157600080fd5b506040518060400160405280600781526020017f58506f636b6574000000000000000000000000000000000000000000000000008152506040518060400160405280600681526020017f504f434b45540000000000000000000000000000000000000000000000000000815250816003908051906020019062000096929190620003be565b508060049080519060200190620000af929190620003be565b505050620000d2620000c66200016360201b60201c565b6200016b60201b60201c565b620000ef336a295be96e640669720000006200023160201b60201c565b620000ff620003aa60201b60201c565b6008819055506001600660003073ffffffffffffffffffffffffffffffffffffffff1673ffffffffffffffffffffffffffffffffffffffff16815260200190815260200160002060006101000a81548160ff0219169083151502179055506200061a565b600033905090565b6000600560009054906101000a900473ffffffffffffffffffffffffffffffffffffffff16905081600560006101000a81548173ffffffffffffffffffffffffffffffffffffffff021916908373ffffffffffffffffffffffffffffffffffffffff1602179055508173ffffffffffffffffffffffffffffffffffffffff168173ffffffffffffffffffffffffffffffffffffffff167f8be0079c531659141344cd1fd0a4f28419497f9722a3daafe3b4186f6b6457e060405160405180910390a35050565b600073ffffffffffffffffffffffffffffffffffffffff168273ffffffffffffffffffffffffffffffffffffffff161415620002a4576040517f08c379a00000000000000000000000000000000000000000000000000000000081526004016200029b90620004a6565b60405180910390fd5b620002b860008383620003b460201b60201c565b8060026000828254620002cc9190620004f6565b92505081905550806000808473ffffffffffffffffffffffffffffffffffffffff1673ffffffffffffffffffffffffffffffffffffffff1681526020019081526020016000206000828254620003239190620004f6565b925050819055508173ffffffffffffffffffffffffffffffffffffffff16600073ffffffffffffffffffffffffffffffffffffffff167fddf252ad1be2c89b69c2b068fc378daa952ba7f163c4a11628f55a4df523b3ef836040516200038a9190620004c8565b60405180910390a3620003a660008383620003b960201b60201c565b5050565b6000600254905090565b505050565b505050565b828054620003cc906200055d565b90600052602060002090601f016020900481019282620003f057600085556200043c565b82601f106200040b57805160ff19168380011785556200043c565b828001600101855582156200043c579182015b828111156200043b5782518255916020019190600101906200041e565b5b5090506200044b91906200044f565b5090565b5b808211156200046a57600081600090555060010162000450565b5090565b60006200047d601f83620004e5565b91506200048a82620005f1565b602082019050919050565b620004a08162000553565b82525050565b60006020820190508181036000830152620004c1816200046e565b9050919050565b6000602082019050620004df600083018462000495565b92915050565b600082825260208201905092915050565b6000620005038262000553565b9150620005108362000553565b9250827fffffffffffffffffffffffffffffffffffffffffffffffffffffffffffffffff0382111562000548576200054762000593565b5b828201905092915050565b6000819050919050565b600060028204905060018216806200057657607f821691505b602082108114156200058d576200058c620005c2565b5b50919050565b7f4e487b7100000000000000000000000000000000000000000000000000000000600052601160045260246000fd5b7f4e487b7100000000000000000000000000000000000000000000000000000000600052602260045260246000fd5b7f45524332303a206d696e7420746f20746865207a65726f206164647265737300600082015250565b6121dc806200062a6000396000f3fe608060405234801561001057600080fd5b506004361061012c5760003560e01c80638bf2581c116100ad578063b609995e11610071578063b609995e1461036d578063beceed3914610389578063dd62ed3e146103b9578063e0b9103d146103e9578063f2fde38b146104075761012c565b80638bf2581c146102a15780638da5cb5b146102d157806395d89b41146102ef578063a457c2d71461030d578063a9059cbb1461033d5761012c565b806323b872dd116100f457806323b872dd146101e9578063313ce56714610219578063395093511461023757806370a0823114610267578063715018a6146102975761012c565b806306fdde0314610131578063095ea7b31461014f578063111e03761461017f57806318160ddd1461019b57806318a01684146101b9575b600080fd5b610139610423565b6040516101469190611a1e565b60405180910390f35b6101696004803603810190610164919061178d565b6104b5565b6040516101769190611a03565b60405180910390f35b610199600480360381019061019491906116d9565b6104d8565b005b6101a36106ca565b6040516101b09190611ba0565b60405180910390f35b6101d360048036038101906101ce91906116d9565b6106d4565b6040516101e09190611ba0565b60405180910390f35b61020360048036038101906101fe919061173e565b6106ec565b6040516102109190611a03565b60405180910390f35b61022161071b565b60405161022e9190611bbb565b60405180910390f35b610251600480360381019061024c919061178d565b610724565b60405161025e9190611a03565b60405180910390f35b610281600480360381019061027c91906116d9565b61075b565b60405161028e9190611ba0565b60405180910390f35b61029f610780565b005b6102bb60048036038101906102b691906116d9565b610808565b6040516102c89190611a03565b60405180910390f35b6102d9610828565b6040516102e691906119e8565b60405180910390f35b6102f7610852565b6040516103049190611a1e565b60405180910390f35b6103276004803603810190610322919061178d565b6108e4565b6040516103349190611a03565b60405180910390f35b6103576004803603810190610352919061178d565b61095b565b6040516103649190611a03565b60405180910390f35b610387600480360381019061038291906116d9565b61097e565b005b6103a3600480360381019061039e91906117c9565b610b41565b6040516103b09190611a03565b60405180910390f35b6103d360048036038101906103ce9190611702565b610b54565b6040516103e09190611ba0565b60405180910390f35b6103f1610bdb565b6040516103fe9190611ba0565b60405180910390f35b610421600480360381019061041c91906116d9565b610be1565b005b60606003805461043290611d8f565b80601f016020809104026020016040519081016040528092919081815260200182805461045e90611d8f565b80156104ab5780601f10610480576101008083540402835291602001916104ab565b820191906000526020600020905b81548152906001019060200180831161048e57829003601f168201915b5050505050905090565b6000806104c0610cd9565b90506104cd818585610ce1565b600191505092915050565b80600660008273ffffffffffffffffffffffffffffffffffffffff1673ffffffffffffffffffffffffffffffffffffffff16815260200190815260200160002060009054906101000a900460ff1615610566576040517f08c379a000000000000000000000000000000000000000000000000000000000815260040161055d90611b60565b60405180910390fd5b81600061057282610eac565b9050600954600760008473ffffffffffffffffffffffffffffffffffffffff1673ffffffffffffffffffffffffffffffffffffffff1681526020019081526020016000208190555060008111156105cf576105ce308383610fcd565b5b6105d7610cd9565b73ffffffffffffffffffffffffffffffffffffffff166105f5610828565b73ffffffffffffffffffffffffffffffffffffffff161461064b576040517f08c379a000000000000000000000000000000000000000000000000000000000815260040161064290611b00565b60405180910390fd5b6001600660008673ffffffffffffffffffffffffffffffffffffffff1673ffffffffffffffffffffffffffffffffffffffff16815260200190815260200160002060006101000a81548160ff0219169083151502179055506106ac8461124e565b600860008282546106bd9190611cd3565b9250508190555050505050565b6000600254905090565b60076020528060005260406000206000915090505481565b6000806106f7610cd9565b9050610704858285611296565b61070f858585611322565b60019150509392505050565b60006012905090565b60008061072f610cd9565b90506107508185856107418589610b54565b61074b9190611bf2565b610ce1565b600191505092915050565b600061076682610eac565b61076f8361124e565b6107799190611bf2565b9050919050565b610788610cd9565b73ffffffffffffffffffffffffffffffffffffffff166107a6610828565b73ffffffffffffffffffffffffffffffffffffffff16146107fc576040517f08c379a00000000000000000000000000000000000000000000000000000000081526004016107f390611b00565b60405180910390fd5b61080660006115df565b565b60066020528060005260406000206000915054906101000a900460ff1681565b6000600560009054906101000a900473ffffffffffffffffffffffffffffffffffffffff16905090565b60606004805461086190611d8f565b80601f016020809104026020016040519081016040528092919081815260200182805461088d90611d8f565b80156108da5780601f106108af576101008083540402835291602001916108da565b820191906000526020600020905b8154815290600101906020018083116108bd57829003601f168201915b5050505050905090565b6000806108ef610cd9565b905060006108fd8286610b54565b905083811015610942576040517f08c379a000000000000000000000000000000000000000000000000000000000815260040161093990611b80565b60405180910390fd5b61094f8286868403610ce1565b60019250505092915050565b600080610966610cd9565b9050610973818585611322565b600191505092915050565b80600660008273ffffffffffffffffffffffffffffffffffffffff1673ffffffffffffffffffffffffffffffffffffffff16815260200190815260200160002060009054906101000a900460ff16610a0b576040517f08c379a0000000000000000000000000000000000000000000000000000000008152600401610a0290611a60565b60405180910390fd5b610a13610cd9565b73ffffffffffffffffffffffffffffffffffffffff16610a31610828565b73ffffffffffffffffffffffffffffffffffffffff1614610a87576040517f08c379a0000000000000000000000000000000000000000000000000000000008152600401610a7e90611b00565b60405180910390fd5b600660008373ffffffffffffffffffffffffffffffffffffffff1673ffffffffffffffffffffffffffffffffffffffff16815260200190815260200160002060006101000a81549060ff0219169055600954600760008473ffffffffffffffffffffffffffffffffffffffff1673ffffffffffffffffffffffffffffffffffffffff16815260200190815260200160002081905550610b258261124e565b60086000828254610b369190611bf2565b925050819055505050565b6000610b4d308361095b565b9050919050565b6000600160008473ffffffffffffffffffffffffffffffffffffffff1673ffffffffffffffffffffffffffffffffffffffff16815260200190815260200160002060008373ffffffffffffffffffffffffffffffffffffffff1673ffffffffffffffffffffffffffffffffffffffff16815260200190815260200160002054905092915050565b60085481565b610be9610cd9565b73ffffffffffffffffffffffffffffffffffffffff16610c07610828565b73ffffffffffffffffffffffffffffffffffffffff1614610c5d576040517f08c379a0000000000000000000000000000000000000000000000000000000008152600401610c5490611b00565b60405180910390fd5b600073ffffffffffffffffffffffffffffffffffffffff168173ffffffffffffffffffffffffffffffffffffffff161415610ccd576040517f08c379a0000000000000000000000000000000000000000000000000000000008152600401610cc490611a80565b60405180910390fd5b610cd6816115df565b50565b600033905090565b600073ffffffffffffffffffffffffffffffffffffffff168373ffffffffffffffffffffffffffffffffffffffff161415610d51576040517f08c379a0000000000000000000000000000000000000000000000000000000008152600401610d4890611b40565b60405180910390fd5b600073ffffffffffffffffffffffffffffffffffffffff168273ffffffffffffffffffffffffffffffffffffffff161415610dc1576040517f08c379a0000000000000000000000000000000000000000000000000000000008152600401610db890611aa0565b60405180910390fd5b80600160008573ffffffffffffffffffffffffffffffffffffffff1673ffffffffffffffffffffffffffffffffffffffff16815260200190815260200160002060008473ffffffffffffffffffffffffffffffffffffffff1673ffffffffffffffffffffffffffffffffffffffff168152602001908152602001600020819055508173ffffffffffffffffffffffffffffffffffffffff168373ffffffffffffffffffffffffffffffffffffffff167f8c5be1e5ebec7d5bd14f71427d1e84f3dd0314c0f7b2291e5b200ac8c7c3b92583604051610e9f9190611ba0565b60405180910390a3505050565b60003073ffffffffffffffffffffffffffffffffffffffff168273ffffffffffffffffffffffffffffffffffffffff161480610f315750600660008373ffffffffffffffffffffffffffffffffffffffff1673ffffffffffffffffffffffffffffffffffffffff16815260200190815260200160002060009054906101000a900460ff165b15610f3f5760009050610fc8565b6000610f4a8361124e565b90506000811415610f5f576000915050610fc8565b600854600760008573ffffffffffffffffffffffffffffffffffffffff1673ffffffffffffffffffffffffffffffffffffffff16815260200190815260200160002054600954610faf9190611cd3565b82610fba9190611c79565b610fc49190611c48565b9150505b919050565b600073ffffffffffffffffffffffffffffffffffffffff168373ffffffffffffffffffffffffffffffffffffffff16141561103d576040517f08c379a000000000000000000000000000000000000000000000000000000000815260040161103490611b20565b60405180910390fd5b600073ffffffffffffffffffffffffffffffffffffffff168273ffffffffffffffffffffffffffffffffffffffff1614156110ad576040517f08c379a00000000000000000000000000000000000000000000000000000000081526004016110a490611a40565b60405180910390fd5b6110b88383836116a5565b60008060008573ffffffffffffffffffffffffffffffffffffffff1673ffffffffffffffffffffffffffffffffffffffff1681526020019081526020016000205490508181101561113e576040517f08c379a000000000000000000000000000000000000000000000000000000000815260040161113590611ae0565b60405180910390fd5b8181036000808673ffffffffffffffffffffffffffffffffffffffff1673ffffffffffffffffffffffffffffffffffffffff16815260200190815260200160002081905550816000808573ffffffffffffffffffffffffffffffffffffffff1673ffffffffffffffffffffffffffffffffffffffff16815260200190815260200160002060008282546111d19190611bf2565b925050819055508273ffffffffffffffffffffffffffffffffffffffff168473ffffffffffffffffffffffffffffffffffffffff167fddf252ad1be2c89b69c2b068fc378daa952ba7f163c4a11628f55a4df523b3ef846040516112359190611ba0565b60405180910390a36112488484846116aa565b50505050565b60008060008373ffffffffffffffffffffffffffffffffffffffff1673ffffffffffffffffffffffffffffffffffffffff168152602001908152602001600020549050919050565b60006112a28484610b54565b90507fffffffffffffffffffffffffffffffffffffffffffffffffffffffffffffffff811461131c578181101561130e576040517f08c379a000000000000000000000000000000000000000000000000000000000815260040161130590611ac0565b60405180910390fd5b61131b8484848403610ce1565b5b50505050565b82600061132e82610eac565b9050600954600760008473ffffffffffffffffffffffffffffffffffffffff1673ffffffffffffffffffffffffffffffffffffffff16815260200190815260200160002081905550600081111561138b5761138a308383610fcd565b5b83600061139782610eac565b9050600954600760008473ffffffffffffffffffffffffffffffffffffffff1673ffffffffffffffffffffffffffffffffffffffff1681526020019081526020016000208190555060008111156113f4576113f3308383610fcd565b5b3073ffffffffffffffffffffffffffffffffffffffff168673ffffffffffffffffffffffffffffffffffffffff16141561144257846009600082825461143a9190611bf2565b925050819055505b61144d878787610fcd565b600660008873ffffffffffffffffffffffffffffffffffffffff1673ffffffffffffffffffffffffffffffffffffffff16815260200190815260200160002060009054906101000a900460ff1680156114f05750600660008773ffffffffffffffffffffffffffffffffffffffff1673ffffffffffffffffffffffffffffffffffffffff16815260200190815260200160002060009054906101000a900460ff16155b156115135784600860008282546115079190611bf2565b925050819055506115d6565b600660008873ffffffffffffffffffffffffffffffffffffffff1673ffffffffffffffffffffffffffffffffffffffff16815260200190815260200160002060009054906101000a900460ff161580156115b65750600660008773ffffffffffffffffffffffffffffffffffffffff1673ffffffffffffffffffffffffffffffffffffffff16815260200190815260200160002060009054906101000a900460ff165b156115d55784600860008282546115cd9190611cd3565b925050819055505b5b50505050505050565b6000600560009054906101000a900473ffffffffffffffffffffffffffffffffffffffff16905081600560006101000a81548173ffffffffffffffffffffffffffffffffffffffff021916908373ffffffffffffffffffffffffffffffffffffffff1602179055508173ffffffffffffffffffffffffffffffffffffffff168173ffffffffffffffffffffffffffffffffffffffff167f8be0079c531659141344cd1fd0a4f28419497f9722a3daafe3b4186f6b6457e060405160405180910390a35050565b505050565b505050565b6000813590506116be81612178565b92915050565b6000813590506116d38161218f565b92915050565b6000602082840312156116eb57600080fd5b60006116f9848285016116af565b91505092915050565b6000806040838503121561171557600080fd5b6000611723858286016116af565b9250506020611734858286016116af565b9150509250929050565b60008060006060848603121561175357600080fd5b6000611761868287016116af565b9350506020611772868287016116af565b9250506040611783868287016116c4565b9150509250925092565b600080604083850312156117a057600080fd5b60006117ae858286016116af565b92505060206117bf858286016116c4565b9150509250929050565b6000602082840312156117db57600080fd5b60006117e9848285016116c4565b91505092915050565b6117fb81611d07565b82525050565b61180a81611d19565b82525050565b600061181b82611bd6565b6118258185611be1565b9350611835818560208601611d5c565b61183e81611e4e565b840191505092915050565b6000611856602383611be1565b915061186182611e5f565b604082019050919050565b6000611879602183611be1565b915061188482611eae565b604082019050919050565b600061189c602683611be1565b91506118a782611efd565b604082019050919050565b60006118bf602283611be1565b91506118ca82611f4c565b604082019050919050565b60006118e2601d83611be1565b91506118ed82611f9b565b602082019050919050565b6000611905602683611be1565b915061191082611fc4565b604082019050919050565b6000611928602083611be1565b915061193382612013565b602082019050919050565b600061194b602583611be1565b91506119568261203c565b604082019050919050565b600061196e602483611be1565b91506119798261208b565b604082019050919050565b6000611991602583611be1565b915061199c826120da565b604082019050919050565b60006119b4602583611be1565b91506119bf82612129565b604082019050919050565b6119d381611d45565b82525050565b6119e281611d4f565b82525050565b60006020820190506119fd60008301846117f2565b92915050565b6000602082019050611a186000830184611801565b92915050565b60006020820190508181036000830152611a388184611810565b905092915050565b60006020820190508181036000830152611a5981611849565b9050919050565b60006020820190508181036000830152611a798161186c565b9050919050565b60006020820190508181036000830152611a998161188f565b9050919050565b60006020820190508181036000830152611ab9816118b2565b9050919050565b60006020820190508181036000830152611ad9816118d5565b9050919050565b60006020820190508181036000830152611af9816118f8565b9050919050565b60006020820190508181036000830152611b198161191b565b9050919050565b60006020820190508181036000830152611b398161193e565b9050919050565b60006020820190508181036000830152611b5981611961565b9050919050565b60006020820190508181036000830152611b7981611984565b9050919050565b60006020820190508181036000830152611b99816119a7565b9050919050565b6000602082019050611bb560008301846119ca565b92915050565b6000602082019050611bd060008301846119d9565b92915050565b600081519050919050565b600082825260208201905092915050565b6000611bfd82611d45565b9150611c0883611d45565b9250827fffffffffffffffffffffffffffffffffffffffffffffffffffffffffffffffff03821115611c3d57611c3c611dc1565b5b828201905092915050565b6000611c5382611d45565b9150611c5e83611d45565b925082611c6e57611c6d611df0565b5b828204905092915050565b6000611c8482611d45565b9150611c8f83611d45565b9250817fffffffffffffffffffffffffffffffffffffffffffffffffffffffffffffffff0483118215151615611cc857611cc7611dc1565b5b828202905092915050565b6000611cde82611d45565b9150611ce983611d45565b925082821015611cfc57611cfb611dc1565b5b828203905092915050565b6000611d1282611d25565b9050919050565b60008115159050919050565b600073ffffffffffffffffffffffffffffffffffffffff82169050919050565b6000819050919050565b600060ff82169050919050565b60005b83811015611d7a578082015181840152602081019050611d5f565b83811115611d89576000848401525b50505050565b60006002820490506001821680611da757607f821691505b60208210811415611dbb57611dba611e1f565b5b50919050565b7f4e487b7100000000000000000000000000000000000000000000000000000000600052601160045260246000fd5b7f4e487b7100000000000000000000000000000000000000000000000000000000600052601260045260246000fd5b7f4e487b7100000000000000000000000000000000000000000000000000000000600052602260045260246000fd5b6000601f19601f8301169050919050565b7f45524332303a207472616e7366657220746f20746865207a65726f206164647260008201527f6573730000000000000000000000000000000000000000000000000000000000602082015250565b7f506f636b65743a204e6f74206578636c756465642066726f6d2072657761726460008201527f7300000000000000000000000000000000000000000000000000000000000000602082015250565b7f4f776e61626c653a206e6577206f776e657220697320746865207a65726f206160008201527f6464726573730000000000000000000000000000000000000000000000000000602082015250565b7f45524332303a20617070726f766520746f20746865207a65726f20616464726560008201527f7373000000000000000000000000000000000000000000000000000000000000602082015250565b7f45524332303a20696e73756666696369656e7420616c6c6f77616e6365000000600082015250565b7f45524332303a207472616e7366657220616d6f756e742065786365656473206260008201527f616c616e63650000000000000000000000000000000000000000000000000000602082015250565b7f4f776e61626c653a2063616c6c6572206973206e6f7420746865206f776e6572600082015250565b7f45524332303a207472616e736665722066726f6d20746865207a65726f20616460008201527f6472657373000000000000000000000000000000000000000000000000000000602082015250565b7f45524332303a20617070726f76652066726f6d20746865207a65726f2061646460008201527f7265737300000000000000000000000000000000000000000000000000000000602082015250565b7f506f636b65743a20416c7265616479206578636c756465642066726f6d20726560008201527f7761726473000000000000000000000000000000000000000000000000000000602082015250565b7f45524332303a2064656372656173656420616c6c6f77616e63652062656c6f7760008201527f207a65726f000000000000000000000000000000000000000000000000000000602082015250565b61218181611d07565b811461218c57600080fd5b50565b61219881611d45565b81146121a357600080fd5b5056fea2646970667358221220dcba82ce23980143f1a27ebb68e6386ae00af40518837e6b61f612ff88388f9d64736f6c63430008040033",
  "linkReferences": {},
  "deployedLinkReferences": {}
}