{
  "_format": "hh-sol-artifact-1",
  "contractName": "MockPocket",
  "sourceName": "contracts/mocks/MockPocket.sol",
  "abi": [
    {
      "anonymous": false,
      "inputs": [
        {
          "indexed": true,
          "internalType": "address",
          "name": "owner",
          "type": "address"
        },
        {
          "indexed": true,
          "internalType": "address",
          "name": "spender",
          "type": "address"
        },
        {
          "indexed": false,
          "internalType": "uint256",
          "name": "value",
          "type": "uint256"
        }
      ],
      "name": "Approval",
      "type": "event"
    },
    {
      "anonymous": false,
      "inputs": [
        {
          "indexed": true,
          "internalType": "address",
          "name": "previousOwner",
          "type": "address"
        },
        {
          "indexed": true,
          "internalType": "address",
          "name": "newOwner",
          "type": "address"
        }
      ],
      "name": "OwnershipTransferred",
      "type": "event"
    },
    {
      "anonymous": false,
      "inputs": [
        {
          "indexed": true,
          "internalType": "address",
          "name": "from",
          "type": "address"
        },
        {
          "indexed": true,
          "internalType": "address",
          "name": "to",
          "type": "address"
        },
        {
          "indexed": false,
          "internalType": "uint256",
          "name": "value",
          "type": "uint256"
        }
      ],
      "name": "Transfer",
      "type": "event"
    },
    {
      "inputs": [
        {
          "internalType": "uint256",
          "name": "amount",
          "type": "uint256"
        }
      ],
      "name": "addRewards",
      "outputs": [
        {
          "internalType": "bool",
          "name": "",
          "type": "bool"
        }
      ],
      "stateMutability": "nonpayable",
      "type": "function"
    },
    {
      "inputs": [
        {
          "internalType": "address",
          "name": "owner",
          "type": "address"
        },
        {
          "internalType": "address",
          "name": "spender",
          "type": "address"
        }
      ],
      "name": "allowance",
      "outputs": [
        {
          "internalType": "uint256",
          "name": "",
          "type": "uint256"
        }
      ],
      "stateMutability": "view",
      "type": "function"
    },
    {
      "inputs": [
        {
          "internalType": "address",
          "name": "spender",
          "type": "address"
        },
        {
          "internalType": "uint256",
          "name": "amount",
          "type": "uint256"
        }
      ],
      "name": "approve",
      "outputs": [
        {
          "internalType": "bool",
          "name": "",
          "type": "bool"
        }
      ],
      "stateMutability": "nonpayable",
      "type": "function"
    },
    {
      "inputs": [
        {
          "internalType": "address",
          "name": "account",
          "type": "address"
        }
      ],
      "name": "balanceOf",
      "outputs": [
        {
          "internalType": "uint256",
          "name": "",
          "type": "uint256"
        }
      ],
      "stateMutability": "view",
      "type": "function"
    },
    {
      "inputs": [
        {
          "internalType": "address",
          "name": "from",
          "type": "address"
        },
        {
          "internalType": "uint256",
          "name": "value",
          "type": "uint256"
        }
      ],
      "name": "burn",
      "outputs": [],
      "stateMutability": "nonpayable",
      "type": "function"
    },
    {
      "inputs": [],
      "name": "decimals",
      "outputs": [
        {
          "internalType": "uint8",
          "name": "",
          "type": "uint8"
        }
      ],
      "stateMutability": "view",
      "type": "function"
    },
    {
      "inputs": [
        {
          "internalType": "address",
          "name": "spender",
          "type": "address"
        },
        {
          "internalType": "uint256",
          "name": "subtractedValue",
          "type": "uint256"
        }
      ],
      "name": "decreaseAllowance",
      "outputs": [
        {
          "internalType": "bool",
          "name": "",
          "type": "bool"
        }
      ],
      "stateMutability": "nonpayable",
      "type": "function"
    },
    {
      "inputs": [
        {
          "internalType": "address",
          "name": "account",
          "type": "address"
        }
      ],
      "name": "excludeFromRewards",
      "outputs": [],
      "stateMutability": "nonpayable",
      "type": "function"
    },
    {
      "inputs": [
        {
          "internalType": "address",
          "name": "account",
          "type": "address"
        }
      ],
      "name": "includeInRewards",
      "outputs": [],
      "stateMutability": "nonpayable",
      "type": "function"
    },
    {
      "inputs": [
        {
          "internalType": "address",
          "name": "spender",
          "type": "address"
        },
        {
          "internalType": "uint256",
          "name": "addedValue",
          "type": "uint256"
        }
      ],
      "name": "increaseAllowance",
      "outputs": [
        {
          "internalType": "bool",
          "name": "",
          "type": "bool"
        }
      ],
      "stateMutability": "nonpayable",
      "type": "function"
    },
    {
      "inputs": [
        {
          "internalType": "address",
          "name": "",
          "type": "address"
        }
      ],
      "name": "lastTotalDividends",
      "outputs": [
        {
          "internalType": "uint256",
          "name": "",
          "type": "uint256"
        }
      ],
      "stateMutability": "view",
      "type": "function"
    },
    {
      "inputs": [
        {
          "internalType": "address",
          "name": "to",
          "type": "address"
        },
        {
          "internalType": "uint256",
          "name": "value",
          "type": "uint256"
        }
      ],
      "name": "mint",
      "outputs": [],
      "stateMutability": "nonpayable",
      "type": "function"
    },
    {
      "inputs": [],
      "name": "name",
      "outputs": [
        {
          "internalType": "string",
          "name": "",
          "type": "string"
        }
      ],
      "stateMutability": "view",
      "type": "function"
    },
    {
      "inputs": [],
      "name": "owner",
      "outputs": [
        {
          "internalType": "address",
          "name": "",
          "type": "address"
        }
      ],
      "stateMutability": "view",
      "type": "function"
    },
    {
      "inputs": [],
      "name": "renounceOwnership",
      "outputs": [],
      "stateMutability": "nonpayable",
      "type": "function"
    },
    {
      "inputs": [
        {
          "internalType": "address",
          "name": "",
          "type": "address"
        }
      ],
      "name": "rewardsExcluded",
      "outputs": [
        {
          "internalType": "bool",
          "name": "",
          "type": "bool"
        }
      ],
      "stateMutability": "view",
      "type": "function"
    },
    {
      "inputs": [],
      "name": "rewardsIncludedSupply",
      "outputs": [
        {
          "internalType": "uint256",
          "name": "",
          "type": "uint256"
        }
      ],
      "stateMutability": "view",
      "type": "function"
    },
    {
      "inputs": [],
      "name": "symbol",
      "outputs": [
        {
          "internalType": "string",
          "name": "",
          "type": "string"
        }
      ],
      "stateMutability": "view",
      "type": "function"
    },
    {
      "inputs": [],
      "name": "totalSupply",
      "outputs": [
        {
          "internalType": "uint256",
          "name": "",
          "type": "uint256"
        }
      ],
      "stateMutability": "view",
      "type": "function"
    },
    {
      "inputs": [
        {
          "internalType": "address",
          "name": "to",
          "type": "address"
        },
        {
          "internalType": "uint256",
          "name": "amount",
          "type": "uint256"
        }
      ],
      "name": "transfer",
      "outputs": [
        {
          "internalType": "bool",
          "name": "",
          "type": "bool"
        }
      ],
      "stateMutability": "nonpayable",
      "type": "function"
    },
    {
      "inputs": [
        {
          "internalType": "address",
          "name": "from",
          "type": "address"
        },
        {
          "internalType": "address",
          "name": "to",
          "type": "address"
        },
        {
          "internalType": "uint256",
          "name": "amount",
          "type": "uint256"
        }
      ],
      "name": "transferFrom",
      "outputs": [
        {
          "internalType": "bool",
          "name": "",
          "type": "bool"
        }
      ],
      "stateMutability": "nonpayable",
      "type": "function"
    },
    {
      "inputs": [
        {
          "internalType": "address",
          "name": "newOwner",
          "type": "address"
        }
      ],
      "name": "transferOwnership",
      "outputs": [],
      "stateMutability": "nonpayable",
      "type": "function"
    }
  ],
  "bytecode": "0x60806040523480156200001157600080fd5b506040518060400160405280600781526020017f58506f636b6574000000000000000000000000000000000000000000000000008152506040518060400160405280600681526020017f504f434b45540000000000000000000000000000000000000000000000000000815250816003908051906020019062000096929190620003be565b508060049080519060200190620000af929190620003be565b505050620000d2620000c66200016360201b60201c565b6200016b60201b60201c565b620000ef336a295be96e640669720000006200023160201b60201c565b620000ff620003aa60201b60201c565b6008819055506001600660003073ffffffffffffffffffffffffffffffffffffffff1673ffffffffffffffffffffffffffffffffffffffff16815260200190815260200160002060006101000a81548160ff0219169083151502179055506200061a565b600033905090565b6000600560009054906101000a900473ffffffffffffffffffffffffffffffffffffffff16905081600560006101000a81548173ffffffffffffffffffffffffffffffffffffffff021916908373ffffffffffffffffffffffffffffffffffffffff1602179055508173ffffffffffffffffffffffffffffffffffffffff168173ffffffffffffffffffffffffffffffffffffffff167f8be0079c531659141344cd1fd0a4f28419497f9722a3daafe3b4186f6b6457e060405160405180910390a35050565b600073ffffffffffffffffffffffffffffffffffffffff168273ffffffffffffffffffffffffffffffffffffffff161415620002a4576040517f08c379a00000000000000000000000000000000000000000000000000000000081526004016200029b90620004a6565b60405180910390fd5b620002b860008383620003b460201b60201c565b8060026000828254620002cc9190620004f6565b92505081905550806000808473ffffffffffffffffffffffffffffffffffffffff1673ffffffffffffffffffffffffffffffffffffffff1681526020019081526020016000206000828254620003239190620004f6565b925050819055508173ffffffffffffffffffffffffffffffffffffffff16600073ffffffffffffffffffffffffffffffffffffffff167fddf252ad1be2c89b69c2b068fc378daa952ba7f163c4a11628f55a4df523b3ef836040516200038a9190620004c8565b60405180910390a3620003a660008383620003b960201b60201c565b5050565b6000600254905090565b505050565b505050565b828054620003cc906200055d565b90600052602060002090601f016020900481019282620003f057600085556200043c565b82601f106200040b57805160ff19168380011785556200043c565b828001600101855582156200043c579182015b828111156200043b5782518255916020019190600101906200041e565b5b5090506200044b91906200044f565b5090565b5b808211156200046a57600081600090555060010162000450565b5090565b60006200047d601f83620004e5565b91506200048a82620005f1565b602082019050919050565b620004a08162000553565b82525050565b60006020820190508181036000830152620004c1816200046e565b9050919050565b6000602082019050620004df600083018462000495565b92915050565b600082825260208201905092915050565b6000620005038262000553565b9150620005108362000553565b9250827fffffffffffffffffffffffffffffffffffffffffffffffffffffffffffffffff0382111562000548576200054762000593565b5b828201905092915050565b6000819050919050565b600060028204905060018216806200057657607f821691505b602082108114156200058d576200058c620005c2565b5b50919050565b7f4e487b7100000000000000000000000000000000000000000000000000000000600052601160045260246000fd5b7f4e487b7100000000000000000000000000000000000000000000000000000000600052602260045260246000fd5b7f45524332303a206d696e7420746f20746865207a65726f206164647265737300600082015250565b61270d806200062a6000396000f3fe608060405234801561001057600080fd5b50600436106101425760003560e01c80638bf2581c116100b8578063a9059cbb1161007c578063a9059cbb1461038b578063b609995e146103bb578063beceed39146103d7578063dd62ed3e14610407578063e0b9103d14610437578063f2fde38b1461045557610142565b80638bf2581c146102d35780638da5cb5b1461030357806395d89b41146103215780639dc29fac1461033f578063a457c2d71461035b57610142565b806323b872dd1161010a57806323b872dd146101ff578063313ce5671461022f578063395093511461024d57806340c10f191461027d57806370a0823114610299578063715018a6146102c957610142565b806306fdde0314610147578063095ea7b314610165578063111e03761461019557806318160ddd146101b157806318a01684146101cf575b600080fd5b61014f610471565b60405161015c9190611e28565b60405180910390f35b61017f600480360381019061017a9190611b2e565b610503565b60405161018c9190611e0d565b60405180910390f35b6101af60048036038101906101aa9190611a7a565b610526565b005b6101b9610718565b6040516101c6919061200a565b60405180910390f35b6101e960048036038101906101e49190611a7a565b610722565b6040516101f6919061200a565b60405180910390f35b61021960048036038101906102149190611adf565b61073a565b6040516102269190611e0d565b60405180910390f35b610237610769565b6040516102449190612025565b60405180910390f35b61026760048036038101906102629190611b2e565b610772565b6040516102749190611e0d565b60405180910390f35b61029760048036038101906102929190611b2e565b6107a9565b005b6102b360048036038101906102ae9190611a7a565b6107b7565b6040516102c0919061200a565b60405180910390f35b6102d16107dc565b005b6102ed60048036038101906102e89190611a7a565b610864565b6040516102fa9190611e0d565b60405180910390f35b61030b610884565b6040516103189190611df2565b60405180910390f35b6103296108ae565b6040516103369190611e28565b60405180910390f35b61035960048036038101906103549190611b2e565b610940565b005b61037560048036038101906103709190611b2e565b61094e565b6040516103829190611e0d565b60405180910390f35b6103a560048036038101906103a09190611b2e565b6109c5565b6040516103b29190611e0d565b60405180910390f35b6103d560048036038101906103d09190611a7a565b6109e8565b005b6103f160048036038101906103ec9190611b6a565b610bab565b6040516103fe9190611e0d565b60405180910390f35b610421600480360381019061041c9190611aa3565b610bbe565b60405161042e919061200a565b60405180910390f35b61043f610c45565b60405161044c919061200a565b60405180910390f35b61046f600480360381019061046a9190611a7a565b610c4b565b005b606060038054610480906121f9565b80601f01602080910402602001604051908101604052809291908181526020018280546104ac906121f9565b80156104f95780601f106104ce576101008083540402835291602001916104f9565b820191906000526020600020905b8154815290600101906020018083116104dc57829003601f168201915b5050505050905090565b60008061050e610d43565b905061051b818585610d4b565b600191505092915050565b80600660008273ffffffffffffffffffffffffffffffffffffffff1673ffffffffffffffffffffffffffffffffffffffff16815260200190815260200160002060009054906101000a900460ff16156105b4576040517f08c379a00000000000000000000000000000000000000000000000000000000081526004016105ab90611faa565b60405180910390fd5b8160006105c082610f16565b9050600954600760008473ffffffffffffffffffffffffffffffffffffffff1673ffffffffffffffffffffffffffffffffffffffff16815260200190815260200160002081905550600081111561061d5761061c308383611037565b5b610625610d43565b73ffffffffffffffffffffffffffffffffffffffff16610643610884565b73ffffffffffffffffffffffffffffffffffffffff1614610699576040517f08c379a000000000000000000000000000000000000000000000000000000000815260040161069090611f2a565b60405180910390fd5b6001600660008673ffffffffffffffffffffffffffffffffffffffff1673ffffffffffffffffffffffffffffffffffffffff16815260200190815260200160002060006101000a81548160ff0219169083151502179055506106fa846112b8565b6008600082825461070b919061213d565b9250508190555050505050565b6000600254905090565b60076020528060005260406000206000915090505481565b600080610745610d43565b9050610752858285611300565b61075d85858561138c565b60019150509392505050565b60006012905090565b60008061077d610d43565b905061079e81858561078f8589610bbe565b610799919061205c565b610d4b565b600191505092915050565b6107b38282611649565b5050565b60006107c282610f16565b6107cb836112b8565b6107d5919061205c565b9050919050565b6107e4610d43565b73ffffffffffffffffffffffffffffffffffffffff16610802610884565b73ffffffffffffffffffffffffffffffffffffffff1614610858576040517f08c379a000000000000000000000000000000000000000000000000000000000815260040161084f90611f2a565b60405180910390fd5b61086260006117a9565b565b60066020528060005260406000206000915054906101000a900460ff1681565b6000600560009054906101000a900473ffffffffffffffffffffffffffffffffffffffff16905090565b6060600480546108bd906121f9565b80601f01602080910402602001604051908101604052809291908181526020018280546108e9906121f9565b80156109365780601f1061090b57610100808354040283529160200191610936565b820191906000526020600020905b81548152906001019060200180831161091957829003601f168201915b5050505050905090565b61094a828261186f565b5050565b600080610959610d43565b905060006109678286610bbe565b9050838110156109ac576040517f08c379a00000000000000000000000000000000000000000000000000000000081526004016109a390611fca565b60405180910390fd5b6109b98286868403610d4b565b60019250505092915050565b6000806109d0610d43565b90506109dd81858561138c565b600191505092915050565b80600660008273ffffffffffffffffffffffffffffffffffffffff1673ffffffffffffffffffffffffffffffffffffffff16815260200190815260200160002060009054906101000a900460ff16610a75576040517f08c379a0000000000000000000000000000000000000000000000000000000008152600401610a6c90611e6a565b60405180910390fd5b610a7d610d43565b73ffffffffffffffffffffffffffffffffffffffff16610a9b610884565b73ffffffffffffffffffffffffffffffffffffffff1614610af1576040517f08c379a0000000000000000000000000000000000000000000000000000000008152600401610ae890611f2a565b60405180910390fd5b600660008373ffffffffffffffffffffffffffffffffffffffff1673ffffffffffffffffffffffffffffffffffffffff16815260200190815260200160002060006101000a81549060ff0219169055600954600760008473ffffffffffffffffffffffffffffffffffffffff1673ffffffffffffffffffffffffffffffffffffffff16815260200190815260200160002081905550610b8f826112b8565b60086000828254610ba0919061205c565b925050819055505050565b6000610bb730836109c5565b9050919050565b6000600160008473ffffffffffffffffffffffffffffffffffffffff1673ffffffffffffffffffffffffffffffffffffffff16815260200190815260200160002060008373ffffffffffffffffffffffffffffffffffffffff1673ffffffffffffffffffffffffffffffffffffffff16815260200190815260200160002054905092915050565b60085481565b610c53610d43565b73ffffffffffffffffffffffffffffffffffffffff16610c71610884565b73ffffffffffffffffffffffffffffffffffffffff1614610cc7576040517f08c379a0000000000000000000000000000000000000000000000000000000008152600401610cbe90611f2a565b60405180910390fd5b600073ffffffffffffffffffffffffffffffffffffffff168173ffffffffffffffffffffffffffffffffffffffff161415610d37576040517f08c379a0000000000000000000000000000000000000000000000000000000008152600401610d2e90611eaa565b60405180910390fd5b610d40816117a9565b50565b600033905090565b600073ffffffffffffffffffffffffffffffffffffffff168373ffffffffffffffffffffffffffffffffffffffff161415610dbb576040517f08c379a0000000000000000000000000000000000000000000000000000000008152600401610db290611f8a565b60405180910390fd5b600073ffffffffffffffffffffffffffffffffffffffff168273ffffffffffffffffffffffffffffffffffffffff161415610e2b576040517f08c379a0000000000000000000000000000000000000000000000000000000008152600401610e2290611eca565b60405180910390fd5b80600160008573ffffffffffffffffffffffffffffffffffffffff1673ffffffffffffffffffffffffffffffffffffffff16815260200190815260200160002060008473ffffffffffffffffffffffffffffffffffffffff1673ffffffffffffffffffffffffffffffffffffffff168152602001908152602001600020819055508173ffffffffffffffffffffffffffffffffffffffff168373ffffffffffffffffffffffffffffffffffffffff167f8c5be1e5ebec7d5bd14f71427d1e84f3dd0314c0f7b2291e5b200ac8c7c3b92583604051610f09919061200a565b60405180910390a3505050565b60003073ffffffffffffffffffffffffffffffffffffffff168273ffffffffffffffffffffffffffffffffffffffff161480610f9b5750600660008373ffffffffffffffffffffffffffffffffffffffff1673ffffffffffffffffffffffffffffffffffffffff16815260200190815260200160002060009054906101000a900460ff165b15610fa95760009050611032565b6000610fb4836112b8565b90506000811415610fc9576000915050611032565b600854600760008573ffffffffffffffffffffffffffffffffffffffff1673ffffffffffffffffffffffffffffffffffffffff16815260200190815260200160002054600954611019919061213d565b8261102491906120e3565b61102e91906120b2565b9150505b919050565b600073ffffffffffffffffffffffffffffffffffffffff168373ffffffffffffffffffffffffffffffffffffffff1614156110a7576040517f08c379a000000000000000000000000000000000000000000000000000000000815260040161109e90611f6a565b60405180910390fd5b600073ffffffffffffffffffffffffffffffffffffffff168273ffffffffffffffffffffffffffffffffffffffff161415611117576040517f08c379a000000000000000000000000000000000000000000000000000000000815260040161110e90611e4a565b60405180910390fd5b611122838383611a46565b60008060008573ffffffffffffffffffffffffffffffffffffffff1673ffffffffffffffffffffffffffffffffffffffff168152602001908152602001600020549050818110156111a8576040517f08c379a000000000000000000000000000000000000000000000000000000000815260040161119f90611f0a565b60405180910390fd5b8181036000808673ffffffffffffffffffffffffffffffffffffffff1673ffffffffffffffffffffffffffffffffffffffff16815260200190815260200160002081905550816000808573ffffffffffffffffffffffffffffffffffffffff1673ffffffffffffffffffffffffffffffffffffffff168152602001908152602001600020600082825461123b919061205c565b925050819055508273ffffffffffffffffffffffffffffffffffffffff168473ffffffffffffffffffffffffffffffffffffffff167fddf252ad1be2c89b69c2b068fc378daa952ba7f163c4a11628f55a4df523b3ef8460405161129f919061200a565b60405180910390a36112b2848484611a4b565b50505050565b60008060008373ffffffffffffffffffffffffffffffffffffffff1673ffffffffffffffffffffffffffffffffffffffff168152602001908152602001600020549050919050565b600061130c8484610bbe565b90507fffffffffffffffffffffffffffffffffffffffffffffffffffffffffffffffff81146113865781811015611378576040517f08c379a000000000000000000000000000000000000000000000000000000000815260040161136f90611eea565b60405180910390fd5b6113858484848403610d4b565b5b50505050565b82600061139882610f16565b9050600954600760008473ffffffffffffffffffffffffffffffffffffffff1673ffffffffffffffffffffffffffffffffffffffff1681526020019081526020016000208190555060008111156113f5576113f4308383611037565b5b83600061140182610f16565b9050600954600760008473ffffffffffffffffffffffffffffffffffffffff1673ffffffffffffffffffffffffffffffffffffffff16815260200190815260200160002081905550600081111561145e5761145d308383611037565b5b3073ffffffffffffffffffffffffffffffffffffffff168673ffffffffffffffffffffffffffffffffffffffff1614156114ac5784600960008282546114a4919061205c565b925050819055505b6114b7878787611037565b600660008873ffffffffffffffffffffffffffffffffffffffff1673ffffffffffffffffffffffffffffffffffffffff16815260200190815260200160002060009054906101000a900460ff16801561155a5750600660008773ffffffffffffffffffffffffffffffffffffffff1673ffffffffffffffffffffffffffffffffffffffff16815260200190815260200160002060009054906101000a900460ff16155b1561157d578460086000828254611571919061205c565b92505081905550611640565b600660008873ffffffffffffffffffffffffffffffffffffffff1673ffffffffffffffffffffffffffffffffffffffff16815260200190815260200160002060009054906101000a900460ff161580156116205750600660008773ffffffffffffffffffffffffffffffffffffffff1673ffffffffffffffffffffffffffffffffffffffff16815260200190815260200160002060009054906101000a900460ff165b1561163f578460086000828254611637919061213d565b925050819055505b5b50505050505050565b600073ffffffffffffffffffffffffffffffffffffffff168273ffffffffffffffffffffffffffffffffffffffff1614156116b9576040517f08c379a00000000000000000000000000000000000000000000000000000000081526004016116b090611fea565b60405180910390fd5b6116c560008383611a46565b80600260008282546116d7919061205c565b92505081905550806000808473ffffffffffffffffffffffffffffffffffffffff1673ffffffffffffffffffffffffffffffffffffffff168152602001908152602001600020600082825461172c919061205c565b925050819055508173ffffffffffffffffffffffffffffffffffffffff16600073ffffffffffffffffffffffffffffffffffffffff167fddf252ad1be2c89b69c2b068fc378daa952ba7f163c4a11628f55a4df523b3ef83604051611791919061200a565b60405180910390a36117a560008383611a4b565b5050565b6000600560009054906101000a900473ffffffffffffffffffffffffffffffffffffffff16905081600560006101000a81548173ffffffffffffffffffffffffffffffffffffffff021916908373ffffffffffffffffffffffffffffffffffffffff1602179055508173ffffffffffffffffffffffffffffffffffffffff168173ffffffffffffffffffffffffffffffffffffffff167f8be0079c531659141344cd1fd0a4f28419497f9722a3daafe3b4186f6b6457e060405160405180910390a35050565b600073ffffffffffffffffffffffffffffffffffffffff168273ffffffffffffffffffffffffffffffffffffffff1614156118df576040517f08c379a00000000000000000000000000000000000000000000000000000000081526004016118d690611f4a565b60405180910390fd5b6118eb82600083611a46565b60008060008473ffffffffffffffffffffffffffffffffffffffff1673ffffffffffffffffffffffffffffffffffffffff16815260200190815260200160002054905081811015611971576040517f08c379a000000000000000000000000000000000000000000000000000000000815260040161196890611e8a565b60405180910390fd5b8181036000808573ffffffffffffffffffffffffffffffffffffffff1673ffffffffffffffffffffffffffffffffffffffff1681526020019081526020016000208190555081600260008282546119c8919061213d565b92505081905550600073ffffffffffffffffffffffffffffffffffffffff168373ffffffffffffffffffffffffffffffffffffffff167fddf252ad1be2c89b69c2b068fc378daa952ba7f163c4a11628f55a4df523b3ef84604051611a2d919061200a565b60405180910390a3611a4183600084611a4b565b505050565b505050565b505050565b600081359050611a5f816126a9565b92915050565b600081359050611a74816126c0565b92915050565b600060208284031215611a8c57600080fd5b6000611a9a84828501611a50565b91505092915050565b60008060408385031215611ab657600080fd5b6000611ac485828601611a50565b9250506020611ad585828601611a50565b9150509250929050565b600080600060608486031215611af457600080fd5b6000611b0286828701611a50565b9350506020611b1386828701611a50565b9250506040611b2486828701611a65565b9150509250925092565b60008060408385031215611b4157600080fd5b6000611b4f85828601611a50565b9250506020611b6085828601611a65565b9150509250929050565b600060208284031215611b7c57600080fd5b6000611b8a84828501611a65565b91505092915050565b611b9c81612171565b82525050565b611bab81612183565b82525050565b6000611bbc82612040565b611bc6818561204b565b9350611bd68185602086016121c6565b611bdf816122b8565b840191505092915050565b6000611bf760238361204b565b9150611c02826122c9565b604082019050919050565b6000611c1a60218361204b565b9150611c2582612318565b604082019050919050565b6000611c3d60228361204b565b9150611c4882612367565b604082019050919050565b6000611c6060268361204b565b9150611c6b826123b6565b604082019050919050565b6000611c8360228361204b565b9150611c8e82612405565b604082019050919050565b6000611ca6601d8361204b565b9150611cb182612454565b602082019050919050565b6000611cc960268361204b565b9150611cd48261247d565b604082019050919050565b6000611cec60208361204b565b9150611cf7826124cc565b602082019050919050565b6000611d0f60218361204b565b9150611d1a826124f5565b604082019050919050565b6000611d3260258361204b565b9150611d3d82612544565b604082019050919050565b6000611d5560248361204b565b9150611d6082612593565b604082019050919050565b6000611d7860258361204b565b9150611d83826125e2565b604082019050919050565b6000611d9b60258361204b565b9150611da682612631565b604082019050919050565b6000611dbe601f8361204b565b9150611dc982612680565b602082019050919050565b611ddd816121af565b82525050565b611dec816121b9565b82525050565b6000602082019050611e076000830184611b93565b92915050565b6000602082019050611e226000830184611ba2565b92915050565b60006020820190508181036000830152611e428184611bb1565b905092915050565b60006020820190508181036000830152611e6381611bea565b9050919050565b60006020820190508181036000830152611e8381611c0d565b9050919050565b60006020820190508181036000830152611ea381611c30565b9050919050565b60006020820190508181036000830152611ec381611c53565b9050919050565b60006020820190508181036000830152611ee381611c76565b9050919050565b60006020820190508181036000830152611f0381611c99565b9050919050565b60006020820190508181036000830152611f2381611cbc565b9050919050565b60006020820190508181036000830152611f4381611cdf565b9050919050565b60006020820190508181036000830152611f6381611d02565b9050919050565b60006020820190508181036000830152611f8381611d25565b9050919050565b60006020820190508181036000830152611fa381611d48565b9050919050565b60006020820190508181036000830152611fc381611d6b565b9050919050565b60006020820190508181036000830152611fe381611d8e565b9050919050565b6000602082019050818103600083015261200381611db1565b9050919050565b600060208201905061201f6000830184611dd4565b92915050565b600060208201905061203a6000830184611de3565b92915050565b600081519050919050565b600082825260208201905092915050565b6000612067826121af565b9150612072836121af565b9250827fffffffffffffffffffffffffffffffffffffffffffffffffffffffffffffffff038211156120a7576120a661222b565b5b828201905092915050565b60006120bd826121af565b91506120c8836121af565b9250826120d8576120d761225a565b5b828204905092915050565b60006120ee826121af565b91506120f9836121af565b9250817fffffffffffffffffffffffffffffffffffffffffffffffffffffffffffffffff04831182151516156121325761213161222b565b5b828202905092915050565b6000612148826121af565b9150612153836121af565b9250828210156121665761216561222b565b5b828203905092915050565b600061217c8261218f565b9050919050565b60008115159050919050565b600073ffffffffffffffffffffffffffffffffffffffff82169050919050565b6000819050919050565b600060ff82169050919050565b60005b838110156121e45780820151818401526020810190506121c9565b838111156121f3576000848401525b50505050565b6000600282049050600182168061221157607f821691505b6020821081141561222557612224612289565b5b50919050565b7f4e487b7100000000000000000000000000000000000000000000000000000000600052601160045260246000fd5b7f4e487b7100000000000000000000000000000000000000000000000000000000600052601260045260246000fd5b7f4e487b7100000000000000000000000000000000000000000000000000000000600052602260045260246000fd5b6000601f19601f8301169050919050565b7f45524332303a207472616e7366657220746f20746865207a65726f206164647260008201527f6573730000000000000000000000000000000000000000000000000000000000602082015250565b7f506f636b65743a204e6f74206578636c756465642066726f6d2072657761726460008201527f7300000000000000000000000000000000000000000000000000000000000000602082015250565b7f45524332303a206275726e20616d6f756e7420657863656564732062616c616e60008201527f6365000000000000000000000000000000000000000000000000000000000000602082015250565b7f4f776e61626c653a206e6577206f776e657220697320746865207a65726f206160008201527f6464726573730000000000000000000000000000000000000000000000000000602082015250565b7f45524332303a20617070726f766520746f20746865207a65726f20616464726560008201527f7373000000000000000000000000000000000000000000000000000000000000602082015250565b7f45524332303a20696e73756666696369656e7420616c6c6f77616e6365000000600082015250565b7f45524332303a207472616e7366657220616d6f756e742065786365656473206260008201527f616c616e63650000000000000000000000000000000000000000000000000000602082015250565b7f4f776e61626c653a2063616c6c6572206973206e6f7420746865206f776e6572600082015250565b7f45524332303a206275726e2066726f6d20746865207a65726f2061646472657360008201527f7300000000000000000000000000000000000000000000000000000000000000602082015250565b7f45524332303a207472616e736665722066726f6d20746865207a65726f20616460008201527f6472657373000000000000000000000000000000000000000000000000000000602082015250565b7f45524332303a20617070726f76652066726f6d20746865207a65726f2061646460008201527f7265737300000000000000000000000000000000000000000000000000000000602082015250565b7f506f636b65743a20416c7265616479206578636c756465642066726f6d20726560008201527f7761726473000000000000000000000000000000000000000000000000000000602082015250565b7f45524332303a2064656372656173656420616c6c6f77616e63652062656c6f7760008201527f207a65726f000000000000000000000000000000000000000000000000000000602082015250565b7f45524332303a206d696e7420746f20746865207a65726f206164647265737300600082015250565b6126b281612171565b81146126bd57600080fd5b50565b6126c9816121af565b81146126d457600080fd5b5056fea26469706673582212203afcf188a4ceac23ad9dd61f568648acbc679f7e30e3dc2b4fbd1cb8c3f5542e64736f6c63430008040033",
  "linkReferences": {},
  "deployedLinkReferences": {}
}