{
  "_format": "hh-sol-artifact-1",
  "contractName": "PocketSwapPair",
  "sourceName": "contracts/pocketswap/PocketSwapPair.sol",
  "abi": [
    {
      "inputs": [],
      "stateMutability": "nonpayable",
      "type": "constructor"
    },
    {
      "anonymous": false,
      "inputs": [
        {
          "indexed": true,
          "internalType": "address",
          "name": "owner",
          "type": "address"
        },
        {
          "indexed": true,
          "internalType": "address",
          "name": "spender",
          "type": "address"
        },
        {
          "indexed": false,
          "internalType": "uint256",
          "name": "value",
          "type": "uint256"
        }
      ],
      "name": "Approval",
      "type": "event"
    },
    {
      "anonymous": false,
      "inputs": [
        {
          "indexed": true,
          "internalType": "address",
          "name": "sender",
          "type": "address"
        },
        {
          "indexed": false,
          "internalType": "uint256",
          "name": "amount0",
          "type": "uint256"
        },
        {
          "indexed": false,
          "internalType": "uint256",
          "name": "amount1",
          "type": "uint256"
        },
        {
          "indexed": true,
          "internalType": "address",
          "name": "to",
          "type": "address"
        }
      ],
      "name": "Burn",
      "type": "event"
    },
    {
      "anonymous": false,
      "inputs": [
        {
          "indexed": true,
          "internalType": "address",
          "name": "sender",
          "type": "address"
        },
        {
          "indexed": false,
          "internalType": "uint256",
          "name": "amount0",
          "type": "uint256"
        },
        {
          "indexed": false,
          "internalType": "uint256",
          "name": "amount1",
          "type": "uint256"
        }
      ],
      "name": "Mint",
      "type": "event"
    },
    {
      "anonymous": false,
      "inputs": [
        {
          "indexed": true,
          "internalType": "address",
          "name": "sender",
          "type": "address"
        },
        {
          "indexed": false,
          "internalType": "uint256",
          "name": "amount0In",
          "type": "uint256"
        },
        {
          "indexed": false,
          "internalType": "uint256",
          "name": "amount1In",
          "type": "uint256"
        },
        {
          "indexed": false,
          "internalType": "uint256",
          "name": "amount0Out",
          "type": "uint256"
        },
        {
          "indexed": false,
          "internalType": "uint256",
          "name": "amount1Out",
          "type": "uint256"
        },
        {
          "indexed": true,
          "internalType": "address",
          "name": "to",
          "type": "address"
        }
      ],
      "name": "Swap",
      "type": "event"
    },
    {
      "anonymous": false,
      "inputs": [
        {
          "indexed": false,
          "internalType": "uint112",
          "name": "reserve0",
          "type": "uint112"
        },
        {
          "indexed": false,
          "internalType": "uint112",
          "name": "reserve1",
          "type": "uint112"
        }
      ],
      "name": "Sync",
      "type": "event"
    },
    {
      "anonymous": false,
      "inputs": [
        {
          "indexed": true,
          "internalType": "address",
          "name": "from",
          "type": "address"
        },
        {
          "indexed": true,
          "internalType": "address",
          "name": "to",
          "type": "address"
        },
        {
          "indexed": false,
          "internalType": "uint256",
          "name": "value",
          "type": "uint256"
        }
      ],
      "name": "Transfer",
      "type": "event"
    },
    {
      "inputs": [],
      "name": "DOMAIN_SEPARATOR",
      "outputs": [
        {
          "internalType": "bytes32",
          "name": "",
          "type": "bytes32"
        }
      ],
      "stateMutability": "view",
      "type": "function"
    },
    {
      "inputs": [],
      "name": "MINIMUM_LIQUIDITY",
      "outputs": [
        {
          "internalType": "uint256",
          "name": "",
          "type": "uint256"
        }
      ],
      "stateMutability": "view",
      "type": "function"
    },
    {
      "inputs": [],
      "name": "PERMIT_TYPEHASH",
      "outputs": [
        {
          "internalType": "bytes32",
          "name": "",
          "type": "bytes32"
        }
      ],
      "stateMutability": "view",
      "type": "function"
    },
    {
      "inputs": [
        {
          "internalType": "address",
          "name": "",
          "type": "address"
        },
        {
          "internalType": "address",
          "name": "",
          "type": "address"
        }
      ],
      "name": "allowance",
      "outputs": [
        {
          "internalType": "uint256",
          "name": "",
          "type": "uint256"
        }
      ],
      "stateMutability": "view",
      "type": "function"
    },
    {
      "inputs": [
        {
          "internalType": "address",
          "name": "spender",
          "type": "address"
        },
        {
          "internalType": "uint256",
          "name": "value",
          "type": "uint256"
        }
      ],
      "name": "approve",
      "outputs": [
        {
          "internalType": "bool",
          "name": "",
          "type": "bool"
        }
      ],
      "stateMutability": "nonpayable",
      "type": "function"
    },
    {
      "inputs": [
        {
          "internalType": "address",
          "name": "",
          "type": "address"
        }
      ],
      "name": "balanceOf",
      "outputs": [
        {
          "internalType": "uint256",
          "name": "",
          "type": "uint256"
        }
      ],
      "stateMutability": "view",
      "type": "function"
    },
    {
      "inputs": [
        {
          "internalType": "address",
          "name": "to",
          "type": "address"
        }
      ],
      "name": "burn",
      "outputs": [
        {
          "internalType": "uint256",
          "name": "amount0",
          "type": "uint256"
        },
        {
          "internalType": "uint256",
          "name": "amount1",
          "type": "uint256"
        }
      ],
      "stateMutability": "nonpayable",
      "type": "function"
    },
    {
      "inputs": [],
      "name": "decimals",
      "outputs": [
        {
          "internalType": "uint8",
          "name": "",
          "type": "uint8"
        }
      ],
      "stateMutability": "view",
      "type": "function"
    },
    {
      "inputs": [],
      "name": "factory",
      "outputs": [
        {
          "internalType": "address",
          "name": "",
          "type": "address"
        }
      ],
      "stateMutability": "view",
      "type": "function"
    },
    {
      "inputs": [],
      "name": "getReserves",
      "outputs": [
        {
          "internalType": "uint112",
          "name": "_reserve0",
          "type": "uint112"
        },
        {
          "internalType": "uint112",
          "name": "_reserve1",
          "type": "uint112"
        },
        {
          "internalType": "uint32",
          "name": "_blockTimestampLast",
          "type": "uint32"
        }
      ],
      "stateMutability": "view",
      "type": "function"
    },
    {
      "inputs": [
        {
          "internalType": "address",
          "name": "_token0",
          "type": "address"
        },
        {
          "internalType": "address",
          "name": "_token1",
          "type": "address"
        }
      ],
      "name": "initialize",
      "outputs": [],
      "stateMutability": "nonpayable",
      "type": "function"
    },
    {
      "inputs": [
        {
          "internalType": "address",
          "name": "to",
          "type": "address"
        }
      ],
      "name": "mint",
      "outputs": [
        {
          "internalType": "uint256",
          "name": "liquidity",
          "type": "uint256"
        }
      ],
      "stateMutability": "nonpayable",
      "type": "function"
    },
    {
      "inputs": [],
      "name": "name",
      "outputs": [
        {
          "internalType": "string",
          "name": "",
          "type": "string"
        }
      ],
      "stateMutability": "view",
      "type": "function"
    },
    {
      "inputs": [
        {
          "internalType": "address",
          "name": "",
          "type": "address"
        }
      ],
      "name": "nonces",
      "outputs": [
        {
          "internalType": "uint256",
          "name": "",
          "type": "uint256"
        }
      ],
      "stateMutability": "view",
      "type": "function"
    },
    {
      "inputs": [
        {
          "internalType": "address",
          "name": "owner",
          "type": "address"
        },
        {
          "internalType": "address",
          "name": "spender",
          "type": "address"
        },
        {
          "internalType": "uint256",
          "name": "value",
          "type": "uint256"
        },
        {
          "internalType": "uint256",
          "name": "deadline",
          "type": "uint256"
        },
        {
          "internalType": "uint8",
          "name": "v",
          "type": "uint8"
        },
        {
          "internalType": "bytes32",
          "name": "r",
          "type": "bytes32"
        },
        {
          "internalType": "bytes32",
          "name": "s",
          "type": "bytes32"
        }
      ],
      "name": "permit",
      "outputs": [],
      "stateMutability": "nonpayable",
      "type": "function"
    },
    {
      "inputs": [],
      "name": "price0CumulativeLast",
      "outputs": [
        {
          "internalType": "uint256",
          "name": "",
          "type": "uint256"
        }
      ],
      "stateMutability": "view",
      "type": "function"
    },
    {
      "inputs": [],
      "name": "price1CumulativeLast",
      "outputs": [
        {
          "internalType": "uint256",
          "name": "",
          "type": "uint256"
        }
      ],
      "stateMutability": "view",
      "type": "function"
    },
    {
      "inputs": [
        {
          "internalType": "address",
          "name": "to",
          "type": "address"
        }
      ],
      "name": "skim",
      "outputs": [],
      "stateMutability": "nonpayable",
      "type": "function"
    },
    {
      "inputs": [
        {
          "internalType": "uint256",
          "name": "amount0Out",
          "type": "uint256"
        },
        {
          "internalType": "uint256",
          "name": "amount1Out",
          "type": "uint256"
        },
        {
          "internalType": "address",
          "name": "to",
          "type": "address"
        },
        {
          "internalType": "bytes",
          "name": "data",
          "type": "bytes"
        }
      ],
      "name": "swap",
      "outputs": [],
      "stateMutability": "nonpayable",
      "type": "function"
    },
    {
      "inputs": [],
      "name": "symbol",
      "outputs": [
        {
          "internalType": "string",
          "name": "",
          "type": "string"
        }
      ],
      "stateMutability": "view",
      "type": "function"
    },
    {
      "inputs": [],
      "name": "sync",
      "outputs": [],
      "stateMutability": "nonpayable",
      "type": "function"
    },
    {
      "inputs": [],
      "name": "token0",
      "outputs": [
        {
          "internalType": "address",
          "name": "",
          "type": "address"
        }
      ],
      "stateMutability": "view",
      "type": "function"
    },
    {
      "inputs": [],
      "name": "token1",
      "outputs": [
        {
          "internalType": "address",
          "name": "",
          "type": "address"
        }
      ],
      "stateMutability": "view",
      "type": "function"
    },
    {
      "inputs": [],
      "name": "totalSupply",
      "outputs": [
        {
          "internalType": "uint256",
          "name": "",
          "type": "uint256"
        }
      ],
      "stateMutability": "view",
      "type": "function"
    },
    {
      "inputs": [
        {
          "internalType": "address",
          "name": "to",
          "type": "address"
        },
        {
          "internalType": "uint256",
          "name": "value",
          "type": "uint256"
        }
      ],
      "name": "transfer",
      "outputs": [
        {
          "internalType": "bool",
          "name": "",
          "type": "bool"
        }
      ],
      "stateMutability": "nonpayable",
      "type": "function"
    },
    {
      "inputs": [
        {
          "internalType": "address",
          "name": "from",
          "type": "address"
        },
        {
          "internalType": "address",
          "name": "to",
          "type": "address"
        },
        {
          "internalType": "uint256",
          "name": "value",
          "type": "uint256"
        }
      ],
      "name": "transferFrom",
      "outputs": [
        {
          "internalType": "bool",
          "name": "",
          "type": "bool"
        }
      ],
      "stateMutability": "nonpayable",
      "type": "function"
    }
  ],
  "bytecode": "0x60806040526001600b553480156200001657600080fd5b5060004690507f8b73c3c69bb8fe3d512ecc4cf759cc79239f7b179b0ffacaa9a75d522b39400f6040518060400160405280600a81526020017f506f636b65745377617000000000000000000000000000000000000000000000815250805190602001206040518060400160405280600181526020017f3100000000000000000000000000000000000000000000000000000000000000815250805190602001208330604051602001620000cf95949392919062000166565b604051602081830303815290604052805190602001206003819055505033600560006101000a81548173ffffffffffffffffffffffffffffffffffffffff021916908373ffffffffffffffffffffffffffffffffffffffff1602179055506200020b565b6200013e81620001c3565b82525050565b6200014f81620001d7565b82525050565b620001608162000201565b82525050565b600060a0820190506200017d600083018862000144565b6200018c602083018762000144565b6200019b604083018662000144565b620001aa606083018562000155565b620001b9608083018462000133565b9695505050505050565b6000620001d082620001e1565b9050919050565b6000819050919050565b600073ffffffffffffffffffffffffffffffffffffffff82169050919050565b6000819050919050565b6142d8806200021b6000396000f3fe608060405234801561001057600080fd5b506004361061018e5760003560e01c80636a627842116100de578063ba9a7a5611610097578063d21220a711610071578063d21220a7146104a2578063d505accf146104c0578063dd62ed3e146104dc578063fff6cae91461050c5761018e565b8063ba9a7a561461044a578063bc25cf7714610468578063c45a0155146104845761018e565b80636a6278421461033b57806370a082311461036b5780637ecebe001461039b57806389afcb44146103cb57806395d89b41146103fc578063a9059cbb1461041a5761018e565b806323b872dd1161014b5780633644e515116101255780633644e515146102c5578063485cc955146102e35780635909c0d5146102ff5780635a3d54931461031d5761018e565b806323b872dd1461025957806330adf81f14610289578063313ce567146102a75761018e565b8063022c0d9f1461019357806306fdde03146101af5780630902f1ac146101cd578063095ea7b3146101ed5780630dfe16811461021d57806318160ddd1461023b575b600080fd5b6101ad60048036038101906101a89190613092565b610516565b005b6101b7610ed0565b6040516101c4919061365f565b60405180910390f35b6101d5610f09565b6040516101e49392919061386a565b60405180910390f35b61020760048036038101906102029190613004565b610f66565b6040516102149190613583565b60405180910390f35b610225610f7d565b604051610232919061353f565b60405180910390f35b610243610fa3565b60405161025091906138a1565b60405180910390f35b610273600480360381019061026e9190612f17565b610fa9565b6040516102809190613583565b60405180910390f35b610291611174565b60405161029e919061359e565b60405180910390f35b6102af61119b565b6040516102bc919061396a565b60405180910390f35b6102cd6111a0565b6040516102da919061359e565b60405180910390f35b6102fd60048036038101906102f89190612edb565b6111a6565b005b6103076112bc565b60405161031491906138a1565b60405180910390f35b6103256112c2565b60405161033291906138a1565b60405180910390f35b61035560048036038101906103509190612eb2565b6112c8565b60405161036291906138a1565b60405180910390f35b61038560048036038101906103809190612eb2565b611649565b60405161039291906138a1565b60405180910390f35b6103b560048036038101906103b09190612eb2565b611661565b6040516103c291906138a1565b60405180910390f35b6103e560048036038101906103e09190612eb2565b611679565b6040516103f39291906138bc565b60405180910390f35b610404611ad8565b604051610411919061365f565b60405180910390f35b610434600480360381019061042f9190613004565b611b11565b6040516104419190613583565b60405180910390f35b610452611b28565b60405161045f91906138a1565b60405180910390f35b610482600480360381019061047d9190612eb2565b611b2e565b005b61048c611d78565b604051610499919061353f565b60405180910390f35b6104aa611d9e565b6040516104b7919061353f565b60405180910390f35b6104da60048036038101906104d59190612f66565b611dc4565b005b6104f660048036038101906104f19190612edb565b611fec565b60405161050391906138a1565b60405180910390f35b610514612011565b005b6001600b541461055b576040517f08c379a000000000000000000000000000000000000000000000000000000000815260040161055290613721565b60405180910390fd5b6000600b8190555060008511806105725750600084115b6105b1576040517f08c379a00000000000000000000000000000000000000000000000000000000081526004016105a8906137a1565b60405180910390fd5b6000806105bc610f09565b5091509150816dffffffffffffffffffffffffffff16871080156105ef5750806dffffffffffffffffffffffffffff1686105b61062e576040517f08c379a000000000000000000000000000000000000000000000000000000000815260040161062590613701565b60405180910390fd5b6000806000600660009054906101000a900473ffffffffffffffffffffffffffffffffffffffff1690506000600760009054906101000a900473ffffffffffffffffffffffffffffffffffffffff1690508173ffffffffffffffffffffffffffffffffffffffff168973ffffffffffffffffffffffffffffffffffffffff16141580156106e757508073ffffffffffffffffffffffffffffffffffffffff168973ffffffffffffffffffffffffffffffffffffffff1614155b610726576040517f08c379a000000000000000000000000000000000000000000000000000000000815260040161071d90613801565b60405180910390fd5b60008b111561073b5761073a828a8d612200565b5b60008a11156107505761074f818a8c612200565b5b8173ffffffffffffffffffffffffffffffffffffffff166370a08231306040518263ffffffff1660e01b8152600401610789919061353f565b60206040518083038186803b1580156107a157600080fd5b505afa1580156107b5573d6000803e3d6000fd5b505050506040513d601f19601f820116820180604052508101906107d99190613069565b93508073ffffffffffffffffffffffffffffffffffffffff166370a08231306040518263ffffffff1660e01b8152600401610814919061353f565b60206040518083038186803b15801561082c57600080fd5b505afa158015610840573d6000803e3d6000fd5b505050506040513d601f19601f820116820180604052508101906108649190613069565b92505050600089856dffffffffffffffffffffffffffff166108869190613b45565b83116108935760006108bb565b89856dffffffffffffffffffffffffffff166108af9190613b45565b836108ba9190613b45565b5b9050600089856dffffffffffffffffffffffffffff166108db9190613b45565b83116108e8576000610910565b89856dffffffffffffffffffffffffffff166109049190613b45565b8361090f9190613b45565b5b905060008211806109215750600081115b610960576040517f08c379a000000000000000000000000000000000000000000000000000000000815260040161095790613681565b60405180910390fd5b6000600560009054906101000a900473ffffffffffffffffffffffffffffffffffffffff1673ffffffffffffffffffffffffffffffffffffffff1663ddca3f436040518163ffffffff1660e01b815260040160206040518083038186803b1580156109ca57600080fd5b505afa1580156109de573d6000803e3d6000fd5b505050506040513d601f19601f82011682018060405250810190610a029190613069565b90506000610a41610a1c838661238a90919063ffffffff16565b610a33633b9aca008961238a90919063ffffffff16565b6123a090919063ffffffff16565b90506000610a80610a5b848661238a90919063ffffffff16565b610a72633b9aca008961238a90919063ffffffff16565b6123a090919063ffffffff16565b9050610acf670de0b6b3a7640000610ac18a6dffffffffffffffffffffffffffff168c6dffffffffffffffffffffffffffff1661238a90919063ffffffff16565b61238a90919063ffffffff16565b610ae2828461238a90919063ffffffff16565b1015610b23576040517f08c379a0000000000000000000000000000000000000000000000000000000008152600401610b1a90613761565b60405180910390fd5b5050506000888890501115610e44576000600560009054906101000a900473ffffffffffffffffffffffffffffffffffffffff1673ffffffffffffffffffffffffffffffffffffffff166346870d2b6040518163ffffffff1660e01b815260040160206040518083038186803b158015610b9c57600080fd5b505afa158015610bb0573d6000803e3d6000fd5b505050506040513d601f19601f82011682018060405250810190610bd49190613069565b9050610c1d600660009054906101000a900473ffffffffffffffffffffffffffffffffffffffff1633633b9aca008489610c0e9190613aeb565b610c189190613a64565b6123b6565b610c64600760009054906101000a900473ffffffffffffffffffffffffffffffffffffffff1633633b9aca008488610c559190613aeb565b610c5f9190613a64565b6123b6565b3373ffffffffffffffffffffffffffffffffffffffff16637936cd908d8d8c8c6040518563ffffffff1660e01b8152600401610ca394939291906138e5565b600060405180830381600087803b158015610cbd57600080fd5b505af1925050508015610cce575060015b610de657610cda613de2565b806308c379a01415610d565750610cef614199565b80610cfa5750610d58565b80604051602001610d0b919061351d565b6040516020818303038152906040526040517f08c379a0000000000000000000000000000000000000000000000000000000008152600401610d4d919061365f565b60405180910390fd5b505b3d8060008114610d84576040519150601f19603f3d011682016040523d82523d6000602084013e610d89565b606091505b5080604051602001610d9b91906134fb565b6040516020818303038152906040526040517f08c379a0000000000000000000000000000000000000000000000000000000008152600401610ddd919061365f565b60405180910390fd5b610e14600660009054906101000a900473ffffffffffffffffffffffffffffffffffffffff163360006123b6565b610e42600760009054906101000a900473ffffffffffffffffffffffffffffffffffffffff163360006123b6565b505b610e5084848888612540565b8873ffffffffffffffffffffffffffffffffffffffff163373ffffffffffffffffffffffffffffffffffffffff167fd78ad95fa46c994b6551d0da85fc275fe613ce37657fb8d5e3d130840159d82284848f8f604051610eb39493929190613925565b60405180910390a35050505050506001600b819055505050505050565b6040518060400160405280600a81526020017f506f636b6574537761700000000000000000000000000000000000000000000081525081565b6000806000600a60009054906101000a90046dffffffffffffffffffffffffffff169250600a600e9054906101000a90046dffffffffffffffffffffffffffff169150600a601c9054906101000a900463ffffffff169050909192565b6000610f73338484612834565b6001905092915050565b600660009054906101000a900473ffffffffffffffffffffffffffffffffffffffff1681565b60005481565b60007fffffffffffffffffffffffffffffffffffffffffffffffffffffffffffffffff600260008673ffffffffffffffffffffffffffffffffffffffff1673ffffffffffffffffffffffffffffffffffffffff16815260200190815260200160002060003373ffffffffffffffffffffffffffffffffffffffff1673ffffffffffffffffffffffffffffffffffffffff168152602001908152602001600020541461115e576110dd82600260008773ffffffffffffffffffffffffffffffffffffffff1673ffffffffffffffffffffffffffffffffffffffff16815260200190815260200160002060003373ffffffffffffffffffffffffffffffffffffffff1673ffffffffffffffffffffffffffffffffffffffff168152602001908152602001600020546123a090919063ffffffff16565b600260008673ffffffffffffffffffffffffffffffffffffffff1673ffffffffffffffffffffffffffffffffffffffff16815260200190815260200160002060003373ffffffffffffffffffffffffffffffffffffffff1673ffffffffffffffffffffffffffffffffffffffff168152602001908152602001600020819055505b61116984848461291f565b600190509392505050565b7f6e71edae12b1b97f4d1f60370fef10105fa2faae0126114a169c64845d6126c960001b81565b601281565b60035481565b600560009054906101000a900473ffffffffffffffffffffffffffffffffffffffff1673ffffffffffffffffffffffffffffffffffffffff163373ffffffffffffffffffffffffffffffffffffffff1614611236576040517f08c379a000000000000000000000000000000000000000000000000000000000815260040161122d906137e1565b60405180910390fd5b81600660006101000a81548173ffffffffffffffffffffffffffffffffffffffff021916908373ffffffffffffffffffffffffffffffffffffffff16021790555080600760006101000a81548173ffffffffffffffffffffffffffffffffffffffff021916908373ffffffffffffffffffffffffffffffffffffffff1602179055505050565b60085481565b60095481565b60006001600b541461130f576040517f08c379a000000000000000000000000000000000000000000000000000000000815260040161130690613721565b60405180910390fd5b6000600b81905550600080611322610f09565b50915091506000600660009054906101000a900473ffffffffffffffffffffffffffffffffffffffff1673ffffffffffffffffffffffffffffffffffffffff166370a08231306040518263ffffffff1660e01b8152600401611384919061353f565b60206040518083038186803b15801561139c57600080fd5b505afa1580156113b0573d6000803e3d6000fd5b505050506040513d601f19601f820116820180604052508101906113d49190613069565b90506000600760009054906101000a900473ffffffffffffffffffffffffffffffffffffffff1673ffffffffffffffffffffffffffffffffffffffff166370a08231306040518263ffffffff1660e01b8152600401611433919061353f565b60206040518083038186803b15801561144b57600080fd5b505afa15801561145f573d6000803e3d6000fd5b505050506040513d601f19601f820116820180604052508101906114839190613069565b905060006114aa856dffffffffffffffffffffffffffff16846123a090919063ffffffff16565b905060006114d1856dffffffffffffffffffffffffffff16846123a090919063ffffffff16565b90506000805490506000811415611525576115116103e86115036114fe858761238a90919063ffffffff16565b612ab3565b6123a090919063ffffffff16565b975061152060006103e8612b2d565b61158c565b611589876dffffffffffffffffffffffffffff1661154c838661238a90919063ffffffff16565b6115569190613a64565b876dffffffffffffffffffffffffffff1661157a848661238a90919063ffffffff16565b6115849190613a64565b612c47565b97505b600088116115cf576040517f08c379a00000000000000000000000000000000000000000000000000000000081526004016115c6906136e1565b60405180910390fd5b6115d98989612b2d565b6115e585858989612540565b3373ffffffffffffffffffffffffffffffffffffffff167f4c209b5fc8ad50758f13e2e1088ba56a560dff690a1c6fef26394f4c03821c4f848460405161162d9291906138bc565b60405180910390a2505050505050506001600b81905550919050565b60016020528060005260406000206000915090505481565b60046020528060005260406000206000915090505481565b6000806001600b54146116c1576040517f08c379a00000000000000000000000000000000000000000000000000000000081526004016116b890613721565b60405180910390fd5b6000600b819055506000806116d4610f09565b50915091506000600660009054906101000a900473ffffffffffffffffffffffffffffffffffffffff1690506000600760009054906101000a900473ffffffffffffffffffffffffffffffffffffffff16905060008273ffffffffffffffffffffffffffffffffffffffff166370a08231306040518263ffffffff1660e01b8152600401611762919061353f565b60206040518083038186803b15801561177a57600080fd5b505afa15801561178e573d6000803e3d6000fd5b505050506040513d601f19601f820116820180604052508101906117b29190613069565b905060008273ffffffffffffffffffffffffffffffffffffffff166370a08231306040518263ffffffff1660e01b81526004016117ef919061353f565b60206040518083038186803b15801561180757600080fd5b505afa15801561181b573d6000803e3d6000fd5b505050506040513d601f19601f8201168201806040525081019061183f9190613069565b90506000600160003073ffffffffffffffffffffffffffffffffffffffff1673ffffffffffffffffffffffffffffffffffffffff1681526020019081526020016000205490506000805490508061189f858461238a90919063ffffffff16565b6118a99190613a64565b9950806118bf848461238a90919063ffffffff16565b6118c99190613a64565b985060008a1180156118db5750600089115b61191a576040517f08c379a000000000000000000000000000000000000000000000000000000000815260040161191190613821565b60405180910390fd5b6119243083612c60565b61192f868c8c612200565b61193a858c8b612200565b8573ffffffffffffffffffffffffffffffffffffffff166370a08231306040518263ffffffff1660e01b8152600401611973919061353f565b60206040518083038186803b15801561198b57600080fd5b505afa15801561199f573d6000803e3d6000fd5b505050506040513d601f19601f820116820180604052508101906119c39190613069565b93508473ffffffffffffffffffffffffffffffffffffffff166370a08231306040518263ffffffff1660e01b81526004016119fe919061353f565b60206040518083038186803b158015611a1657600080fd5b505afa158015611a2a573d6000803e3d6000fd5b505050506040513d601f19601f82011682018060405250810190611a4e9190613069565b9250611a5c84848a8a612540565b8a73ffffffffffffffffffffffffffffffffffffffff163373ffffffffffffffffffffffffffffffffffffffff167fdccd412f0b1252819cb1fd330b93224ca42612892bb3f4f789976e6d819364968c8c604051611abb9291906138bc565b60405180910390a350505050505050506001600b81905550915091565b6040518060400160405280600781526020017f50532d504149520000000000000000000000000000000000000000000000000081525081565b6000611b1e33848461291f565b6001905092915050565b6103e881565b6001600b5414611b73576040517f08c379a0000000000000000000000000000000000000000000000000000000008152600401611b6a90613721565b60405180910390fd5b6000600b819055506000600660009054906101000a900473ffffffffffffffffffffffffffffffffffffffff1690506000600760009054906101000a900473ffffffffffffffffffffffffffffffffffffffff169050611c9a8284611c95600a60009054906101000a90046dffffffffffffffffffffffffffff166dffffffffffffffffffffffffffff168673ffffffffffffffffffffffffffffffffffffffff166370a08231306040518263ffffffff1660e01b8152600401611c37919061353f565b60206040518083038186803b158015611c4f57600080fd5b505afa158015611c63573d6000803e3d6000fd5b505050506040513d601f19601f82011682018060405250810190611c879190613069565b6123a090919063ffffffff16565b612200565b611d6b8184611d66600a600e9054906101000a90046dffffffffffffffffffffffffffff166dffffffffffffffffffffffffffff168573ffffffffffffffffffffffffffffffffffffffff166370a08231306040518263ffffffff1660e01b8152600401611d08919061353f565b60206040518083038186803b158015611d2057600080fd5b505afa158015611d34573d6000803e3d6000fd5b505050506040513d601f19601f82011682018060405250810190611d589190613069565b6123a090919063ffffffff16565b612200565b50506001600b8190555050565b600560009054906101000a900473ffffffffffffffffffffffffffffffffffffffff1681565b600760009054906101000a900473ffffffffffffffffffffffffffffffffffffffff1681565b42841015611e07576040517f08c379a0000000000000000000000000000000000000000000000000000000008152600401611dfe90613781565b60405180910390fd5b60006003547f6e71edae12b1b97f4d1f60370fef10105fa2faae0126114a169c64845d6126c960001b898989600460008e73ffffffffffffffffffffffffffffffffffffffff1673ffffffffffffffffffffffffffffffffffffffff1681526020019081526020016000206000815480929190611e8390613cd1565b919050558a604051602001611e9d969594939291906135b9565b60405160208183030381529060405280519060200120604051602001611ec49291906134c4565b604051602081830303815290604052805190602001209050600060018286868660405160008152602001604052604051611f01949392919061361a565b6020604051602081039080840390855afa158015611f23573d6000803e3d6000fd5b505050602060405103519050600073ffffffffffffffffffffffffffffffffffffffff168173ffffffffffffffffffffffffffffffffffffffff1614158015611f9757508873ffffffffffffffffffffffffffffffffffffffff168173ffffffffffffffffffffffffffffffffffffffff16145b611fd6576040517f08c379a0000000000000000000000000000000000000000000000000000000008152600401611fcd906137c1565b60405180910390fd5b611fe1898989612834565b505050505050505050565b6002602052816000526040600020602052806000526040600020600091509150505481565b6001600b5414612056576040517f08c379a000000000000000000000000000000000000000000000000000000000815260040161204d90613721565b60405180910390fd5b6000600b819055506121f6600660009054906101000a900473ffffffffffffffffffffffffffffffffffffffff1673ffffffffffffffffffffffffffffffffffffffff166370a08231306040518263ffffffff1660e01b81526004016120bc919061353f565b60206040518083038186803b1580156120d457600080fd5b505afa1580156120e8573d6000803e3d6000fd5b505050506040513d601f19601f8201168201806040525081019061210c9190613069565b600760009054906101000a900473ffffffffffffffffffffffffffffffffffffffff1673ffffffffffffffffffffffffffffffffffffffff166370a08231306040518263ffffffff1660e01b8152600401612167919061353f565b60206040518083038186803b15801561217f57600080fd5b505afa158015612193573d6000803e3d6000fd5b505050506040513d601f19601f820116820180604052508101906121b79190613069565b600a60009054906101000a90046dffffffffffffffffffffffffffff16600a600e9054906101000a90046dffffffffffffffffffffffffffff16612540565b6001600b81905550565b6000808473ffffffffffffffffffffffffffffffffffffffff166040518060400160405280601981526020017f7472616e7366657228616464726573732c75696e74323536290000000000000081525080519060200120858560405160240161226a92919061355a565b604051602081830303815290604052907bffffffffffffffffffffffffffffffffffffffffffffffffffffffff19166020820180517bffffffffffffffffffffffffffffffffffffffffffffffffffffffff83818316178352505050506040516122d491906134ad565b6000604051808303816000865af19150503d8060008114612311576040519150601f19603f3d011682016040523d82523d6000602084013e612316565b606091505b509150915081801561234457506000815114806123435750808060200190518101906123429190613040565b5b5b612383576040517f08c379a000000000000000000000000000000000000000000000000000000000815260040161237a906136c1565b60405180910390fd5b5050505050565b600081836123989190613aeb565b905092915050565b600081836123ae9190613b45565b905092915050565b6000808473ffffffffffffffffffffffffffffffffffffffff166040518060400160405280601881526020017f617070726f766528616464726573732c75696e7432353629000000000000000081525080519060200120858560405160240161242092919061355a565b604051602081830303815290604052907bffffffffffffffffffffffffffffffffffffffffffffffffffffffff19166020820180517bffffffffffffffffffffffffffffffffffffffffffffffffffffffff838183161783525050505060405161248a91906134ad565b6000604051808303816000865af19150503d80600081146124c7576040519150601f19603f3d011682016040523d82523d6000602084013e6124cc565b606091505b50915091508180156124fa57506000815114806124f95750808060200190518101906124f89190613040565b5b5b612539576040517f08c379a0000000000000000000000000000000000000000000000000000000008152600401612530906136a1565b60405180910390fd5b5050505050565b6dffffffffffffffffffffffffffff8016841115801561257057506dffffffffffffffffffffffffffff80168311155b6125af576040517f08c379a00000000000000000000000000000000000000000000000000000000081526004016125a690613741565b60405180910390fd5b6000640100000000426125c29190613d24565b90506000600a601c9054906101000a900463ffffffff16826125e49190613b79565b905060008163ffffffff1611801561260d57506000846dffffffffffffffffffffffffffff1614155b801561262a57506000836dffffffffffffffffffffffffffff1614155b15612730578063ffffffff1661266f8561264386612d7a565b7bffffffffffffffffffffffffffffffffffffffffffffffffffffffff16612dae90919063ffffffff16565b7bffffffffffffffffffffffffffffffffffffffffffffffffffffffff166126979190613aeb565b600860008282546126a891906139dd565b925050819055508063ffffffff166126ef846126c387612d7a565b7bffffffffffffffffffffffffffffffffffffffffffffffffffffffff16612dae90919063ffffffff16565b7bffffffffffffffffffffffffffffffffffffffffffffffffffffffff166127179190613aeb565b6009600082825461272891906139dd565b925050819055505b85600a60006101000a8154816dffffffffffffffffffffffffffff02191690836dffffffffffffffffffffffffffff16021790555084600a600e6101000a8154816dffffffffffffffffffffffffffff02191690836dffffffffffffffffffffffffffff16021790555081600a601c6101000a81548163ffffffff021916908363ffffffff1602179055507f1c411e9a96e071241c2f21f7726b17ae89e3cab4c78be50e062b03a9fffbbad1600a60009054906101000a90046dffffffffffffffffffffffffffff16600a600e9054906101000a90046dffffffffffffffffffffffffffff16604051612824929190613841565b60405180910390a1505050505050565b80600260008573ffffffffffffffffffffffffffffffffffffffff1673ffffffffffffffffffffffffffffffffffffffff16815260200190815260200160002060008473ffffffffffffffffffffffffffffffffffffffff1673ffffffffffffffffffffffffffffffffffffffff168152602001908152602001600020819055508173ffffffffffffffffffffffffffffffffffffffff168373ffffffffffffffffffffffffffffffffffffffff167f8c5be1e5ebec7d5bd14f71427d1e84f3dd0314c0f7b2291e5b200ac8c7c3b9258360405161291291906138a1565b60405180910390a3505050565b61297181600160008673ffffffffffffffffffffffffffffffffffffffff1673ffffffffffffffffffffffffffffffffffffffff168152602001908152602001600020546123a090919063ffffffff16565b600160008573ffffffffffffffffffffffffffffffffffffffff1673ffffffffffffffffffffffffffffffffffffffff16815260200190815260200160002081905550612a0681600160008573ffffffffffffffffffffffffffffffffffffffff1673ffffffffffffffffffffffffffffffffffffffff16815260200190815260200160002054612dd490919063ffffffff16565b600160008473ffffffffffffffffffffffffffffffffffffffff1673ffffffffffffffffffffffffffffffffffffffff168152602001908152602001600020819055508173ffffffffffffffffffffffffffffffffffffffff168373ffffffffffffffffffffffffffffffffffffffff167fddf252ad1be2c89b69c2b068fc378daa952ba7f163c4a11628f55a4df523b3ef83604051612aa691906138a1565b60405180910390a3505050565b60006003821115612b1a5781905060006001600284612ad29190613a64565b612adc91906139dd565b90505b81811015612b14578091506002818285612af99190613a64565b612b0391906139dd565b612b0d9190613a64565b9050612adf565b50612b28565b60008214612b2757600190505b5b919050565b612b4281600054612dd490919063ffffffff16565b600081905550612b9a81600160008573ffffffffffffffffffffffffffffffffffffffff1673ffffffffffffffffffffffffffffffffffffffff16815260200190815260200160002054612dd490919063ffffffff16565b600160008473ffffffffffffffffffffffffffffffffffffffff1673ffffffffffffffffffffffffffffffffffffffff168152602001908152602001600020819055508173ffffffffffffffffffffffffffffffffffffffff16600073ffffffffffffffffffffffffffffffffffffffff167fddf252ad1be2c89b69c2b068fc378daa952ba7f163c4a11628f55a4df523b3ef83604051612c3b91906138a1565b60405180910390a35050565b6000818310612c565781612c58565b825b905092915050565b612cb281600160008573ffffffffffffffffffffffffffffffffffffffff1673ffffffffffffffffffffffffffffffffffffffff168152602001908152602001600020546123a090919063ffffffff16565b600160008473ffffffffffffffffffffffffffffffffffffffff1673ffffffffffffffffffffffffffffffffffffffff16815260200190815260200160002081905550612d0a816000546123a090919063ffffffff16565b600081905550600073ffffffffffffffffffffffffffffffffffffffff168273ffffffffffffffffffffffffffffffffffffffff167fddf252ad1be2c89b69c2b068fc378daa952ba7f163c4a11628f55a4df523b3ef83604051612d6e91906138a1565b60405180910390a35050565b60006e010000000000000000000000000000826dffffffffffffffffffffffffffff16612da79190613a95565b9050919050565b6000816dffffffffffffffffffffffffffff1683612dcc9190613a33565b905092915050565b60008183612de291906139dd565b905092915050565b600081359050612df98161422f565b92915050565b600081519050612e0e81614246565b92915050565b600081359050612e238161425d565b92915050565b60008083601f840112612e3b57600080fd5b8235905067ffffffffffffffff811115612e5457600080fd5b602083019150836001820283011115612e6c57600080fd5b9250929050565b600081359050612e8281614274565b92915050565b600081519050612e9781614274565b92915050565b600081359050612eac8161428b565b92915050565b600060208284031215612ec457600080fd5b6000612ed284828501612dea565b91505092915050565b60008060408385031215612eee57600080fd5b6000612efc85828601612dea565b9250506020612f0d85828601612dea565b9150509250929050565b600080600060608486031215612f2c57600080fd5b6000612f3a86828701612dea565b9350506020612f4b86828701612dea565b9250506040612f5c86828701612e73565b9150509250925092565b600080600080600080600060e0888a031215612f8157600080fd5b6000612f8f8a828b01612dea565b9750506020612fa08a828b01612dea565b9650506040612fb18a828b01612e73565b9550506060612fc28a828b01612e73565b9450506080612fd38a828b01612e9d565b93505060a0612fe48a828b01612e14565b92505060c0612ff58a828b01612e14565b91505092959891949750929550565b6000806040838503121561301757600080fd5b600061302585828601612dea565b925050602061303685828601612e73565b9150509250929050565b60006020828403121561305257600080fd5b600061306084828501612dff565b91505092915050565b60006020828403121561307b57600080fd5b600061308984828501612e88565b91505092915050565b6000806000806000608086880312156130aa57600080fd5b60006130b888828901612e73565b95505060206130c988828901612e73565b94505060406130da88828901612dea565b935050606086013567ffffffffffffffff8111156130f757600080fd5b61310388828901612e29565b92509250509295509295909350565b61311b81613bad565b82525050565b61312a81613bbf565b82525050565b61313981613bcb565b82525050565b61315061314b82613bcb565b613d1a565b82525050565b600061316283856139a5565b935061316f838584613c5e565b61317883613e04565b840190509392505050565b600061318e8261398f565b61319881856139b6565b93506131a8818560208601613c6d565b80840191505092915050565b60006131bf8261399a565b6131c981856139c1565b93506131d9818560208601613c6d565b6131e281613e04565b840191505092915050565b60006131f88261399a565b61320281856139d2565b9350613212818560208601613c6d565b80840191505092915050565b600061322b6025836139c1565b915061323682613e22565b604082019050919050565b600061324e6002836139d2565b915061325982613e71565b600282019050919050565b60006132716008836139d2565b915061327c82613e9a565b600882019050919050565b6000613294601a836139c1565b915061329f82613ec3565b602082019050919050565b60006132b7601b836139c1565b91506132c282613eec565b602082019050919050565b60006132da6029836139c1565b91506132e582613f15565b604082019050919050565b60006132fd6022836139c1565b915061330882613f64565b604082019050919050565b60006133206012836139c1565b915061332b82613fb3565b602082019050919050565b60006133436014836139c1565b915061334e82613fdc565b602082019050919050565b6000613366600d836139c1565b915061337182614005565b602082019050919050565b60006133896013836139c1565b91506133948261402e565b602082019050919050565b60006133ac6005836139d2565b91506133b782614057565b600582019050919050565b60006133cf6026836139c1565b91506133da82614080565b604082019050919050565b60006133f2601d836139c1565b91506133fd826140cf565b602082019050919050565b60006134156015836139c1565b9150613420826140f8565b602082019050919050565b60006134386016836139c1565b915061344382614121565b602082019050919050565b600061345b6029836139c1565b91506134668261414a565b604082019050919050565b61347a81613bd5565b82525050565b61348981613c37565b82525050565b61349881613c41565b82525050565b6134a781613c51565b82525050565b60006134b98284613183565b915081905092915050565b60006134cf82613241565b91506134db828561313f565b6020820191506134eb828461313f565b6020820191508190509392505050565b600061350682613264565b915061351282846131ed565b915081905092915050565b60006135288261339f565b915061353482846131ed565b915081905092915050565b60006020820190506135546000830184613112565b92915050565b600060408201905061356f6000830185613112565b61357c6020830184613480565b9392505050565b60006020820190506135986000830184613121565b92915050565b60006020820190506135b36000830184613130565b92915050565b600060c0820190506135ce6000830189613130565b6135db6020830188613112565b6135e86040830187613112565b6135f56060830186613480565b6136026080830185613480565b61360f60a0830184613480565b979650505050505050565b600060808201905061362f6000830187613130565b61363c602083018661349e565b6136496040830185613130565b6136566060830184613130565b95945050505050565b6000602082019050818103600083015261367981846131b4565b905092915050565b6000602082019050818103600083015261369a8161321e565b9050919050565b600060208201905081810360008301526136ba81613287565b9050919050565b600060208201905081810360008301526136da816132aa565b9050919050565b600060208201905081810360008301526136fa816132cd565b9050919050565b6000602082019050818103600083015261371a816132f0565b9050919050565b6000602082019050818103600083015261373a81613313565b9050919050565b6000602082019050818103600083015261375a81613336565b9050919050565b6000602082019050818103600083015261377a81613359565b9050919050565b6000602082019050818103600083015261379a8161337c565b9050919050565b600060208201905081810360008301526137ba816133c2565b9050919050565b600060208201905081810360008301526137da816133e5565b9050919050565b600060208201905081810360008301526137fa81613408565b9050919050565b6000602082019050818103600083015261381a8161342b565b9050919050565b6000602082019050818103600083015261383a8161344e565b9050919050565b60006040820190506138566000830185613471565b6138636020830184613471565b9392505050565b600060608201905061387f6000830186613471565b61388c6020830185613471565b613899604083018461348f565b949350505050565b60006020820190506138b66000830184613480565b92915050565b60006040820190506138d16000830185613480565b6138de6020830184613480565b9392505050565b60006060820190506138fa6000830187613480565b6139076020830186613480565b818103604083015261391a818486613156565b905095945050505050565b600060808201905061393a6000830187613480565b6139476020830186613480565b6139546040830185613480565b6139616060830184613480565b95945050505050565b600060208201905061397f600083018461349e565b92915050565b6000604051905090565b600081519050919050565b600081519050919050565b600082825260208201905092915050565b600081905092915050565b600082825260208201905092915050565b600081905092915050565b60006139e882613c37565b91506139f383613c37565b9250827fffffffffffffffffffffffffffffffffffffffffffffffffffffffffffffffff03821115613a2857613a27613d55565b5b828201905092915050565b6000613a3e82613c0f565b9150613a4983613c0f565b925082613a5957613a58613d84565b5b828204905092915050565b6000613a6f82613c37565b9150613a7a83613c37565b925082613a8a57613a89613d84565b5b828204905092915050565b6000613aa082613c0f565b9150613aab83613c0f565b9250817bffffffffffffffffffffffffffffffffffffffffffffffffffffffff0483118215151615613ae057613adf613d55565b5b828202905092915050565b6000613af682613c37565b9150613b0183613c37565b9250817fffffffffffffffffffffffffffffffffffffffffffffffffffffffffffffffff0483118215151615613b3a57613b39613d55565b5b828202905092915050565b6000613b5082613c37565b9150613b5b83613c37565b925082821015613b6e57613b6d613d55565b5b828203905092915050565b6000613b8482613c41565b9150613b8f83613c41565b925082821015613ba257613ba1613d55565b5b828203905092915050565b6000613bb882613bef565b9050919050565b60008115159050919050565b6000819050919050565b60006dffffffffffffffffffffffffffff82169050919050565b600073ffffffffffffffffffffffffffffffffffffffff82169050919050565b60007bffffffffffffffffffffffffffffffffffffffffffffffffffffffff82169050919050565b6000819050919050565b600063ffffffff82169050919050565b600060ff82169050919050565b82818337600083830152505050565b60005b83811015613c8b578082015181840152602081019050613c70565b83811115613c9a576000848401525b50505050565b613ca982613e04565b810181811067ffffffffffffffff82111715613cc857613cc7613db3565b5b80604052505050565b6000613cdc82613c37565b91507fffffffffffffffffffffffffffffffffffffffffffffffffffffffffffffffff821415613d0f57613d0e613d55565b5b600182019050919050565b6000819050919050565b6000613d2f82613c37565b9150613d3a83613c37565b925082613d4a57613d49613d84565b5b828206905092915050565b7f4e487b7100000000000000000000000000000000000000000000000000000000600052601160045260246000fd5b7f4e487b7100000000000000000000000000000000000000000000000000000000600052601260045260246000fd5b7f4e487b7100000000000000000000000000000000000000000000000000000000600052604160045260246000fd5b600060033d1115613e015760046000803e613dfe600051613e15565b90505b90565b6000601f19601f8301169050919050565b60008160e01c9050919050565b7f506f636b6574537761703a20494e53554646494349454e545f494e5055545f4160008201527f4d4f554e54000000000000000000000000000000000000000000000000000000602082015250565b7f1901000000000000000000000000000000000000000000000000000000000000600082015250565b7f4e4f4b2062213a20000000000000000000000000000000000000000000000000600082015250565b7f506f636b6574537761703a20415050524f56455f4641494c4544000000000000600082015250565b7f506f636b6574537761703a205452414e534645525f4641494c45440000000000600082015250565b7f506f636b6574537761703a20494e53554646494349454e545f4c49515549444960008201527f54595f4d494e5445440000000000000000000000000000000000000000000000602082015250565b7f506f636b6574537761703a20494e53554646494349454e545f4c49515549444960008201527f5459000000000000000000000000000000000000000000000000000000000000602082015250565b7f506f636b6574537761703a204c4f434b45440000000000000000000000000000600082015250565b7f506f636b6574537761703a204f564552464c4f57000000000000000000000000600082015250565b7f506f636b6574537761703a204b00000000000000000000000000000000000000600082015250565b7f506f636b6574537761703a204558504952454400000000000000000000000000600082015250565b7f4e4f4b3a20000000000000000000000000000000000000000000000000000000600082015250565b7f506f636b6574537761703a20494e53554646494349454e545f4f55545055545f60008201527f414d4f554e540000000000000000000000000000000000000000000000000000602082015250565b7f506f636b6574537761703a20494e56414c49445f5349474e4154555245000000600082015250565b7f506f636b6574537761703a20464f5242494444454e0000000000000000000000600082015250565b7f506f636b6574537761703a20494e56414c49445f544f00000000000000000000600082015250565b7f506f636b6574537761703a20494e53554646494349454e545f4c49515549444960008201527f54595f4255524e45440000000000000000000000000000000000000000000000602082015250565b600060443d10156141a95761422c565b6141b1613985565b60043d036004823e80513d602482011167ffffffffffffffff821117156141d957505061422c565b808201805167ffffffffffffffff8111156141f7575050505061422c565b80602083010160043d03850181111561421457505050505061422c565b61422382602001850186613ca0565b82955050505050505b90565b61423881613bad565b811461424357600080fd5b50565b61424f81613bbf565b811461425a57600080fd5b50565b61426681613bcb565b811461427157600080fd5b50565b61427d81613c37565b811461428857600080fd5b50565b61429481613c51565b811461429f57600080fd5b5056fea264697066735822122068f408d3902384d67ced5401acce7a27af5151580069a42d0bca4cc8a96106f964736f6c63430008040033",
  "linkReferences": {},
  "deployedLinkReferences": {}
}