{
  "_format": "hh-sol-artifact-1",
  "contractName": "PocketSwapRouter",
  "sourceName": "contracts/pocketswap/PocketSwapRouter.sol",
  "abi": [
    {
      "inputs": [
        {
          "internalType": "address",
          "name": "_factory",
          "type": "address"
        },
        {
          "internalType": "address",
          "name": "_WETH9",
          "type": "address"
        },
        {
          "internalType": "address",
          "name": "_pocketToken",
          "type": "address"
        }
      ],
      "stateMutability": "nonpayable",
      "type": "constructor"
    },
    {
      "inputs": [],
      "name": "WETH9",
      "outputs": [
        {
          "internalType": "address",
          "name": "",
          "type": "address"
        }
      ],
      "stateMutability": "view",
      "type": "function"
    },
    {
      "inputs": [
        {
          "components": [
            {
              "internalType": "address",
              "name": "token0",
              "type": "address"
            },
            {
              "internalType": "address",
              "name": "token1",
              "type": "address"
            },
            {
              "internalType": "address",
              "name": "recipient",
              "type": "address"
            },
            {
              "internalType": "uint256",
              "name": "amount0Desired",
              "type": "uint256"
            },
            {
              "internalType": "uint256",
              "name": "amount1Desired",
              "type": "uint256"
            },
            {
              "internalType": "uint256",
              "name": "amount0Min",
              "type": "uint256"
            },
            {
              "internalType": "uint256",
              "name": "amount1Min",
              "type": "uint256"
            },
            {
              "internalType": "uint256",
              "name": "deadline",
              "type": "uint256"
            }
          ],
          "internalType": "struct IPocketSwapLiquidityRouter.AddLiquidityParams",
          "name": "params",
          "type": "tuple"
        }
      ],
      "name": "addLiquidity",
      "outputs": [
        {
          "internalType": "uint256",
          "name": "amountA",
          "type": "uint256"
        },
        {
          "internalType": "uint256",
          "name": "amountB",
          "type": "uint256"
        },
        {
          "internalType": "uint256",
          "name": "amountPocket",
          "type": "uint256"
        },
        {
          "internalType": "uint256",
          "name": "liquidity",
          "type": "uint256"
        }
      ],
      "stateMutability": "payable",
      "type": "function"
    },
    {
      "inputs": [
        {
          "components": [
            {
              "internalType": "address",
              "name": "token0",
              "type": "address"
            },
            {
              "internalType": "address",
              "name": "token1",
              "type": "address"
            },
            {
              "internalType": "address",
              "name": "recipient",
              "type": "address"
            },
            {
              "internalType": "uint256",
              "name": "amount0Desired",
              "type": "uint256"
            },
            {
              "internalType": "uint256",
              "name": "amount1Desired",
              "type": "uint256"
            },
            {
              "internalType": "uint256",
              "name": "amount0Min",
              "type": "uint256"
            },
            {
              "internalType": "uint256",
              "name": "amount1Min",
              "type": "uint256"
            },
            {
              "internalType": "uint256",
              "name": "deadline",
              "type": "uint256"
            }
          ],
          "internalType": "struct IPocketSwapLiquidityRouter.AddLiquidityParams",
          "name": "params",
          "type": "tuple"
        }
      ],
      "name": "calcLiquidity",
      "outputs": [
        {
          "internalType": "uint256",
          "name": "amountA",
          "type": "uint256"
        },
        {
          "internalType": "uint256",
          "name": "amountB",
          "type": "uint256"
        }
      ],
      "stateMutability": "view",
      "type": "function"
    },
    {
      "inputs": [],
      "name": "factory",
      "outputs": [
        {
          "internalType": "address",
          "name": "",
          "type": "address"
        }
      ],
      "stateMutability": "view",
      "type": "function"
    },
    {
      "inputs": [
        {
          "internalType": "uint256",
          "name": "amountOut",
          "type": "uint256"
        },
        {
          "internalType": "uint256",
          "name": "reserveIn",
          "type": "uint256"
        },
        {
          "internalType": "uint256",
          "name": "reserveOut",
          "type": "uint256"
        }
      ],
      "name": "getAmountIn",
      "outputs": [
        {
          "internalType": "uint256",
          "name": "amountIn",
          "type": "uint256"
        }
      ],
      "stateMutability": "view",
      "type": "function"
    },
    {
      "inputs": [
        {
          "internalType": "uint256",
          "name": "amountIn",
          "type": "uint256"
        },
        {
          "internalType": "uint256",
          "name": "reserveIn",
          "type": "uint256"
        },
        {
          "internalType": "uint256",
          "name": "reserveOut",
          "type": "uint256"
        }
      ],
      "name": "getAmountOut",
      "outputs": [
        {
          "internalType": "uint256",
          "name": "amountOut",
          "type": "uint256"
        }
      ],
      "stateMutability": "view",
      "type": "function"
    },
    {
      "inputs": [
        {
          "internalType": "uint256",
          "name": "amountOut",
          "type": "uint256"
        },
        {
          "internalType": "address[]",
          "name": "path",
          "type": "address[]"
        }
      ],
      "name": "getAmountsIn",
      "outputs": [
        {
          "internalType": "uint256[]",
          "name": "amounts",
          "type": "uint256[]"
        }
      ],
      "stateMutability": "view",
      "type": "function"
    },
    {
      "inputs": [
        {
          "internalType": "uint256",
          "name": "amountIn",
          "type": "uint256"
        },
        {
          "internalType": "address[]",
          "name": "path",
          "type": "address[]"
        }
      ],
      "name": "getAmountsOut",
      "outputs": [
        {
          "internalType": "uint256[]",
          "name": "amounts",
          "type": "uint256[]"
        }
      ],
      "stateMutability": "view",
      "type": "function"
    },
    {
      "inputs": [
        {
          "internalType": "bytes[]",
          "name": "data",
          "type": "bytes[]"
        }
      ],
      "name": "multicall",
      "outputs": [
        {
          "internalType": "bytes[]",
          "name": "results",
          "type": "bytes[]"
        }
      ],
      "stateMutability": "payable",
      "type": "function"
    },
    {
      "inputs": [
        {
          "internalType": "address",
          "name": "tokenA",
          "type": "address"
        },
        {
          "internalType": "address",
          "name": "tokenB",
          "type": "address"
        }
      ],
      "name": "pairFor",
      "outputs": [
        {
          "internalType": "contract IPocketSwapPair",
          "name": "",
          "type": "address"
        }
      ],
      "stateMutability": "view",
      "type": "function"
    },
    {
      "inputs": [],
      "name": "pocket",
      "outputs": [
        {
          "internalType": "address",
          "name": "",
          "type": "address"
        }
      ],
      "stateMutability": "view",
      "type": "function"
    },
    {
      "inputs": [
        {
          "internalType": "uint256",
          "name": "amount0Delta",
          "type": "uint256"
        },
        {
          "internalType": "uint256",
          "name": "amount1Delta",
          "type": "uint256"
        },
        {
          "internalType": "bytes",
          "name": "_data",
          "type": "bytes"
        }
      ],
      "name": "pocketSwapCallback",
      "outputs": [],
      "stateMutability": "nonpayable",
      "type": "function"
    },
    {
      "inputs": [
        {
          "internalType": "uint256",
          "name": "amountA",
          "type": "uint256"
        },
        {
          "internalType": "uint256",
          "name": "reserveA",
          "type": "uint256"
        },
        {
          "internalType": "uint256",
          "name": "reserveB",
          "type": "uint256"
        }
      ],
      "name": "quote",
      "outputs": [
        {
          "internalType": "uint256",
          "name": "amountB",
          "type": "uint256"
        }
      ],
      "stateMutability": "pure",
      "type": "function"
    },
    {
      "inputs": [
        {
          "components": [
            {
              "internalType": "address",
              "name": "tokenA",
              "type": "address"
            },
            {
              "internalType": "address",
              "name": "tokenB",
              "type": "address"
            },
            {
              "internalType": "uint256",
              "name": "liquidity",
              "type": "uint256"
            },
            {
              "internalType": "uint256",
              "name": "amountAMin",
              "type": "uint256"
            },
            {
              "internalType": "uint256",
              "name": "amountBMin",
              "type": "uint256"
            },
            {
              "internalType": "address",
              "name": "rewards",
              "type": "address"
            },
            {
              "internalType": "address",
              "name": "recipient",
              "type": "address"
            },
            {
              "internalType": "uint256",
              "name": "deadline",
              "type": "uint256"
            }
          ],
          "internalType": "struct IPocketSwapLiquidityRouter.RemoveLiquidityParams",
          "name": "params",
          "type": "tuple"
        }
      ],
      "name": "removeLiquidity",
      "outputs": [
        {
          "internalType": "uint256",
          "name": "amountA",
          "type": "uint256"
        },
        {
          "internalType": "uint256",
          "name": "amountB",
          "type": "uint256"
        }
      ],
      "stateMutability": "payable",
      "type": "function"
    },
    {
      "inputs": [
        {
          "components": [
            {
              "internalType": "address",
              "name": "tokenIn",
              "type": "address"
            },
            {
              "internalType": "address",
              "name": "tokenOut",
              "type": "address"
            },
            {
              "internalType": "address",
              "name": "recipient",
              "type": "address"
            },
            {
              "internalType": "uint256",
              "name": "deadline",
              "type": "uint256"
            },
            {
              "internalType": "uint256",
              "name": "amountIn",
              "type": "uint256"
            },
            {
              "internalType": "uint256",
              "name": "amountOutMinimum",
              "type": "uint256"
            }
          ],
          "internalType": "struct IPocketSwapRouter.SwapParams",
          "name": "params",
          "type": "tuple"
        }
      ],
      "name": "swap",
      "outputs": [
        {
          "internalType": "uint256",
          "name": "amountOut",
          "type": "uint256"
        }
      ],
      "stateMutability": "payable",
      "type": "function"
    },
    {
      "inputs": [
        {
          "components": [
            {
              "internalType": "bytes",
              "name": "path",
              "type": "bytes"
            },
            {
              "internalType": "address",
              "name": "recipient",
              "type": "address"
            },
            {
              "internalType": "uint256",
              "name": "deadline",
              "type": "uint256"
            },
            {
              "internalType": "uint256",
              "name": "amountIn",
              "type": "uint256"
            },
            {
              "internalType": "uint256",
              "name": "amountOutMinimum",
              "type": "uint256"
            }
          ],
          "internalType": "struct IPocketSwapRouter.SwapMultiParams",
          "name": "params",
          "type": "tuple"
        }
      ],
      "name": "swapMulti",
      "outputs": [
        {
          "internalType": "uint256",
          "name": "amountOut",
          "type": "uint256"
        }
      ],
      "stateMutability": "payable",
      "type": "function"
    },
    {
      "inputs": [
        {
          "internalType": "address",
          "name": "token",
          "type": "address"
        },
        {
          "internalType": "uint256",
          "name": "amountMinimum",
          "type": "uint256"
        },
        {
          "internalType": "address",
          "name": "recipient",
          "type": "address"
        }
      ],
      "name": "sweepToken",
      "outputs": [],
      "stateMutability": "payable",
      "type": "function"
    },
    {
      "inputs": [
        {
          "internalType": "uint256",
          "name": "amountMinimum",
          "type": "uint256"
        },
        {
          "internalType": "address",
          "name": "recipient",
          "type": "address"
        }
      ],
      "name": "unwrapWETH9",
      "outputs": [],
      "stateMutability": "payable",
      "type": "function"
    }
  ],
  "bytecode": "0x60e06040527fffffffffffffffffffffffffffffffffffffffffffffffffffffffffffffffff6000556000600160006101000a81548160ff0219169083151502179055503480156200005057600080fd5b506040516200601938038062006019833981810160405281019062000076919062000141565b8282828273ffffffffffffffffffffffffffffffffffffffff1660808173ffffffffffffffffffffffffffffffffffffffff1660601b815250508173ffffffffffffffffffffffffffffffffffffffff1660a08173ffffffffffffffffffffffffffffffffffffffff1660601b815250508073ffffffffffffffffffffffffffffffffffffffff1660c08173ffffffffffffffffffffffffffffffffffffffff1660601b81525050505050505050620001e5565b6000815190506200013b81620001cb565b92915050565b6000806000606084860312156200015757600080fd5b600062000167868287016200012a565b93505060206200017a868287016200012a565b92505060406200018d868287016200012a565b9150509250925092565b6000620001a482620001ab565b9050919050565b600073ffffffffffffffffffffffffffffffffffffffff82169050919050565b620001d68162000197565b8114620001e257600080fd5b50565b60805160601c60a05160601c60c05160601c615d0d6200030c60003960008181610f4501528181610f9c015281816110360152818161113d015281816112b801528181611355015281816114e9015281816115a4015281816115e00152818161170e015281816117d0015281816117f20152611cb9015260008181610785015281816108860152818161092101528181612dbb01528181612e1e0152612e9f0152600081816104970152818161062301528181610a0601528181610e0001528181610ea501528181610ff901528181611100015281816114640152818161186b015281816118f701528181611a4301528181611c9501528181611ce2015281816121700152818161281601528181612a6d01528181612bba01526134ea0152615d0d6000f3fe6080604052600436106101095760003560e01c806385f8c25911610095578063ad615dec11610064578063ad615dec146103a4578063c45a0155146103e1578063cccef9e21461040c578063d06ca61f14610437578063df2ab5bb1461047457610109565b806385f8c259146102c75780638d4d72e51461030457806396ed28f914610337578063ac9650d81461037457610109565b806349404b7c116100dc57806349404b7c146101e85780634aa4a4fc146102045780636385a2711461022f57806368bc7e08146102605780637936cd901461029e57610109565b8063054d50d41461010e57806313b519241461014b5780631f00ca741461017b578063441a12de146101b8575b600080fd5b34801561011a57600080fd5b506101356004803603810190610130919061462b565b610490565b6040516101429190615123565b60405180910390f35b61016560048036038101906101609190614411565b6104c7565b6040516101729190615123565b60405180910390f35b34801561018757600080fd5b506101a2600480360381019061019d919061452f565b61061c565b6040516101af9190614de2565b60405180910390f35b6101d260048036038101906101cd9190614452565b610651565b6040516101df9190615123565b60405180910390f35b61020260048036038101906101fd91906144f3565b610781565b005b34801561021057600080fd5b5061021961091f565b6040516102269190614d1c565b60405180910390f35b610249600480360381019061024491906143a6565b610943565b60405161025792919061513e565b60405180910390f35b34801561026c57600080fd5b506102876004803603810190610282919061437c565b610d38565b60405161029592919061513e565b60405180910390f35b3480156102aa57600080fd5b506102c560048036038101906102c091906145bf565b610dd4565b005b3480156102d357600080fd5b506102ee60048036038101906102e9919061462b565b611864565b6040516102fb9190615123565b60405180910390f35b61031e6004803603810190610319919061437c565b61189b565b60405161032e94939291906151fd565b60405180910390f35b34801561034357600080fd5b5061035e60048036038101906103599190614219565b611a3c565b60405161036b9190614e04565b60405180910390f35b61038e600480360381019061038991906142a4565b611a71565b60405161039b9190614dc0565b60405180910390f35b3480156103b057600080fd5b506103cb60048036038101906103c6919061462b565b611c7d565b6040516103d89190615123565b60405180910390f35b3480156103ed57600080fd5b506103f6611c93565b6040516104039190614d1c565b60405180910390f35b34801561041857600080fd5b50610421611cb7565b60405161042e9190614d1c565b60405180910390f35b34801561044357600080fd5b5061045e6004803603810190610459919061452f565b611cdb565b60405161046b9190614de2565b60405180910390f35b61048e60048036038101906104899190614255565b611d10565b005b60006104be7f0000000000000000000000000000000000000000000000000000000000000000858585611e05565b90509392505050565b60008160400151806104d7611f9e565b1115610518576040517f08c379a000000000000000000000000000000000000000000000000000000000815260040161050f90615021565b60405180910390fd5b6000915060003390505b6001156105ce5760006105388560000151611fa6565b905061058f856060015182610551578660200151610553565b305b604051806040016040528061056b8a60000151611fcc565b81526020018673ffffffffffffffffffffffffffffffffffffffff16815250611ff7565b85606001818152505080156105bb573091506105ae85600001516121ef565b85600001819052506105c8565b84606001519350506105ce565b50610522565b8360800151831015610615576040517f08c379a000000000000000000000000000000000000000000000000000000000815260040161060c906150c1565b60405180910390fd5b5050919050565b60606106497f0000000000000000000000000000000000000000000000000000000000000000848461221a565b905092915050565b6000816060013580610661611f9e565b11156106a2576040517f08c379a000000000000000000000000000000000000000000000000000000000815260040161069990615021565b60405180910390fd5b61073283608001358460400160208101906106bd91906141c7565b60405180604001604052808760000160208101906106db91906141c7565b8860200160208101906106ee91906141c7565b6040516020016106ff929190614c78565b60405160208183030381529060405281526020013373ffffffffffffffffffffffffffffffffffffffff16815250611ff7565b91508260a0013582101561077b576040517f08c379a0000000000000000000000000000000000000000000000000000000008152600401610772906150c1565b60405180910390fd5b50919050565b60007f000000000000000000000000000000000000000000000000000000000000000073ffffffffffffffffffffffffffffffffffffffff166370a08231306040518263ffffffff1660e01b81526004016107dc9190614d1c565b60206040518083038186803b1580156107f457600080fd5b505afa158015610808573d6000803e3d6000fd5b505050506040513d601f19601f8201168201806040525081019061082c91906144ca565b9050600083111561087b578281101561087a576040517f08c379a000000000000000000000000000000000000000000000000000000000815260040161087190614e41565b60405180910390fd5b5b600081111561091a577f000000000000000000000000000000000000000000000000000000000000000073ffffffffffffffffffffffffffffffffffffffff16632e1a7d4d826040518263ffffffff1660e01b81526004016108dd9190615123565b600060405180830381600087803b1580156108f757600080fd5b505af115801561090b573d6000803e3d6000fd5b50505050610919828261249a565b5b505050565b7f000000000000000000000000000000000000000000000000000000000000000081565b6000808260e0013580610954611f9e565b1115610995576040517f08c379a000000000000000000000000000000000000000000000000000000000815260040161098c90615021565b60405180910390fd5b600160009054906101000a900460ff16156109e5576040517f08c379a00000000000000000000000000000000000000000000000000000000081526004016109dc906150a1565b60405180910390fd5b60018060006101000a81548160ff0219169083151502179055506000610a507f0000000000000000000000000000000000000000000000000000000000000000866000016020810190610a3891906141c7565b876020016020810190610a4b91906141c7565b6125c0565b90508073ffffffffffffffffffffffffffffffffffffffff166323b872dd338388604001356040518463ffffffff1660e01b8152600401610a9393929190614d60565b602060405180830381600087803b158015610aad57600080fd5b505af1158015610ac1573d6000803e3d6000fd5b505050506040513d601f19601f82011682018060405250810190610ae591906142e9565b506000808273ffffffffffffffffffffffffffffffffffffffff166389afcb44306040518263ffffffff1660e01b8152600401610b229190614d1c565b6040805180830381600087803b158015610b3b57600080fd5b505af1158015610b4f573d6000803e3d6000fd5b505050506040513d601f19601f82011682018060405250810190610b739190614583565b915091506000610ba7886000016020810190610b8f91906141c7565b896020016020810190610ba291906141c7565b6126e4565b5090508073ffffffffffffffffffffffffffffffffffffffff16886000016020810190610bd491906141c7565b73ffffffffffffffffffffffffffffffffffffffff1614610bf6578183610bf9565b82825b80975081985050508760600135871015610c48576040517f08c379a0000000000000000000000000000000000000000000000000000000008152600401610c3f90614f01565b60405180910390fd5b8760800135861015610c8f576040517f08c379a0000000000000000000000000000000000000000000000000000000008152600401610c8690614fa1565b60405180910390fd5b610cd18860a0016020810190610ca591906141c7565b896000016020810190610cb891906141c7565b898b60c0016020810190610ccc91906141c7565b612812565b610d138860a0016020810190610ce791906141c7565b896020016020810190610cfa91906141c7565b888b60c0016020810190610d0e91906141c7565b612812565b505050506000600160006101000a81548160ff02191690831515021790555050915091565b600080610dc7836060013584608001358560a001358660c001356040518060400160405280896000016020810190610d7091906141c7565b8a6020016020810190610d8391906141c7565b604051602001610d94929190614c78565b60405160208183030381529060405281526020013373ffffffffffffffffffffffffffffffffffffffff16815250612bb3565b8092508193505050915091565b60008282810190610de591906143d0565b9050600080610df78360000151612d35565b91509150610e267f00000000000000000000000000000000000000000000000000000000000000008383612d69565b506000806000808a11610e69578473ffffffffffffffffffffffffffffffffffffffff168473ffffffffffffffffffffffffffffffffffffffff1610898b610e9b565b8373ffffffffffffffffffffffffffffffffffffffff168573ffffffffffffffffffffffffffffffffffffffff16108a8a5b92509250925060007f000000000000000000000000000000000000000000000000000000000000000073ffffffffffffffffffffffffffffffffffffffff166346870d2b6040518163ffffffff1660e01b815260040160206040518083038186803b158015610f0957600080fd5b505afa158015610f1d573d6000803e3d6000fd5b505050506040513d601f19601f82011682018060405250810190610f4191906144ca565b90507f000000000000000000000000000000000000000000000000000000000000000073ffffffffffffffffffffffffffffffffffffffff168673ffffffffffffffffffffffffffffffffffffffff1614158015610feb57507f000000000000000000000000000000000000000000000000000000000000000073ffffffffffffffffffffffffffffffffffffffff168573ffffffffffffffffffffffffffffffffffffffff1614155b1561170457600086905060007f000000000000000000000000000000000000000000000000000000000000000073ffffffffffffffffffffffffffffffffffffffff1663e6a43905897f00000000000000000000000000000000000000000000000000000000000000006040518363ffffffff1660e01b8152600401611072929190614d37565b60206040518083038186803b15801561108a57600080fd5b505afa15801561109e573d6000803e3d6000fd5b505050506040513d601f19601f820116820180604052508101906110c291906141f0565b90506000849050600073ffffffffffffffffffffffffffffffffffffffff168273ffffffffffffffffffffffffffffffffffffffff161415611242577f000000000000000000000000000000000000000000000000000000000000000073ffffffffffffffffffffffffffffffffffffffff1663e6a43905897f00000000000000000000000000000000000000000000000000000000000000006040518363ffffffff1660e01b8152600401611179929190614d37565b60206040518083038186803b15801561119157600080fd5b505afa1580156111a5573d6000803e3d6000fd5b505050506040513d601f19601f820116820180604052508101906111c991906141f0565b9150879250859050600073ffffffffffffffffffffffffffffffffffffffff168273ffffffffffffffffffffffffffffffffffffffff161415611241576040517f08c379a000000000000000000000000000000000000000000000000000000000815260040161123890614f81565b60405180910390fd5b5b6000633b9aca00858361125591906154a4565b61125f9190615473565b90508873ffffffffffffffffffffffffffffffffffffffff168473ffffffffffffffffffffffffffffffffffffffff1614156112a45780876112a191906154fe565b96505b6112b084338584612db7565b60006112dc857f00000000000000000000000000000000000000000000000000000000000000006126e4565b5090506000600267ffffffffffffffff811115611322577f4e487b7100000000000000000000000000000000000000000000000000000000600052604160045260246000fd5b6040519080825280602002602001820160405280156113505781602001602082028036833780820191505090505b5090507f0000000000000000000000000000000000000000000000000000000000000000816000815181106113ae577f4e487b7100000000000000000000000000000000000000000000000000000000600052603260045260246000fd5b602002602001019073ffffffffffffffffffffffffffffffffffffffff16908173ffffffffffffffffffffffffffffffffffffffff16815250508581600181518110611423577f4e487b7100000000000000000000000000000000000000000000000000000000600052603260045260246000fd5b602002602001019073ffffffffffffffffffffffffffffffffffffffff16908173ffffffffffffffffffffffffffffffffffffffff1681525050600061148a7f00000000000000000000000000000000000000000000000000000000000000008584612fa9565b6001815181106114c3577f4e487b7100000000000000000000000000000000000000000000000000000000600052603260045260246000fd5b602002602001015190506000808473ffffffffffffffffffffffffffffffffffffffff167f000000000000000000000000000000000000000000000000000000000000000073ffffffffffffffffffffffffffffffffffffffff161461152b5782600061152f565b6000835b915091508773ffffffffffffffffffffffffffffffffffffffff1663022c0d9f8383306040518463ffffffff1660e01b8152600401611570939291906151b3565b600060405180830381600087803b15801561158a57600080fd5b505af115801561159e573d6000803e3d6000fd5b505050507f000000000000000000000000000000000000000000000000000000000000000073ffffffffffffffffffffffffffffffffffffffff1663beceed397f000000000000000000000000000000000000000000000000000000000000000073ffffffffffffffffffffffffffffffffffffffff166370a08231306040518263ffffffff1660e01b81526004016116379190614d1c565b60206040518083038186803b15801561164f57600080fd5b505afa158015611663573d6000803e3d6000fd5b505050506040513d601f19601f8201168201806040525081019061168791906144ca565b6040518263ffffffff1660e01b81526004016116a39190615123565b602060405180830381600087803b1580156116bd57600080fd5b505af11580156116d1573d6000803e3d6000fd5b505050506040513d601f19601f820116820180604052508101906116f591906142e9565b50505050505050505050611819565b6000633b9aca00827f000000000000000000000000000000000000000000000000000000000000000073ffffffffffffffffffffffffffffffffffffffff166370a08231336040518263ffffffff1660e01b81526004016117659190614d1c565b60206040518083038186803b15801561177d57600080fd5b505afa158015611791573d6000803e3d6000fd5b505050506040513d601f19601f820116820180604052508101906117b591906144ca565b6117bf91906154a4565b6117c99190615473565b90506118177f0000000000000000000000000000000000000000000000000000000000000000337f000000000000000000000000000000000000000000000000000000000000000084613219565b505b83158015611830575061182f8760000151611fa6565b5b156118575761184287600001516121ef565b8760000181905250611855833389613371565b505b5050505050505050505050565b60006118927f0000000000000000000000000000000000000000000000000000000000000000858585613569565b90509392505050565b6000806000808460e00135806118af611f9e565b11156118f0576040517f08c379a00000000000000000000000000000000000000000000000000000000081526004016118e790615021565b60405180910390fd5b60006119417f000000000000000000000000000000000000000000000000000000000000000088600001602081019061192991906141c7565b89602001602081019061193c91906141c7565b6125c0565b905061194c87610d38565b809650819750505061197287600001602081019061196a91906141c7565b338389612db7565b61199087602001602081019061198891906141c7565b338388612db7565b8073ffffffffffffffffffffffffffffffffffffffff16636a6278428860400160208101906119bf91906141c7565b6040518263ffffffff1660e01b81526004016119db9190614d1c565b602060405180830381600087803b1580156119f557600080fd5b505af1158015611a09573d6000803e3d6000fd5b505050506040513d601f19601f82011682018060405250810190611a2d91906144ca565b92506000935050509193509193565b6000611a697f000000000000000000000000000000000000000000000000000000000000000084846125c0565b905092915050565b60608282905067ffffffffffffffff811115611ab6577f4e487b7100000000000000000000000000000000000000000000000000000000600052604160045260246000fd5b604051908082528060200260200182016040528015611ae957816020015b6060815260200190600190039081611ad45790505b50905060005b83839050811015611c76576000803073ffffffffffffffffffffffffffffffffffffffff16868685818110611b4d577f4e487b7100000000000000000000000000000000000000000000000000000000600052603260045260246000fd5b9050602002810190611b5f9190615242565b604051611b6d929190614ca4565b600060405180830381855af49150503d8060008114611ba8576040519150601f19603f3d011682016040523d82523d6000602084013e611bad565b606091505b509150915081611c1c57604481511015611bc657600080fd5b60048101905080806020019051810190611be0919061433b565b6040517f08c379a0000000000000000000000000000000000000000000000000000000008152600401611c139190614e1f565b60405180910390fd5b80848481518110611c56577f4e487b7100000000000000000000000000000000000000000000000000000000600052603260045260246000fd5b602002602001018190525050508080611c6e9061566f565b915050611aef565b5092915050565b6000611c8a84848461370f565b90509392505050565b7f000000000000000000000000000000000000000000000000000000000000000081565b7f000000000000000000000000000000000000000000000000000000000000000081565b6060611d087f00000000000000000000000000000000000000000000000000000000000000008484612fa9565b905092915050565b60008373ffffffffffffffffffffffffffffffffffffffff166370a08231306040518263ffffffff1660e01b8152600401611d4b9190614d1c565b60206040518083038186803b158015611d6357600080fd5b505afa158015611d77573d6000803e3d6000fd5b505050506040513d601f19601f82011682018060405250810190611d9b91906144ca565b90506000831115611dea5782811015611de9576040517f08c379a0000000000000000000000000000000000000000000000000000000008152600401611de090614e61565b60405180910390fd5b5b6000811115611dff57611dfe8483836137c9565b5b50505050565b6000808411611e49576040517f08c379a0000000000000000000000000000000000000000000000000000000008152600401611e4090614f21565b60405180910390fd5b600083118015611e595750600082115b611e98576040517f08c379a0000000000000000000000000000000000000000000000000000000008152600401611e8f90614ee1565b60405180910390fd5b60008573ffffffffffffffffffffffffffffffffffffffff1663ddca3f436040518163ffffffff1660e01b815260040160206040518083038186803b158015611ee057600080fd5b505afa158015611ef4573d6000803e3d6000fd5b505050506040513d601f19601f82011682018060405250810190611f1891906144ca565b90506000611f3e82633b9aca00611f2f91906154fe565b8761391e90919063ffffffff16565b90506000611f55858361391e90919063ffffffff16565b90506000611f8283611f74633b9aca008a61391e90919063ffffffff16565b61393490919063ffffffff16565b90508082611f909190615473565b945050505050949350505050565b600042905090565b60006014806014611fb7919061541d565b611fc1919061541d565b825110159050919050565b6060611ff06000601480611fe0919061541d565b8461394a9092919063ffffffff16565b9050919050565b60008060006120098460000151612d35565b915091506000600267ffffffffffffffff811115612050577f4e487b7100000000000000000000000000000000000000000000000000000000600052604160045260246000fd5b60405190808252806020026020018201604052801561207e5781602001602082028036833780820191505090505b50905082816000815181106120bc577f4e487b7100000000000000000000000000000000000000000000000000000000600052603260045260246000fd5b602002602001019073ffffffffffffffffffffffffffffffffffffffff16908173ffffffffffffffffffffffffffffffffffffffff16815250508181600181518110612131577f4e487b7100000000000000000000000000000000000000000000000000000000600052603260045260246000fd5b602002602001019073ffffffffffffffffffffffffffffffffffffffff16908173ffffffffffffffffffffffffffffffffffffffff16815250506121967f00000000000000000000000000000000000000000000000000000000000000008883612fa9565b6001815181106121cf577f4e487b7100000000000000000000000000000000000000000000000000000000600052603260045260246000fd5b602002602001015193506121e586888688613ab6565b5050509392505050565b6060612213601480845161220391906154fe565b8461394a9092919063ffffffff16565b9050919050565b6060600282511015612261576040517f08c379a000000000000000000000000000000000000000000000000000000000815260040161225890614fe1565b60405180910390fd5b815167ffffffffffffffff8111156122a2577f4e487b7100000000000000000000000000000000000000000000000000000000600052604160045260246000fd5b6040519080825280602002602001820160405280156122d05781602001602082028036833780820191505090505b5090508281600183516122e391906154fe565b8151811061231a577f4e487b7100000000000000000000000000000000000000000000000000000000600052603260045260246000fd5b60200260200101818152505060006001835161233691906154fe565b90505b6000811115612492576000806123dc878660018661235791906154fe565b8151811061238e577f4e487b7100000000000000000000000000000000000000000000000000000000600052603260045260246000fd5b60200260200101518786815181106123cf577f4e487b7100000000000000000000000000000000000000000000000000000000600052603260045260246000fd5b6020026020010151613bd5565b9150915061242c8785858151811061241d577f4e487b7100000000000000000000000000000000000000000000000000000000600052603260045260246000fd5b60200260200101518484613569565b8460018561243a91906154fe565b81518110612471577f4e487b7100000000000000000000000000000000000000000000000000000000600052603260045260246000fd5b6020026020010181815250505050808061248a90615614565b915050612339565b509392505050565b60008273ffffffffffffffffffffffffffffffffffffffff1682600067ffffffffffffffff8111156124f5577f4e487b7100000000000000000000000000000000000000000000000000000000600052604160045260246000fd5b6040519080825280601f01601f1916602001820160405280156125275781602001600182028036833780820191505090505b506040516125359190614cbd565b60006040518083038185875af1925050503d8060008114612572576040519150601f19603f3d011682016040523d82523d6000602084013e612577565b606091505b50509050806125bb576040517f08c379a00000000000000000000000000000000000000000000000000000000081526004016125b290614ea1565b60405180910390fd5b505050565b60008060008373ffffffffffffffffffffffffffffffffffffffff168573ffffffffffffffffffffffffffffffffffffffff16106125ff578385612602565b84845b9150915085828260405160200161261a929190614c78565b604051602081830303815290604052805190602001208773ffffffffffffffffffffffffffffffffffffffff166357b84f8c6040518163ffffffff1660e01b815260040160206040518083038186803b15801561267657600080fd5b505afa15801561268a573d6000803e3d6000fd5b505050506040513d601f19601f820116820180604052508101906126ae9190614312565b6040516020016126c093929190614cd4565b6040516020818303038152906040528051906020012060001c925050509392505050565b6000808273ffffffffffffffffffffffffffffffffffffffff168473ffffffffffffffffffffffffffffffffffffffff161415612756576040517f08c379a000000000000000000000000000000000000000000000000000000000815260040161274d90614e81565b60405180910390fd5b8273ffffffffffffffffffffffffffffffffffffffff168473ffffffffffffffffffffffffffffffffffffffff1610612790578284612793565b83835b8092508193505050600073ffffffffffffffffffffffffffffffffffffffff168273ffffffffffffffffffffffffffffffffffffffff16141561280b576040517f08c379a000000000000000000000000000000000000000000000000000000000815260040161280290614f41565b60405180910390fd5b9250929050565b60007f000000000000000000000000000000000000000000000000000000000000000073ffffffffffffffffffffffffffffffffffffffff1663e6a4390586866040518363ffffffff1660e01b815260040161286f929190614d37565b60206040518083038186803b15801561288757600080fd5b505afa15801561289b573d6000803e3d6000fd5b505050506040513d601f19601f820116820180604052508101906128bf91906141f0565b9050600073ffffffffffffffffffffffffffffffffffffffff168173ffffffffffffffffffffffffffffffffffffffff1614156129085761290284308486612db7565b50612bad565b6000600267ffffffffffffffff81111561294b577f4e487b7100000000000000000000000000000000000000000000000000000000600052604160045260246000fd5b6040519080825280602002602001820160405280156129795781602001602082028036833780820191505090505b50905084816000815181106129b7577f4e487b7100000000000000000000000000000000000000000000000000000000600052603260045260246000fd5b602002602001019073ffffffffffffffffffffffffffffffffffffffff16908173ffffffffffffffffffffffffffffffffffffffff16815250508581600181518110612a2c577f4e487b7100000000000000000000000000000000000000000000000000000000600052603260045260246000fd5b602002602001019073ffffffffffffffffffffffffffffffffffffffff16908173ffffffffffffffffffffffffffffffffffffffff16815250506000612a937f00000000000000000000000000000000000000000000000000000000000000008684612fa9565b600181518110612acc577f4e487b7100000000000000000000000000000000000000000000000000000000600052603260045260246000fd5b60200260200101519050612ae286308588612db7565b6000612aee88886126e4565b5090506000808273ffffffffffffffffffffffffffffffffffffffff168973ffffffffffffffffffffffffffffffffffffffff1614612b2f57836000612b33565b6000845b915091508573ffffffffffffffffffffffffffffffffffffffff1663022c0d9f83838a6040518463ffffffff1660e01b8152600401612b74939291906151b3565b600060405180830381600087803b158015612b8e57600080fd5b505af1158015612ba2573d6000803e3d6000fd5b505050505050505050505b50505050565b60008060007f00000000000000000000000000000000000000000000000000000000000000009050600080612beb8660000151612d35565b91509150600080612bfd858585613bd5565b91509150600082148015612c115750600081145b15612c26578b8b965096505050505050612d2b565b6000612c338d848461370f565b90508b8111612c905789811015612c7f576040517f08c379a0000000000000000000000000000000000000000000000000000000008152600401612c7690614fa1565b60405180910390fd5b8c8197509750505050505050612d2b565b6000612c9d8d848661370f565b90508d811115612cd6577f4e487b7100000000000000000000000000000000000000000000000000000000600052600160045260246000fd5b8b811015612d19576040517f08c379a0000000000000000000000000000000000000000000000000000000008152600401612d1090614f01565b60405180910390fd5b808d809950819a505050505050505050505b9550959350505050565b600080612d4c600084613cf390919063ffffffff16565b9150612d62601484613cf390919063ffffffff16565b9050915091565b6000612d768484846125c0565b90508073ffffffffffffffffffffffffffffffffffffffff163373ffffffffffffffffffffffffffffffffffffffff1614612db057600080fd5b9392505050565b60007f000000000000000000000000000000000000000000000000000000000000000073ffffffffffffffffffffffffffffffffffffffff168573ffffffffffffffffffffffffffffffffffffffff16148015612e175750814791508110155b15612f50577f000000000000000000000000000000000000000000000000000000000000000073ffffffffffffffffffffffffffffffffffffffff1663d0e30db0826040518263ffffffff1660e01b81526004016000604051808303818588803b158015612e8457600080fd5b505af1158015612e98573d6000803e3d6000fd5b50505050507f000000000000000000000000000000000000000000000000000000000000000073ffffffffffffffffffffffffffffffffffffffff1663a9059cbb84846040518363ffffffff1660e01b8152600401612ef8929190614d97565b602060405180830381600087803b158015612f1257600080fd5b505af1158015612f26573d6000803e3d6000fd5b505050506040513d601f19601f82011682018060405250810190612f4a91906142e9565b50612fa2565b3073ffffffffffffffffffffffffffffffffffffffff168473ffffffffffffffffffffffffffffffffffffffff161415612f9457612f8f8584846137c9565b612fa1565b612fa085858585613219565b5b5b5050505050565b6060600282511015612ff0576040517f08c379a0000000000000000000000000000000000000000000000000000000008152600401612fe790614fe1565b60405180910390fd5b815167ffffffffffffffff811115613031577f4e487b7100000000000000000000000000000000000000000000000000000000600052604160045260246000fd5b60405190808252806020026020018201604052801561305f5781602001602082028036833780820191505090505b509050828160008151811061309d577f4e487b7100000000000000000000000000000000000000000000000000000000600052603260045260246000fd5b60200260200101818152505060005b600183516130ba91906154fe565b8110156132115760008061315b87868581518110613101577f4e487b7100000000000000000000000000000000000000000000000000000000600052603260045260246000fd5b602002602001015187600187613117919061541d565b8151811061314e577f4e487b7100000000000000000000000000000000000000000000000000000000600052603260045260246000fd5b6020026020010151613bd5565b915091506131ab8785858151811061319c577f4e487b7100000000000000000000000000000000000000000000000000000000600052603260045260246000fd5b60200260200101518484611e05565b846001856131b9919061541d565b815181106131f0577f4e487b7100000000000000000000000000000000000000000000000000000000600052603260045260246000fd5b602002602001018181525050505080806132099061566f565b9150506130ac565b509392505050565b6000808573ffffffffffffffffffffffffffffffffffffffff166323b872dd60e01b86868660405160240161325093929190614d60565b604051602081830303815290604052907bffffffffffffffffffffffffffffffffffffffffffffffffffffffff19166020820180517bffffffffffffffffffffffffffffffffffffffffffffffffffffffff83818316178352505050506040516132ba9190614cbd565b6000604051808303816000865af19150503d80600081146132f7576040519150601f19603f3d011682016040523d82523d6000602084013e6132fc565b606091505b509150915081801561332a575060008151148061332957508080602001905181019061332891906142e9565b5b5b613369576040517f08c379a000000000000000000000000000000000000000000000000000000000815260040161336090615001565b60405180910390fd5b505050505050565b60008060006133838460000151612d35565b915091506000600267ffffffffffffffff8111156133ca577f4e487b7100000000000000000000000000000000000000000000000000000000600052604160045260246000fd5b6040519080825280602002602001820160405280156133f85781602001602082028036833780820191505090505b5090508181600081518110613436577f4e487b7100000000000000000000000000000000000000000000000000000000600052603260045260246000fd5b602002602001019073ffffffffffffffffffffffffffffffffffffffff16908173ffffffffffffffffffffffffffffffffffffffff168152505082816001815181106134ab577f4e487b7100000000000000000000000000000000000000000000000000000000600052603260045260246000fd5b602002602001019073ffffffffffffffffffffffffffffffffffffffff16908173ffffffffffffffffffffffffffffffffffffffff16815250506135107f0000000000000000000000000000000000000000000000000000000000000000888361221a565b600081518110613549577f4e487b7100000000000000000000000000000000000000000000000000000000600052603260045260246000fd5b6020026020010151935061355f86858988613ab6565b5050509392505050565b60008084116135ad576040517f08c379a00000000000000000000000000000000000000000000000000000000081526004016135a490615081565b60405180910390fd5b6000831180156135bd5750600082115b6135fc576040517f08c379a00000000000000000000000000000000000000000000000000000000081526004016135f390614ee1565b60405180910390fd5b60008573ffffffffffffffffffffffffffffffffffffffff1663ddca3f436040518163ffffffff1660e01b815260040160206040518083038186803b15801561364457600080fd5b505afa158015613658573d6000803e3d6000fd5b505050506040513d601f19601f8201168201806040525081019061367c91906144ca565b905060006136a9633b9aca0061369b888861391e90919063ffffffff16565b61391e90919063ffffffff16565b905060006136e183633b9aca006136c091906154fe565b6136d38988613db890919063ffffffff16565b61391e90919063ffffffff16565b9050613702600182846136f49190615473565b61393490919063ffffffff16565b9350505050949350505050565b6000808411613753576040517f08c379a000000000000000000000000000000000000000000000000000000000815260040161374a90615041565b60405180910390fd5b6000831180156137635750600082115b6137a2576040517f08c379a000000000000000000000000000000000000000000000000000000000815260040161379990614ee1565b60405180910390fd5b826137b6838661391e90919063ffffffff16565b6137c09190615473565b90509392505050565b6000808473ffffffffffffffffffffffffffffffffffffffff1663a9059cbb60e01b85856040516024016137fe929190614d97565b604051602081830303815290604052907bffffffffffffffffffffffffffffffffffffffffffffffffffffffff19166020820180517bffffffffffffffffffffffffffffffffffffffffffffffffffffffff83818316178352505050506040516138689190614cbd565b6000604051808303816000865af19150503d80600081146138a5576040519150601f19603f3d011682016040523d82523d6000602084013e6138aa565b606091505b50915091508180156138d857506000815114806138d75750808060200190518101906138d691906142e9565b5b5b613917576040517f08c379a000000000000000000000000000000000000000000000000000000000815260040161390e90614f61565b60405180910390fd5b5050505050565b6000818361392c91906154a4565b905092915050565b60008183613942919061541d565b905092915050565b606081601f8361395a919061541d565b101561399b576040517f08c379a000000000000000000000000000000000000000000000000000000000815260040161399290614ec1565b60405180910390fd5b8282846139a8919061541d565b10156139e9576040517f08c379a00000000000000000000000000000000000000000000000000000000081526004016139e090614ec1565b60405180910390fd5b81836139f5919061541d565b84511015613a38576040517f08c379a0000000000000000000000000000000000000000000000000000000008152600401613a2f90615061565b60405180910390fd5b6060821560008114613a595760405191506000825260208201604052613aaa565b6040519150601f8416801560200281840101858101878315602002848b0101015b81831015613a975780518352602083019250602081019050613a7a565b50868552601f19601f8301166040525050505b50809150509392505050565b600080613ac68360000151612d35565b915091506000613ad68383611a3c565b9050613ae483338389612db7565b6000613af084846126e4565b5090506000808273ffffffffffffffffffffffffffffffffffffffff168673ffffffffffffffffffffffffffffffffffffffff1614613b3157876000613b35565b6000885b915091508373ffffffffffffffffffffffffffffffffffffffff1663022c0d9f83838d8b604051602001613b699190615101565b6040516020818303038152906040526040518563ffffffff1660e01b8152600401613b979493929190615167565b600060405180830381600087803b158015613bb157600080fd5b505af1158015613bc5573d6000803e3d6000fd5b5050505050505050505050505050565b6000806000613be485856126e4565b5090506000613bf48787876125c0565b905060008190506000808273ffffffffffffffffffffffffffffffffffffffff16630902f1ac6040518163ffffffff1660e01b815260040160606040518083038186803b158015613c4457600080fd5b505afa158015613c58573d6000803e3d6000fd5b505050506040513d601f19601f82011682018060405250810190613c7c919061447b565b506dffffffffffffffffffffffffffff1691506dffffffffffffffffffffffffffff1691508473ffffffffffffffffffffffffffffffffffffffff168973ffffffffffffffffffffffffffffffffffffffff1614613cdb578082613cde565b81815b80975081985050505050505050935093915050565b600081601483613d03919061541d565b1015613d44576040517f08c379a0000000000000000000000000000000000000000000000000000000008152600401613d3b906150e1565b60405180910390fd5b601482613d51919061541d565b83511015613d94576040517f08c379a0000000000000000000000000000000000000000000000000000000008152600401613d8b90614fc1565b60405180910390fd5b60006c01000000000000000000000000836020860101510490508091505092915050565b60008183613dc691906154fe565b905092915050565b6000613de1613ddc846152be565b615299565b90508083825260208201905082856020860282011115613e0057600080fd5b60005b85811015613e305781613e168882613eb6565b845260208401935060208301925050600181019050613e03565b5050509392505050565b6000613e4d613e48846152ea565b615299565b905082815260208101848484011115613e6557600080fd5b613e708482856155d2565b509392505050565b6000613e8b613e868461531b565b615299565b905082815260208101848484011115613ea357600080fd5b613eae8482856155e1565b509392505050565b600081359050613ec581615c4d565b92915050565b600081519050613eda81615c4d565b92915050565b600082601f830112613ef157600080fd5b8135613f01848260208601613dce565b91505092915050565b60008083601f840112613f1c57600080fd5b8235905067ffffffffffffffff811115613f3557600080fd5b602083019150836020820283011115613f4d57600080fd5b9250929050565b600081519050613f6381615c64565b92915050565b600081519050613f7881615c7b565b92915050565b60008083601f840112613f9057600080fd5b8235905067ffffffffffffffff811115613fa957600080fd5b602083019150836001820283011115613fc157600080fd5b9250929050565b600082601f830112613fd957600080fd5b8135613fe9848260208601613e3a565b91505092915050565b600082601f83011261400357600080fd5b8151614013848260208601613e78565b91505092915050565b6000610100828403121561402f57600080fd5b81905092915050565b6000610100828403121561404b57600080fd5b81905092915050565b60006040828403121561406657600080fd5b6140706040615299565b9050600082013567ffffffffffffffff81111561408c57600080fd5b61409884828501613fc8565b60008301525060206140ac84828501613eb6565b60208301525092915050565b600060a082840312156140ca57600080fd5b6140d460a0615299565b9050600082013567ffffffffffffffff8111156140f057600080fd5b6140fc84828501613fc8565b600083015250602061411084828501613eb6565b602083015250604061412484828501614188565b604083015250606061413884828501614188565b606083015250608061414c84828501614188565b60808301525092915050565b600060c0828403121561416a57600080fd5b81905092915050565b60008151905061418281615c92565b92915050565b60008135905061419781615ca9565b92915050565b6000815190506141ac81615ca9565b92915050565b6000815190506141c181615cc0565b92915050565b6000602082840312156141d957600080fd5b60006141e784828501613eb6565b91505092915050565b60006020828403121561420257600080fd5b600061421084828501613ecb565b91505092915050565b6000806040838503121561422c57600080fd5b600061423a85828601613eb6565b925050602061424b85828601613eb6565b9150509250929050565b60008060006060848603121561426a57600080fd5b600061427886828701613eb6565b935050602061428986828701614188565b925050604061429a86828701613eb6565b9150509250925092565b600080602083850312156142b757600080fd5b600083013567ffffffffffffffff8111156142d157600080fd5b6142dd85828601613f0a565b92509250509250929050565b6000602082840312156142fb57600080fd5b600061430984828501613f54565b91505092915050565b60006020828403121561432457600080fd5b600061433284828501613f69565b91505092915050565b60006020828403121561434d57600080fd5b600082015167ffffffffffffffff81111561436757600080fd5b61437384828501613ff2565b91505092915050565b6000610100828403121561438f57600080fd5b600061439d8482850161401c565b91505092915050565b600061010082840312156143b957600080fd5b60006143c784828501614038565b91505092915050565b6000602082840312156143e257600080fd5b600082013567ffffffffffffffff8111156143fc57600080fd5b61440884828501614054565b91505092915050565b60006020828403121561442357600080fd5b600082013567ffffffffffffffff81111561443d57600080fd5b614449848285016140b8565b91505092915050565b600060c0828403121561446457600080fd5b600061447284828501614158565b91505092915050565b60008060006060848603121561449057600080fd5b600061449e86828701614173565b93505060206144af86828701614173565b92505060406144c0868287016141b2565b9150509250925092565b6000602082840312156144dc57600080fd5b60006144ea8482850161419d565b91505092915050565b6000806040838503121561450657600080fd5b600061451485828601614188565b925050602061452585828601613eb6565b9150509250929050565b6000806040838503121561454257600080fd5b600061455085828601614188565b925050602083013567ffffffffffffffff81111561456d57600080fd5b61457985828601613ee0565b9150509250929050565b6000806040838503121561459657600080fd5b60006145a48582860161419d565b92505060206145b58582860161419d565b9150509250929050565b600080600080606085870312156145d557600080fd5b60006145e387828801614188565b94505060206145f487828801614188565b935050604085013567ffffffffffffffff81111561461157600080fd5b61461d87828801613f7e565b925092505092959194509250565b60008060006060848603121561464057600080fd5b600061464e86828701614188565b935050602061465f86828701614188565b925050604061467086828701614188565b9150509250925092565b600061468683836147ea565b905092915050565b600061469a8383614c5a565b60208301905092915050565b6146af81615532565b82525050565b6146be81615532565b82525050565b6146d56146d082615532565b6156b8565b82525050565b60006146e68261536c565b6146f081856153b2565b9350836020820285016147028561534c565b8060005b8581101561473e578484038952815161471f858261467a565b945061472a83615398565b925060208a01995050600181019050614706565b50829750879550505050505092915050565b600061475b82615377565b61476581856153c3565b93506147708361535c565b8060005b838110156147a1578151614788888261468e565b9750614793836153a5565b925050600181019050614774565b5085935050505092915050565b6147bf6147ba82615550565b6156ca565b82525050565b60006147d183856153f6565b93506147de8385846155d2565b82840190509392505050565b60006147f582615382565b6147ff81856153d4565b935061480f8185602086016155e1565b61481881615773565b840191505092915050565b600061482e82615382565b61483881856153e5565b93506148488185602086016155e1565b61485181615773565b840191505092915050565b600061486782615382565b61487181856153f6565b93506148818185602086016155e1565b80840191505092915050565b614896816155ae565b82525050565b60006148a78261538d565b6148b18185615401565b93506148c18185602086016155e1565b6148ca81615773565b840191505092915050565b60006148e2601283615401565b91506148ed82615791565b602082019050919050565b6000614905601283615401565b9150614910826157ba565b602082019050919050565b6000614928602683615401565b9150614933826157e3565b604082019050919050565b600061494b600383615401565b915061495682615832565b602082019050919050565b600061496e600e83615401565b91506149798261585b565b602082019050919050565b6000614991602983615401565b915061499c82615884565b604082019050919050565b60006149b4602783615401565b91506149bf826158d3565b604082019050919050565b60006149d7602c83615401565b91506149e282615922565b604082019050919050565b60006149fa600183615412565b9150614a0582615971565b600182019050919050565b6000614a1d601f83615401565b9150614a288261599a565b602082019050919050565b6000614a40600283615401565b9150614a4b826159c3565b602082019050919050565b6000614a63600e83615401565b9150614a6e826159ec565b602082019050919050565b6000614a86602783615401565b9150614a9182615a15565b604082019050919050565b6000614aa9601583615401565b9150614ab482615a64565b602082019050919050565b6000614acc601f83615401565b9150614ad782615a8d565b602082019050919050565b6000614aef600383615401565b9150614afa82615ab6565b602082019050919050565b6000614b12601383615401565b9150614b1d82615adf565b602082019050919050565b6000614b356000836153e5565b9150614b4082615b08565b600082019050919050565b6000614b58602683615401565b9150614b6382615b0b565b604082019050919050565b6000614b7b601183615401565b9150614b8682615b5a565b602082019050919050565b6000614b9e602d83615401565b9150614ba982615b83565b604082019050919050565b6000614bc1600683615401565b9150614bcc82615bd2565b602082019050919050565b6000614be4601383615401565b9150614bef82615bfb565b602082019050919050565b6000614c07601283615401565b9150614c1282615c24565b602082019050919050565b60006040830160008301518482036000860152614c3a82826147ea565b9150506020830151614c4f60208601826146a6565b508091505092915050565b614c6381615594565b82525050565b614c7281615594565b82525050565b6000614c8482856146c4565b601482019150614c9482846146c4565b6014820191508190509392505050565b6000614cb18284866147c5565b91508190509392505050565b6000614cc9828461485c565b915081905092915050565b6000614cdf826149ed565b9150614ceb82866146c4565b601482019150614cfb82856147ae565b602082019150614d0b82846147ae565b602082019150819050949350505050565b6000602082019050614d3160008301846146b5565b92915050565b6000604082019050614d4c60008301856146b5565b614d5960208301846146b5565b9392505050565b6000606082019050614d7560008301866146b5565b614d8260208301856146b5565b614d8f6040830184614c69565b949350505050565b6000604082019050614dac60008301856146b5565b614db96020830184614c69565b9392505050565b60006020820190508181036000830152614dda81846146db565b905092915050565b60006020820190508181036000830152614dfc8184614750565b905092915050565b6000602082019050614e19600083018461488d565b92915050565b60006020820190508181036000830152614e39818461489c565b905092915050565b60006020820190508181036000830152614e5a816148d5565b9050919050565b60006020820190508181036000830152614e7a816148f8565b9050919050565b60006020820190508181036000830152614e9a8161491b565b9050919050565b60006020820190508181036000830152614eba8161493e565b9050919050565b60006020820190508181036000830152614eda81614961565b9050919050565b60006020820190508181036000830152614efa81614984565b9050919050565b60006020820190508181036000830152614f1a816149a7565b9050919050565b60006020820190508181036000830152614f3a816149ca565b9050919050565b60006020820190508181036000830152614f5a81614a10565b9050919050565b60006020820190508181036000830152614f7a81614a33565b9050919050565b60006020820190508181036000830152614f9a81614a56565b9050919050565b60006020820190508181036000830152614fba81614a79565b9050919050565b60006020820190508181036000830152614fda81614a9c565b9050919050565b60006020820190508181036000830152614ffa81614abf565b9050919050565b6000602082019050818103600083015261501a81614ae2565b9050919050565b6000602082019050818103600083015261503a81614b05565b9050919050565b6000602082019050818103600083015261505a81614b4b565b9050919050565b6000602082019050818103600083015261507a81614b6e565b9050919050565b6000602082019050818103600083015261509a81614b91565b9050919050565b600060208201905081810360008301526150ba81614bb4565b9050919050565b600060208201905081810360008301526150da81614bd7565b9050919050565b600060208201905081810360008301526150fa81614bfa565b9050919050565b6000602082019050818103600083015261511b8184614c1d565b905092915050565b60006020820190506151386000830184614c69565b92915050565b60006040820190506151536000830185614c69565b6151606020830184614c69565b9392505050565b600060808201905061517c6000830187614c69565b6151896020830186614c69565b61519660408301856146b5565b81810360608301526151a88184614823565b905095945050505050565b60006080820190506151c86000830186614c69565b6151d56020830185614c69565b6151e260408301846146b5565b81810360608301526151f381614b28565b9050949350505050565b60006080820190506152126000830187614c69565b61521f6020830186614c69565b61522c6040830185614c69565b6152396060830184614c69565b95945050505050565b6000808335600160200384360303811261525b57600080fd5b80840192508235915067ffffffffffffffff82111561527957600080fd5b60208301925060018202360383131561529157600080fd5b509250929050565b60006152a36152b4565b90506152af828261563e565b919050565b6000604051905090565b600067ffffffffffffffff8211156152d9576152d8615744565b5b602082029050602081019050919050565b600067ffffffffffffffff82111561530557615304615744565b5b61530e82615773565b9050602081019050919050565b600067ffffffffffffffff82111561533657615335615744565b5b61533f82615773565b9050602081019050919050565b6000819050602082019050919050565b6000819050602082019050919050565b600081519050919050565b600081519050919050565b600081519050919050565b600081519050919050565b6000602082019050919050565b6000602082019050919050565b600082825260208201905092915050565b600082825260208201905092915050565b600082825260208201905092915050565b600082825260208201905092915050565b600081905092915050565b600082825260208201905092915050565b600081905092915050565b600061542882615594565b915061543383615594565b9250827fffffffffffffffffffffffffffffffffffffffffffffffffffffffffffffffff03821115615468576154676156e6565b5b828201905092915050565b600061547e82615594565b915061548983615594565b92508261549957615498615715565b5b828204905092915050565b60006154af82615594565b91506154ba83615594565b9250817fffffffffffffffffffffffffffffffffffffffffffffffffffffffffffffffff04831182151516156154f3576154f26156e6565b5b828202905092915050565b600061550982615594565b915061551483615594565b925082821015615527576155266156e6565b5b828203905092915050565b600061553d82615574565b9050919050565b60008115159050919050565b6000819050919050565b60006dffffffffffffffffffffffffffff82169050919050565b600073ffffffffffffffffffffffffffffffffffffffff82169050919050565b6000819050919050565b600063ffffffff82169050919050565b60006155b9826155c0565b9050919050565b60006155cb82615574565b9050919050565b82818337600083830152505050565b60005b838110156155ff5780820151818401526020810190506155e4565b8381111561560e576000848401525b50505050565b600061561f82615594565b91506000821415615633576156326156e6565b5b600182039050919050565b61564782615773565b810181811067ffffffffffffffff8211171561566657615665615744565b5b80604052505050565b600061567a82615594565b91507fffffffffffffffffffffffffffffffffffffffffffffffffffffffffffffffff8214156156ad576156ac6156e6565b5b600182019050919050565b60006156c3826156d4565b9050919050565b6000819050919050565b60006156df82615784565b9050919050565b7f4e487b7100000000000000000000000000000000000000000000000000000000600052601160045260246000fd5b7f4e487b7100000000000000000000000000000000000000000000000000000000600052601260045260246000fd5b7f4e487b7100000000000000000000000000000000000000000000000000000000600052604160045260246000fd5b6000601f19601f8301169050919050565b60008160601b9050919050565b7f496e73756666696369656e742057455448390000000000000000000000000000600082015250565b7f496e73756666696369656e7420746f6b656e0000000000000000000000000000600082015250565b7f506f636b6574537761704c6962726172793a204944454e544943414c5f41444460008201527f5245535345530000000000000000000000000000000000000000000000000000602082015250565b7f5354450000000000000000000000000000000000000000000000000000000000600082015250565b7f736c6963655f6f766572666c6f77000000000000000000000000000000000000600082015250565b7f506f636b6574537761704c6962726172793a20494e53554646494349454e545f60008201527f4c49515549444954590000000000000000000000000000000000000000000000602082015250565b7f506f636b657453776170526f757465723a20494e53554646494349454e545f4160008201527f5f414d4f554e5400000000000000000000000000000000000000000000000000602082015250565b7f506f636b6574537761704c6962726172793a20494e53554646494349454e545f60008201527f494e5055545f414d4f554e540000000000000000000000000000000000000000602082015250565b7fff00000000000000000000000000000000000000000000000000000000000000600082015250565b7f506f636b6574537761704c6962726172793a205a45524f5f4144445245535300600082015250565b7f5354000000000000000000000000000000000000000000000000000000000000600082015250565b7f4e6f20504f434b45542070616972000000000000000000000000000000000000600082015250565b7f506f636b657453776170526f757465723a20494e53554646494349454e545f4260008201527f5f414d4f554e5400000000000000000000000000000000000000000000000000602082015250565b7f746f416464726573735f6f75744f66426f756e64730000000000000000000000600082015250565b7f506f636b6574537761704c6962726172793a20494e56414c49445f5041544800600082015250565b7f5354460000000000000000000000000000000000000000000000000000000000600082015250565b7f5472616e73616374696f6e20746f6f206f6c6400000000000000000000000000600082015250565b50565b7f506f636b6574537761704c6962726172793a20494e53554646494349454e545f60008201527f414d4f554e540000000000000000000000000000000000000000000000000000602082015250565b7f736c6963655f6f75744f66426f756e6473000000000000000000000000000000600082015250565b7f506f636b6574537761704c6962726172793a20494e53554646494349454e545f60008201527f4f55545055545f414d4f554e5400000000000000000000000000000000000000602082015250565b7f4c4f434b45440000000000000000000000000000000000000000000000000000600082015250565b7f546f6f206c6974746c6520726563656976656400000000000000000000000000600082015250565b7f746f416464726573735f6f766572666c6f770000000000000000000000000000600082015250565b615c5681615532565b8114615c6157600080fd5b50565b615c6d81615544565b8114615c7857600080fd5b50565b615c8481615550565b8114615c8f57600080fd5b50565b615c9b8161555a565b8114615ca657600080fd5b50565b615cb281615594565b8114615cbd57600080fd5b50565b615cc98161559e565b8114615cd457600080fd5b5056fea264697066735822122020011cd10f02689cc4fcd082be3cb9e9e4025583283dc249430f63588a52a56564736f6c63430008040033",
  "linkReferences": {},
  "deployedLinkReferences": {}
}