{
  "_format": "hh-sol-artifact-1",
  "contractName": "PocketSwap",
  "sourceName": "contracts/PocketSwap.sol",
  "abi": [
    {
      "inputs": [
        {
          "internalType": "address",
          "name": "router_",
          "type": "address"
        },
        {
          "internalType": "address",
          "name": "factory_",
          "type": "address"
        },
        {
          "internalType": "address",
          "name": "pocket_",
          "type": "address"
        },
        {
          "internalType": "address",
          "name": "WETH9_",
          "type": "address"
        }
      ],
      "stateMutability": "nonpayable",
      "type": "constructor"
    },
    {
      "inputs": [],
      "name": "WETH9",
      "outputs": [
        {
          "internalType": "address",
          "name": "",
          "type": "address"
        }
      ],
      "stateMutability": "view",
      "type": "function"
    },
    {
      "inputs": [],
      "name": "_owner",
      "outputs": [
        {
          "internalType": "address",
          "name": "",
          "type": "address"
        }
      ],
      "stateMutability": "view",
      "type": "function"
    },
    {
      "inputs": [
        {
          "components": [
            {
              "internalType": "address",
              "name": "token0",
              "type": "address"
            },
            {
              "internalType": "address",
              "name": "token1",
              "type": "address"
            },
            {
              "internalType": "address",
              "name": "recipient",
              "type": "address"
            },
            {
              "internalType": "uint256",
              "name": "amount0Desired",
              "type": "uint256"
            },
            {
              "internalType": "uint256",
              "name": "amount1Desired",
              "type": "uint256"
            },
            {
              "internalType": "uint256",
              "name": "amount0Min",
              "type": "uint256"
            },
            {
              "internalType": "uint256",
              "name": "amount1Min",
              "type": "uint256"
            },
            {
              "internalType": "uint256",
              "name": "deadline",
              "type": "uint256"
            }
          ],
          "internalType": "struct IPocketSwapLiquidityRouter.AddLiquidityParams",
          "name": "params",
          "type": "tuple"
        }
      ],
      "name": "addLiquidity",
      "outputs": [],
      "stateMutability": "payable",
      "type": "function"
    },
    {
      "inputs": [],
      "name": "factory",
      "outputs": [
        {
          "internalType": "address",
          "name": "",
          "type": "address"
        }
      ],
      "stateMutability": "view",
      "type": "function"
    },
    {
      "inputs": [
        {
          "internalType": "uint256",
          "name": "amountOut",
          "type": "uint256"
        },
        {
          "internalType": "address[]",
          "name": "path",
          "type": "address[]"
        }
      ],
      "name": "getAmountsIn",
      "outputs": [
        {
          "internalType": "uint256[]",
          "name": "",
          "type": "uint256[]"
        }
      ],
      "stateMutability": "view",
      "type": "function"
    },
    {
      "inputs": [
        {
          "internalType": "uint256",
          "name": "amountIn",
          "type": "uint256"
        },
        {
          "internalType": "address[]",
          "name": "path",
          "type": "address[]"
        }
      ],
      "name": "getAmountsOut",
      "outputs": [
        {
          "internalType": "uint256[]",
          "name": "",
          "type": "uint256[]"
        }
      ],
      "stateMutability": "view",
      "type": "function"
    },
    {
      "inputs": [],
      "name": "owner",
      "outputs": [
        {
          "internalType": "address",
          "name": "",
          "type": "address"
        }
      ],
      "stateMutability": "view",
      "type": "function"
    },
    {
      "inputs": [],
      "name": "pocket",
      "outputs": [
        {
          "internalType": "address",
          "name": "",
          "type": "address"
        }
      ],
      "stateMutability": "view",
      "type": "function"
    },
    {
      "inputs": [
        {
          "components": [
            {
              "internalType": "address",
              "name": "tokenA",
              "type": "address"
            },
            {
              "internalType": "address",
              "name": "tokenB",
              "type": "address"
            },
            {
              "internalType": "uint256",
              "name": "liquidity",
              "type": "uint256"
            },
            {
              "internalType": "uint256",
              "name": "amountAMin",
              "type": "uint256"
            },
            {
              "internalType": "uint256",
              "name": "amountBMin",
              "type": "uint256"
            },
            {
              "internalType": "address",
              "name": "rewards",
              "type": "address"
            },
            {
              "internalType": "address",
              "name": "recipient",
              "type": "address"
            },
            {
              "internalType": "uint256",
              "name": "deadline",
              "type": "uint256"
            }
          ],
          "internalType": "struct IPocketSwapLiquidityRouter.RemoveLiquidityParams",
          "name": "params",
          "type": "tuple"
        }
      ],
      "name": "removeLiquidity",
      "outputs": [],
      "stateMutability": "nonpayable",
      "type": "function"
    },
    {
      "inputs": [],
      "name": "router",
      "outputs": [
        {
          "internalType": "address",
          "name": "",
          "type": "address"
        }
      ],
      "stateMutability": "view",
      "type": "function"
    },
    {
      "inputs": [
        {
          "components": [
            {
              "internalType": "address",
              "name": "tokenIn",
              "type": "address"
            },
            {
              "internalType": "address",
              "name": "tokenOut",
              "type": "address"
            },
            {
              "internalType": "address",
              "name": "recipient",
              "type": "address"
            },
            {
              "internalType": "uint256",
              "name": "deadline",
              "type": "uint256"
            },
            {
              "internalType": "uint256",
              "name": "amountIn",
              "type": "uint256"
            },
            {
              "internalType": "uint256",
              "name": "amountOutMinimum",
              "type": "uint256"
            }
          ],
          "internalType": "struct IPocketSwapRouter.SwapParams",
          "name": "params",
          "type": "tuple"
        }
      ],
      "name": "swap",
      "outputs": [],
      "stateMutability": "payable",
      "type": "function"
    },
    {
      "inputs": [
        {
          "internalType": "address",
          "name": "token",
          "type": "address"
        },
        {
          "internalType": "uint256",
          "name": "amountMinimum",
          "type": "uint256"
        },
        {
          "internalType": "address",
          "name": "recipient",
          "type": "address"
        }
      ],
      "name": "sweepToken",
      "outputs": [],
      "stateMutability": "payable",
      "type": "function"
    },
    {
      "inputs": [
        {
          "internalType": "uint256",
          "name": "amountMinimum",
          "type": "uint256"
        },
        {
          "internalType": "address",
          "name": "recipient",
          "type": "address"
        }
      ],
      "name": "unwrapWETH9",
      "outputs": [],
      "stateMutability": "payable",
      "type": "function"
    }
  ],
  "bytecode": "0x60e06040523480156200001157600080fd5b5060405162002d5838038062002d58833981810160405281019062000037919062000184565b8281838273ffffffffffffffffffffffffffffffffffffffff1660808173ffffffffffffffffffffffffffffffffffffffff1660601b815250508173ffffffffffffffffffffffffffffffffffffffff1660a08173ffffffffffffffffffffffffffffffffffffffff1660601b815250508073ffffffffffffffffffffffffffffffffffffffff1660c08173ffffffffffffffffffffffffffffffffffffffff1660601b81525050505050336000806101000a81548173ffffffffffffffffffffffffffffffffffffffff021916908373ffffffffffffffffffffffffffffffffffffffff16021790555083600160006101000a81548173ffffffffffffffffffffffffffffffffffffffff021916908373ffffffffffffffffffffffffffffffffffffffff160217905550505050506200023e565b6000815190506200017e8162000224565b92915050565b600080600080608085870312156200019b57600080fd5b6000620001ab878288016200016d565b9450506020620001be878288016200016d565b9350506040620001d1878288016200016d565b9250506060620001e4878288016200016d565b91505092959194509250565b6000620001fd8262000204565b9050919050565b600073ffffffffffffffffffffffffffffffffffffffff82169050919050565b6200022f81620001f0565b81146200023b57600080fd5b50565b60805160601c60a05160601c60c05160601c612aa9620002af6000396000610dc701526000818161053f01528181610640015281816106db01528181610fc40152818161102701526110a8015260008181610704015281816108ea015281816109d50152610da30152612aa96000f3fe6080604052600436106100c25760003560e01c80638da5cb5b1161007f578063cccef9e211610059578063cccef9e21461022d578063d06ca61f14610258578063df2ab5bb14610295578063f887ea40146102b1576100c2565b80638da5cb5b146101ac578063b2bdfa7b146101d7578063c45a015514610202576100c2565b80631f00ca74146100c7578063441a12de1461010457806349404b7c146101205780634aa4a4fc1461013c5780636385a271146101675780638d4d72e514610190575b600080fd5b3480156100d357600080fd5b506100ee60048036038101906100e99190611c21565b6102dc565b6040516100fb91906123dd565b60405180910390f35b61011e60048036038101906101199190611b93565b610398565b005b61013a60048036038101906101359190611be5565b61053b565b005b34801561014857600080fd5b506101516106d9565b60405161015e9190612339565b60405180910390f35b34801561017357600080fd5b5061018e60048036038101906101899190611b69565b6106fd565b005b6101aa60048036038101906101a59190611b3f565b6108d0565b005b3480156101b857600080fd5b506101c1610d54565b6040516101ce9190612339565b60405180910390f35b3480156101e357600080fd5b506101ec610d7d565b6040516101f99190612339565b60405180910390f35b34801561020e57600080fd5b50610217610da1565b6040516102249190612339565b60405180910390f35b34801561023957600080fd5b50610242610dc5565b60405161024f9190612339565b60405180910390f35b34801561026457600080fd5b5061027f600480360381019061027a9190611c21565b610de9565b60405161028c91906123dd565b60405180910390f35b6102af60048036038101906102aa9190611a5d565b610ea5565b005b3480156102bd57600080fd5b506102c6610f9a565b6040516102d39190612339565b60405180910390f35b6060600160009054906101000a900473ffffffffffffffffffffffffffffffffffffffff1673ffffffffffffffffffffffffffffffffffffffff16631f00ca7484846040518363ffffffff1660e01b815260040161033b92919061254f565b60006040518083038186803b15801561035357600080fd5b505afa158015610367573d6000803e3d6000fd5b505050506040513d6000823e3d601f19601f820116820180604052508101906103909190611aac565b905092915050565b6103ba8160000160208101906103ae9190611a0b565b33308460800135610fc0565b6103fd8160000160208101906103d09190611a0b565b600160009054906101000a900473ffffffffffffffffffffffffffffffffffffffff1683608001356111b2565b600160009054906101000a900473ffffffffffffffffffffffffffffffffffffffff1673ffffffffffffffffffffffffffffffffffffffff1663441a12de826040518263ffffffff1660e01b81526004016104589190612519565b602060405180830381600087803b15801561047257600080fd5b505af19250505080156104a357506040513d601f19601f820116820180604052508101906104a09190611bbc565b60015b610537576104af6127ec565b806308c379a0141561052b57506104c4612981565b806104cf575061052d565b806040516020016104e09190612317565b6040516020818303038152906040526040517f08c379a000000000000000000000000000000000000000000000000000000000815260040161052291906123ff565b60405180910390fd5b505b3d6000803e3d6000fd5b5050565b60007f000000000000000000000000000000000000000000000000000000000000000073ffffffffffffffffffffffffffffffffffffffff166370a08231306040518263ffffffff1660e01b81526004016105969190612339565b60206040518083038186803b1580156105ae57600080fd5b505afa1580156105c2573d6000803e3d6000fd5b505050506040513d601f19601f820116820180604052508101906105e69190611bbc565b905060008311156106355782811015610634576040517f08c379a000000000000000000000000000000000000000000000000000000000815260040161062b90612421565b60405180910390fd5b5b60008111156106d4577f000000000000000000000000000000000000000000000000000000000000000073ffffffffffffffffffffffffffffffffffffffff16632e1a7d4d826040518263ffffffff1660e01b81526004016106979190612534565b600060405180830381600087803b1580156106b157600080fd5b505af11580156106c5573d6000803e3d6000fd5b505050506106d382826111c2565b5b505050565b7f000000000000000000000000000000000000000000000000000000000000000081565b600061074e7f00000000000000000000000000000000000000000000000000000000000000008360000160208101906107369190611a0b565b8460200160208101906107499190611a0b565b6112e8565b90506107608133308560400135610fc0565b61079181600160009054906101000a900473ffffffffffffffffffffffffffffffffffffffff1684604001356111b2565b600160009054906101000a900473ffffffffffffffffffffffffffffffffffffffff1673ffffffffffffffffffffffffffffffffffffffff16636385a271836040518263ffffffff1660e01b81526004016107ec91906124fd565b6040805180830381600087803b15801561080557600080fd5b505af192505050801561083657506040513d601f19601f820116820180604052508101906108339190611c75565b60015b6108ca576108426127ec565b806308c379a014156108be5750610857612981565b8061086257506108c0565b806040516020016108739190612317565b6040516020818303038152906040526040517f08c379a00000000000000000000000000000000000000000000000000000000081526004016108b591906123ff565b60405180910390fd5b505b3d6000803e3d6000fd5b50505050565b600073ffffffffffffffffffffffffffffffffffffffff167f000000000000000000000000000000000000000000000000000000000000000073ffffffffffffffffffffffffffffffffffffffff1663e6a439058360000160208101906109379190611a0b565b84602001602081019061094a9190611a0b565b6040518363ffffffff1660e01b8152600401610967929190612354565b60206040518083038186803b15801561097f57600080fd5b505afa158015610993573d6000803e3d6000fd5b505050506040513d601f19601f820116820180604052508101906109b79190611a34565b73ffffffffffffffffffffffffffffffffffffffff161415610aa6577f000000000000000000000000000000000000000000000000000000000000000073ffffffffffffffffffffffffffffffffffffffff1663c9c65396826000016020810190610a229190611a0b565b836020016020810190610a359190611a0b565b6040518363ffffffff1660e01b8152600401610a52929190612354565b602060405180830381600087803b158015610a6c57600080fd5b505af1158015610a80573d6000803e3d6000fd5b505050506040513d601f19601f82011682018060405250810190610aa49190611a34565b505b600080600160009054906101000a900473ffffffffffffffffffffffffffffffffffffffff1673ffffffffffffffffffffffffffffffffffffffff166368bc7e08846040518263ffffffff1660e01b8152600401610b0491906124e1565b604080518083038186803b158015610b1b57600080fd5b505afa158015610b2f573d6000803e3d6000fd5b505050506040513d601f19601f82011682018060405250810190610b539190611c75565b91509150610b75836000016020810190610b6d9190611a0b565b333085610fc0565b610bb4836000016020810190610b8b9190611a0b565b600160009054906101000a900473ffffffffffffffffffffffffffffffffffffffff16846111b2565b610bd2836020016020810190610bca9190611a0b565b333084610fc0565b610c11836020016020810190610be89190611a0b565b600160009054906101000a900473ffffffffffffffffffffffffffffffffffffffff16836111b2565b600160009054906101000a900473ffffffffffffffffffffffffffffffffffffffff1673ffffffffffffffffffffffffffffffffffffffff16638d4d72e5846040518263ffffffff1660e01b8152600401610c6c91906124e1565b608060405180830381600087803b158015610c8657600080fd5b505af1925050508015610cb757506040513d601f19601f82011682018060405250810190610cb49190611cb1565b60015b610d4b57610cc36127ec565b806308c379a01415610d3f5750610cd8612981565b80610ce35750610d41565b80604051602001610cf49190612317565b6040516020818303038152906040526040517f08c379a0000000000000000000000000000000000000000000000000000000008152600401610d3691906123ff565b60405180910390fd5b505b3d6000803e3d6000fd5b50505050505050565b60008060009054906101000a900473ffffffffffffffffffffffffffffffffffffffff16905090565b60008054906101000a900473ffffffffffffffffffffffffffffffffffffffff1681565b7f000000000000000000000000000000000000000000000000000000000000000081565b7f000000000000000000000000000000000000000000000000000000000000000081565b6060600160009054906101000a900473ffffffffffffffffffffffffffffffffffffffff1673ffffffffffffffffffffffffffffffffffffffff1663d06ca61f84846040518363ffffffff1660e01b8152600401610e4892919061254f565b60006040518083038186803b158015610e6057600080fd5b505afa158015610e74573d6000803e3d6000fd5b505050506040513d6000823e3d601f19601f82011682018060405250810190610e9d9190611aac565b905092915050565b60008373ffffffffffffffffffffffffffffffffffffffff166370a08231306040518263ffffffff1660e01b8152600401610ee09190612339565b60206040518083038186803b158015610ef857600080fd5b505afa158015610f0c573d6000803e3d6000fd5b505050506040513d601f19601f82011682018060405250810190610f309190611bbc565b90506000831115610f7f5782811015610f7e576040517f08c379a0000000000000000000000000000000000000000000000000000000008152600401610f7590612461565b60405180910390fd5b5b6000811115610f9457610f9384838361140c565b5b50505050565b600160009054906101000a900473ffffffffffffffffffffffffffffffffffffffff1681565b60007f000000000000000000000000000000000000000000000000000000000000000073ffffffffffffffffffffffffffffffffffffffff168573ffffffffffffffffffffffffffffffffffffffff161480156110205750814791508110155b15611159577f000000000000000000000000000000000000000000000000000000000000000073ffffffffffffffffffffffffffffffffffffffff1663d0e30db0826040518263ffffffff1660e01b81526004016000604051808303818588803b15801561108d57600080fd5b505af11580156110a1573d6000803e3d6000fd5b50505050507f000000000000000000000000000000000000000000000000000000000000000073ffffffffffffffffffffffffffffffffffffffff1663a9059cbb84846040518363ffffffff1660e01b81526004016111019291906123b4565b602060405180830381600087803b15801561111b57600080fd5b505af115801561112f573d6000803e3d6000fd5b505050506040513d601f19601f820116820180604052508101906111539190611aed565b506111ab565b3073ffffffffffffffffffffffffffffffffffffffff168473ffffffffffffffffffffffffffffffffffffffff16141561119d5761119885848461140c565b6111aa565b6111a985858585611561565b5b5b5050505050565b6111bd8383836116b9565b505050565b60008273ffffffffffffffffffffffffffffffffffffffff1682600067ffffffffffffffff81111561121d577f4e487b7100000000000000000000000000000000000000000000000000000000600052604160045260246000fd5b6040519080825280601f01601f19166020018201604052801561124f5781602001600182028036833780820191505090505b5060405161125d91906122b8565b60006040518083038185875af1925050503d806000811461129a576040519150601f19603f3d011682016040523d82523d6000602084013e61129f565b606091505b50509050806112e3576040517f08c379a00000000000000000000000000000000000000000000000000000000081526004016112da90612481565b60405180910390fd5b505050565b60008060008373ffffffffffffffffffffffffffffffffffffffff168573ffffffffffffffffffffffffffffffffffffffff161061132757838561132a565b84845b9150915085828260405160200161134292919061228c565b604051602081830303815290604052805190602001208773ffffffffffffffffffffffffffffffffffffffff166357b84f8c6040518163ffffffff1660e01b815260040160206040518083038186803b15801561139e57600080fd5b505afa1580156113b2573d6000803e3d6000fd5b505050506040513d601f19601f820116820180604052508101906113d69190611b16565b6040516020016113e8939291906122cf565b6040516020818303038152906040528051906020012060001c925050509392505050565b6000808473ffffffffffffffffffffffffffffffffffffffff1663a9059cbb60e01b85856040516024016114419291906123b4565b604051602081830303815290604052907bffffffffffffffffffffffffffffffffffffffffffffffffffffffff19166020820180517bffffffffffffffffffffffffffffffffffffffffffffffffffffffff83818316178352505050506040516114ab91906122b8565b6000604051808303816000865af19150503d80600081146114e8576040519150601f19603f3d011682016040523d82523d6000602084013e6114ed565b606091505b509150915081801561151b575060008151148061151a5750808060200190518101906115199190611aed565b5b5b61155a576040517f08c379a0000000000000000000000000000000000000000000000000000000008152600401611551906124a1565b60405180910390fd5b5050505050565b6000808573ffffffffffffffffffffffffffffffffffffffff166323b872dd60e01b8686866040516024016115989392919061237d565b604051602081830303815290604052907bffffffffffffffffffffffffffffffffffffffffffffffffffffffff19166020820180517bffffffffffffffffffffffffffffffffffffffffffffffffffffffff838183161783525050505060405161160291906122b8565b6000604051808303816000865af19150503d806000811461163f576040519150601f19603f3d011682016040523d82523d6000602084013e611644565b606091505b509150915081801561167257506000815114806116715750808060200190518101906116709190611aed565b5b5b6116b1576040517f08c379a00000000000000000000000000000000000000000000000000000000081526004016116a8906124c1565b60405180910390fd5b505050505050565b6000808473ffffffffffffffffffffffffffffffffffffffff1663095ea7b360e01b85856040516024016116ee9291906123b4565b604051602081830303815290604052907bffffffffffffffffffffffffffffffffffffffffffffffffffffffff19166020820180517bffffffffffffffffffffffffffffffffffffffffffffffffffffffff838183161783525050505060405161175891906122b8565b6000604051808303816000865af19150503d8060008114611795576040519150601f19603f3d011682016040523d82523d6000602084013e61179a565b606091505b50915091508180156117c857506000815114806117c75750808060200190518101906117c69190611aed565b5b5b611807576040517f08c379a00000000000000000000000000000000000000000000000000000000081526004016117fe90612441565b60405180910390fd5b5050505050565b600061182161181c846125a4565b61257f565b9050808382526020820190508285602086028201111561184057600080fd5b60005b85811015611870578161185688826118e6565b845260208401935060208301925050600181019050611843565b5050509392505050565b600061188d611888846125d0565b61257f565b905080838252602082019050828560208602820111156118ac57600080fd5b60005b858110156118dc57816118c288826119f6565b8452602084019350602083019250506001810190506118af565b5050509392505050565b6000813590506118f581612a17565b92915050565b60008151905061190a81612a17565b92915050565b600082601f83011261192157600080fd5b813561193184826020860161180e565b91505092915050565b600082601f83011261194b57600080fd5b815161195b84826020860161187a565b91505092915050565b60008151905061197381612a2e565b92915050565b60008151905061198881612a45565b92915050565b600061010082840312156119a157600080fd5b81905092915050565b600061010082840312156119bd57600080fd5b81905092915050565b600060c082840312156119d857600080fd5b81905092915050565b6000813590506119f081612a5c565b92915050565b600081519050611a0581612a5c565b92915050565b600060208284031215611a1d57600080fd5b6000611a2b848285016118e6565b91505092915050565b600060208284031215611a4657600080fd5b6000611a54848285016118fb565b91505092915050565b600080600060608486031215611a7257600080fd5b6000611a80868287016118e6565b9350506020611a91868287016119e1565b9250506040611aa2868287016118e6565b9150509250925092565b600060208284031215611abe57600080fd5b600082015167ffffffffffffffff811115611ad857600080fd5b611ae48482850161193a565b91505092915050565b600060208284031215611aff57600080fd5b6000611b0d84828501611964565b91505092915050565b600060208284031215611b2857600080fd5b6000611b3684828501611979565b91505092915050565b60006101008284031215611b5257600080fd5b6000611b608482850161198e565b91505092915050565b60006101008284031215611b7c57600080fd5b6000611b8a848285016119aa565b91505092915050565b600060c08284031215611ba557600080fd5b6000611bb3848285016119c6565b91505092915050565b600060208284031215611bce57600080fd5b6000611bdc848285016119f6565b91505092915050565b60008060408385031215611bf857600080fd5b6000611c06858286016119e1565b9250506020611c17858286016118e6565b9150509250929050565b60008060408385031215611c3457600080fd5b6000611c42858286016119e1565b925050602083013567ffffffffffffffff811115611c5f57600080fd5b611c6b85828601611910565b9150509250929050565b60008060408385031215611c8857600080fd5b6000611c96858286016119f6565b9250506020611ca7858286016119f6565b9150509250929050565b60008060008060808587031215611cc757600080fd5b6000611cd5878288016119f6565b9450506020611ce6878288016119f6565b9350506040611cf7878288016119f6565b9250506060611d08878288016119f6565b91505092959194509250565b6000611d208383611d44565b60208301905092915050565b6000611d38838361226e565b60208301905092915050565b611d4d816126d9565b82525050565b611d5c816126d9565b82525050565b611d73611d6e826126d9565b61278f565b82525050565b6000611d848261261c565b611d8e8185612662565b9350611d99836125fc565b8060005b83811015611dca578151611db18882611d14565b9750611dbc83612648565b925050600181019050611d9d565b5085935050505092915050565b6000611de282612627565b611dec8185612673565b9350611df78361260c565b8060005b83811015611e28578151611e0f8882611d2c565b9750611e1a83612655565b925050600181019050611dfb565b5085935050505092915050565b611e46611e41826126f7565b6127a1565b82525050565b6000611e5782612632565b611e618185612684565b9350611e7181856020860161272b565b80840191505092915050565b6000611e888261263d565b611e92818561268f565b9350611ea281856020860161272b565b611eab8161280e565b840191505092915050565b6000611ec18261263d565b611ecb81856126a0565b9350611edb81856020860161272b565b80840191505092915050565b6000611ef460128361268f565b9150611eff82612839565b602082019050919050565b6000611f1760028361268f565b9150611f2282612862565b602082019050919050565b6000611f3a60128361268f565b9150611f458261288b565b602082019050919050565b6000611f5d60038361268f565b9150611f68826128b4565b602082019050919050565b6000611f806001836126a0565b9150611f8b826128dd565b600182019050919050565b6000611fa360028361268f565b9150611fae82612906565b602082019050919050565b6000611fc660038361268f565b9150611fd18261292f565b602082019050919050565b6000611fe96005836126a0565b9150611ff482612958565b600582019050919050565b610100820161201160008301836126ab565b61201e6000850182611d44565b5061202c60208301836126ab565b6120396020850182611d44565b5061204760408301836126ab565b6120546040850182611d44565b5061206260608301836126c2565b61206f606085018261226e565b5061207d60808301836126c2565b61208a608085018261226e565b5061209860a08301836126c2565b6120a560a085018261226e565b506120b360c08301836126c2565b6120c060c085018261226e565b506120ce60e08301836126c2565b6120db60e085018261226e565b50505050565b61010082016120f360008301836126ab565b6121006000850182611d44565b5061210e60208301836126ab565b61211b6020850182611d44565b5061212960408301836126c2565b612136604085018261226e565b5061214460608301836126c2565b612151606085018261226e565b5061215f60808301836126c2565b61216c608085018261226e565b5061217a60a08301836126ab565b61218760a0850182611d44565b5061219560c08301836126ab565b6121a260c0850182611d44565b506121b060e08301836126c2565b6121bd60e085018261226e565b50505050565b60c082016121d460008301836126ab565b6121e16000850182611d44565b506121ef60208301836126ab565b6121fc6020850182611d44565b5061220a60408301836126ab565b6122176040850182611d44565b5061222560608301836126c2565b612232606085018261226e565b5061224060808301836126c2565b61224d608085018261226e565b5061225b60a08301836126c2565b61226860a085018261226e565b50505050565b61227781612721565b82525050565b61228681612721565b82525050565b60006122988285611d62565b6014820191506122a88284611d62565b6014820191508190509392505050565b60006122c48284611e4c565b915081905092915050565b60006122da82611f73565b91506122e68286611d62565b6014820191506122f68285611e35565b6020820191506123068284611e35565b602082019150819050949350505050565b600061232282611fdc565b915061232e8284611eb6565b915081905092915050565b600060208201905061234e6000830184611d53565b92915050565b60006040820190506123696000830185611d53565b6123766020830184611d53565b9392505050565b60006060820190506123926000830186611d53565b61239f6020830185611d53565b6123ac604083018461227d565b949350505050565b60006040820190506123c96000830185611d53565b6123d6602083018461227d565b9392505050565b600060208201905081810360008301526123f78184611dd7565b905092915050565b600060208201905081810360008301526124198184611e7d565b905092915050565b6000602082019050818103600083015261243a81611ee7565b9050919050565b6000602082019050818103600083015261245a81611f0a565b9050919050565b6000602082019050818103600083015261247a81611f2d565b9050919050565b6000602082019050818103600083015261249a81611f50565b9050919050565b600060208201905081810360008301526124ba81611f96565b9050919050565b600060208201905081810360008301526124da81611fb9565b9050919050565b6000610100820190506124f76000830184611fff565b92915050565b60006101008201905061251360008301846120e1565b92915050565b600060c08201905061252e60008301846121c3565b92915050565b6000602082019050612549600083018461227d565b92915050565b6000604082019050612564600083018561227d565b81810360208301526125768184611d79565b90509392505050565b600061258961259a565b9050612595828261275e565b919050565b6000604051905090565b600067ffffffffffffffff8211156125bf576125be6127bd565b5b602082029050602081019050919050565b600067ffffffffffffffff8211156125eb576125ea6127bd565b5b602082029050602081019050919050565b6000819050602082019050919050565b6000819050602082019050919050565b600081519050919050565b600081519050919050565b600081519050919050565b600081519050919050565b6000602082019050919050565b6000602082019050919050565b600082825260208201905092915050565b600082825260208201905092915050565b600081905092915050565b600082825260208201905092915050565b600081905092915050565b60006126ba60208401846118e6565b905092915050565b60006126d160208401846119e1565b905092915050565b60006126e482612701565b9050919050565b60008115159050919050565b6000819050919050565b600073ffffffffffffffffffffffffffffffffffffffff82169050919050565b6000819050919050565b60005b8381101561274957808201518184015260208101905061272e565b83811115612758576000848401525b50505050565b6127678261280e565b810181811067ffffffffffffffff82111715612786576127856127bd565b5b80604052505050565b600061279a826127ab565b9050919050565b6000819050919050565b60006127b68261281f565b9050919050565b7f4e487b7100000000000000000000000000000000000000000000000000000000600052604160045260246000fd5b600060033d111561280b5760046000803e61280860005161282c565b90505b90565b6000601f19601f8301169050919050565b60008160601b9050919050565b60008160e01c9050919050565b7f496e73756666696369656e742057455448390000000000000000000000000000600082015250565b7f5341000000000000000000000000000000000000000000000000000000000000600082015250565b7f496e73756666696369656e7420746f6b656e0000000000000000000000000000600082015250565b7f5354450000000000000000000000000000000000000000000000000000000000600082015250565b7fff00000000000000000000000000000000000000000000000000000000000000600082015250565b7f5354000000000000000000000000000000000000000000000000000000000000600082015250565b7f5354460000000000000000000000000000000000000000000000000000000000600082015250565b7f4e4f4b3a20000000000000000000000000000000000000000000000000000000600082015250565b600060443d101561299157612a14565b61299961259a565b60043d036004823e80513d602482011167ffffffffffffffff821117156129c1575050612a14565b808201805167ffffffffffffffff8111156129df5750505050612a14565b80602083010160043d0385018111156129fc575050505050612a14565b612a0b8260200185018661275e565b82955050505050505b90565b612a20816126d9565b8114612a2b57600080fd5b50565b612a37816126eb565b8114612a4257600080fd5b50565b612a4e816126f7565b8114612a5957600080fd5b50565b612a6581612721565b8114612a7057600080fd5b5056fea2646970667358221220769a8ab501cd72e304a1594ee6d15d4c0c50ec4f9a5a5241dd9ba827efb3f47364736f6c63430008040033",
  "linkReferences": {},
  "deployedLinkReferences": {}
}